:040000008FEF1CF072
:1000080000C023F001C022F002C021F003C020F09C
:1000180004C01FF005C01EF006C01DF007C01CF08C
:1000280008C01BF009C01AF00AC019F00BC018F07C
:100038000CC017F00DC016F00EC015F0E1CF26F079
:10004800E2CF27F0E9CF24F0EACF25F081CF9CF268
:10005800000E02019D6FF2A245D0000E961902E132
:10006800010E95193FE1810E03018C6F0F0E8D6F04
:100078008E6B640E8F6F010E906F7AEC14F0005245
:1000880031E0010E0201915F000E925B0FD0060E67
:10009800916F000E926F1CD0120E916F000E926F2E
:1000A80017D0170E916F000E926F12D0000E921992
:1000B80002E1070E9119EBE0000E921902E1150E0C
:1000C8009119EAE0000E921902E11A0E9119E9E07D
:1000D800000E006E9251005C02E19151000802E3AB
:1000E800916B926BF292F0A039D00201000E961932
:1000F80002E1010E951932E1810E03018C6F0F0E9A
:100108008D6F010E8E6F640E8F6F010E906F7AECFB
:1001180014F0005223E00201914B922B000E925DE5
:1001280002E11B0E915D02E3916B926B000E925DF2
:1001380002E1070E915D06E382BA04D0120E916FB8
:10014800000E926F000E921902E1120E911906E14B
:1001580082BA04D0170E916F000E926FF090F0A241
:1001680023D00201000EC81902E1010EC7191CE1D3
:10017800000E961902E1000E951916E1810E030191
:100188008C6F0F0E8D6F020E8E6F020E8F6F010E29
:10019800906F7AEC14F0005207E00201D04BD12B9B
:1001A800010E936F000E946FF092F2A00ED0020130
:1001B800000E961902E1010E951907E1000E925DF5
:1001C80002E1070E915D01E20ED00201000E9219C4
:1001D80002E1130E911907E0000E921902E1180EC0
:1001E800911901E0A9D1026A81BA022A02C000F07D
:1001F80000360090000E81B8010E9B6F00509B13D3
:100208000251FF0AD8B496D10251000A04E19B5169
:10021800010A01E116D00251010A04E19B51030AC7
:1002280001E10FD00251030A04E19B51020A01E1E6
:1002380008D00251020A04E19B51000A01E101D0F1
:100248008BD0000E921902E1020E91193FE191C282
:1002580000F092C201F0003600900136003600909E
:100268000136AC0E002403018A6F010E01208B6F4A
:1002780091C200F092C201F00036009001360036BB
:1002880000900136AC0E0024E96E010E0120EA6EE2
:10029800EECF00F0EECF01F0EECF02F0EECF03F09C
:1002A800DA0E046ECC0E056E4C0E066E7B0E076ED3
:1002B8008EDA8AC3E1FF8BC3E2FF00C0E6FF01C00C
:1002C800E6FF02C0E6FF03C0E6FF31D0000E0201E0
:1002D800921902E1020E91192AE0000E925D02E1E4
:1002E800160E915D24E291C200F092C201F0003630
:1002F800009001367A0E0024E16E010E0120E26EB4
:1003080091C200F092C201F00036009001367A0ED8
:100318000024E96E010E0120EA6E010EEE24006E43
:10032800000EEE20016E00C0E6FF01C0E6FF0201EC
:10033800000E921902E1130E911907E0000E9219AE
:1003480002E1180E911901E006D082B48B94010ED7
:10035800936F000E946FEED00251000A04E19B5196
:10036800020A01E108D00251010A04E19B51000A86
:1003780001E101D0DFD0000E921902E1020E9119BD
:1003880078E191C200F092C201F000360090013687
:10039800003600900136AC0E002403018A6F010E6E
:1003A80001208B6F91C200F092C201F000360090DC
:1003B8000136003600900136AC0E0024E96E010EBD
:1003C8000120EA6EEECF00F0EECF01F0EECF02F0A2
:1003D800EECF03F0DA0E046ECC0E056E4C0E066EF0
:1003E8007B0E076E66EC07F08AC3E1FF8BC3E2FF62
:1003F80000C0E6FF01C0E6FF02C0E6FF03C0E6FF5B
:1004080091C200F092C201F0003600900136003629
:1004180000900136AC0E0024E96E010E0120EA6E50
:10042800EECF00F0EECF01F0EECF02F0EECF03F00A
:10043800046A056A066A076AFBEC06F0010ED8B082
:10044800000E006E005214E091C200F092C201F05A
:10045800003600900136003600900136AC0E0024BC
:10046800E16E010E0120E26EE66AE66AE66AE66A75
:1004780024D091C200F092C201F0003600900136FB
:100488007A0E0024E16E010E0120E26E91C200F0A6
:1004980092C201F00036009001367A0E0024E96E0F
:1004A800010E0120EA6E010EEE5C006E000EEE58A1
:1004B800016E00C0E6FF01C0E6FF91C200F092C2E3
:1004C80001F00036009001367A0E0024E96E010E24
:1004D8000120EA6EEECF01F0EECF02F0800E021896
:1004E800006E800E005C02E1000E015C0FE291C21A
:1004F80000F092C201F00036009001367A0E002416
:10050800E16E010E0120E26EE66AE66A000E020163
:10051800921902E1130E911907E0000E921902E1F7
:10052800180E911901E006D082A48B84010E936FF6
:10053800000E946F9BC202F2F29023C000F022C01A
:1005480001F021C002F020C003F01FC004F01EC05B
:1005580005F01DC006F01CC007F01BC008F01AC04B
:1005680009F019C00AF018C00BF017C00CF016C03B
:100578000DF015C00EF024C0E9FF25C0EAFF26C023
:08058800E1FF27C0E2FF1100B2
:100590000B820BAED2EF02F00368026801680068BC
:0805A0000A360232FF0E1200C0
:0E05A800026A016A006A086A036A000E120005
:0805B6000AAE029E000E1200C5
:1005BE000B840BAEEAEF02F0010E036E026A016AC3
:0A05CE00006A0A360232FF0E120026
:1005D8000CB02EEF03F00CA2D4EF03F00E6A000E5D
:1005E800026445EF03F0F00E0214D8A410EF03F0F4
:1005F800023A01380F0B02260138F00B016E003861
:100608000F0B01260038F00B006E08380F0B002680
:100618000838F00B086E0E84D89002BE29EF03F05C
:1006280008360036013602360E2A02BE29EF03F0DC
:1006380008360036013602360E2A02BE29EF03F0CC
:1006480008360036013602360E2A0E500364CAEF09
:1006580003F0035E0BBC08AECFEF03F0D880800E2A
:1006680008640030000E002201220222D8A0CFEF39
:1006780003F0023201320032034AD4EF03F0CFEF25
:1006880003F001C002F000C001F008C000F0086AE1
:10069800000E0E8602647CEF03F0F00E0214D8A45C
:1006A80064EF03F0023A01380F0B02260138F00B11
:1006B800016E00380F0B01260038F00B006E0E8417
:1006C800D89002BE29EF03F00036013602360E2A12
:1006D80002BE29EF03F00036013602360E2A02BEAA
:1006E80029EF03F00036013602360E2A29EF03F00F
:1006F80001C002F000C001F0006A000E0E960E88DC
:100708000264A9EF03F0F00E0214D8A494EF03F0EA
:10071800023A01380F0B02260138F00B016E0E84E5
:10072800D89002BE29EF03F0013602360E2A02BE27
:1007380029EF03F0013602360E2A02BE29EF03F034
:10074800013602360E2A29EF03F001C002F0016AD1
:10075800000E0E860264D9EF03F0F00E0214D8A43E
:10076800B8EF03F0023A0E84D89002BE29EF03F0E6
:1007780002360E2A02BE29EF03F002360E2A02BE06
:1007880029EF03F002360E2A29EF03F0010E0C6E52
:1007980012DFDCEF03F0020E0C6E09DFDCEF03F072
:1007A800040E0C6EF1DEDCEF03F0080E0C6EF8DEC2
:0207B80012002D
:1007BA000B800BAEE9EF03F0026A0AAEFF0E026E7F
:0C07CA00016E006E0A360232FF0E1200B3
:1007D600025006180E6E086A096A0B6A035007640F
:1007E600DEEF04F006500A6E068E028E03500B6E84
:1007F6000750036E000E0B642EEF04F00B50075EDD
:10080600D8B4CFEF04F0070E07649DEF04F0075E3F
:1008160000C008F001C000F002C001F0026A074EF5
:10082600CFEF04F0076472EF04F0075E00C008F033
:1008360001C000F0016A074ECFEF04F0076450EFE5
:1008460004F0075E00C008F0006A074ECFEF04F020
:10085600076437EF04F00AC002F005C001F004C0D7
:1008660000F0086AF8EF05F0030E076442EF04F0A3
:10087600075E08380F0B086E074ECFEF04F0D890CE
:100886000832074ECFEF04F0D8900832074ECFEF6C
:1008960004F0D8900832CFEF04F0030E076461EF3E
:1008A60004F0075E08380F0B086E0038F00B0826B8
:1008B60000380F0B006E074ECFEF04F0D8900032D1
:1008C6000832074ECFEF04F0D89000320832074EB8
:1008D600CFEF04F0D89000320832CFEF04F0030EC9
:1008E600076489EF04F0075E08380F0B086E0038BE
:1008F600F00B082600380F0B006E0138F00B0026AF
:1009060001380F0B016E074ECFEF04F0D89001327D
:1009160000320832074ECFEF04F0D8900132003291
:100926000832074ECFEF04F0D89001320032083279
:10093600CFEF04F0030E0764BAEF04F0075E083841
:100946000F0B086E0038F00B082600380F0B006EF0
:100956000138F00B002601380F0B016E0238F00B40
:10096600012602380F0B026E074ECFEF04F0D89027
:100976000232013200320832074ECFEF04F0D8902F
:100986000232013200320832074ECFEF04F0D8901F
:100996000232013200320832096A000E0EAEC3EF8F
:1009A60005F0081E001E011E021E082A0022012252
:1009B6000222C3EF05F00750D8A4E4EF04F0F8EFE5
:1009C60005F0096A02C00AF0028E068E0750035C23
:1009D600076ED8B4B6EF05F0070E076484EF05F08E
:1009E600075E0450096E0550046E0650056E066AD1
:1009F600074EB6EF05F0070E076459EF05F0075EE0
:100A06000450096E0550046E056A074EB6EF05F0F0
:100A1600070E076437EF05F0075E0450096E046A97
:100A2600074EB6EF05F0070E07641EEF05F00AC085
:100A360002F0F8EF05F0030E076429EF05F0075EF4
:100A460009380F0B096E074EB6EF05F0D89009323C
:100A5600074EB6EF05F0D8900932074EB6EF05F00F
:100A6600D8900932B6EF05F0030E076448EF05F09B
:100A7600075E09380F0B096E0438F00B0926043897
:100A86000F0B046E074EB6EF05F0D890043209320C
:100A9600074EB6EF05F0D89004320932074EB6EF8E
:100AA60005F0D89004320932B6EF05F0030E07645C
:100AB60070EF05F0075E09380F0B096E0438F00B6E
:100AC600092604380F0B046E0538F00B042605388A
:100AD6000F0B056E074EB6EF05F0D89005320432BF
:100AE6000932074EB6EF05F0D890053204320932C6
:100AF600074EB6EF05F0D890053204320932B6EF4C
:100B060005F0030E0764A1EF05F0075E09380F0B29
:100B1600096E0438F00B092604380F0B046E0538ED
:100B2600F00B042605380F0B056E0638F00B05266C
:100B360006380F0B066E074EB6EF05F0D890063254
:100B4600053204320932074EB6EF05F0D890063268
:100B5600053204320932074EB6EF05F0D890063258
:100B6600053204320932086A000E0EAEC3EF05F0F4
:100B7600091E041E051E061E092A04220522062237
:100B86000950082604500022055001220650022270
:100B96000EBEDAEF05F0D8A0E9EF05F00232013219
:100BA60000320832033EE9EF05F0F3EF05F0D8B066
:100BB600EEEF05F0000E081E001E011E021E082A9A
:100BC6000022012202220A7EEEEF05F0010E0C6ED3
:100BD60000DDFAEF05F0020E0C6EFBDCFAEF05F015
:100BE600040E0C6ED2DCFAEF05F0000E0C6E12004D
:060BF600000000001200E7
:100BFC000050086E0150006E0250016E0350026EE0
:100C0C00036A0B6A0C6A9E0E036E0A6A02AE1BEF35
:100C1C0006F0081E001E011E021E082AD8B4002A67
:100C2C00D8B4012AD8B4022A0A8E020E0C6ECEDC7D
:020C3C001200A4
:0C0C3E00290E0D6E0D2EFED700001200D6
:100C4A00120E0C6EDA0E0D6E0D2EFED70C2EFCD780
:040C5A000000120084
:100C5E00086A096A000E07620364B4EF06F00250D8
:100C6E0006180A6E075003267E0ED8A045EF06F032
:100C7E00035ED8B0B8EF06F049EF06F0035ED8A0D9
:100C8E00BCEF06F0028E068E02C00EF001C00BF015
:100C9E0000C00DF000500402F4CF0CF0015005021C
:100CAE00F4CF00F0F3CF08F00402F3500C26F4500A
:100CBE000822000E00220D500502F3500C26F450AF
:100CCE000822000E002202500402F3500826F450AF
:100CDE00002202500502016A000E0122F350002686
:100CEE00F45001220D500602F3500826F450002253
:100CFE00026A000E012202220B500602F350002659
:100D0E00F4500122000E02220E500602F35001266C
:100D1E00F450022202BE9CEF06F008360036013671
:100D2E0002360306D8B4BCEF06F0AFEF06F0D8805B
:100D3E00800E08640030000E002201220222D8A08C
:100D4E00AFEF06F0023201320032034AB8EF06F07E
:100D5E000AAE029E000EBEEF06F0010E1EDCBEEFC6
:100D6E0006F0020E0EDCBEEF06F0040E21DC1200C1
:100D7E000C6A0E6A0250D8A4D8EF06F001C002F039
:100D8E0000C001F0006A0E860250D8A4D8EF06F01B
:100D9E0001C002F0016A0E960E880250D8B4EAEF36
:100DAE0006F00E50035ED8A4D8A0F0EF06F0D8904F
:100DBE0002BEF6EF06F0003601360236032EDFEFE6
:100DCE0006F0F0EF06F0010E0C6ED4EC02F0FAEF26
:100DDE0006F0020E0C6EDFEC02F0FAEF06F0040ED7
:080DEE000C6EDBEC02F01200B8
:100DF6000A6A0350D8A40A800750D8A40A820A5067
:100E0600D8B45EEF07F0030AD8B417EF07F00AB0BC
:100E160012EF07F006AE5CEF07F05AEF07F002AEEE
:100E26005AEF07F05CEF07F00250800B0A6E029E45
:100E36000650800B069E0A18D8B428EF07F00A5011
:100E4600D8B45AEF07F05CEF07F00750035CD8B44C
:100E560032EF07F0D8A04EEF07F054EF07F0065038
:100E6600025CD8B43CEF07F0D8A04EEF07F054EF81
:100E760007F00550015CD8B446EF07F0D8A04EEF56
:100E860007F054EF07F00450005CD8B45EEF07F0AB
:100E9600D8B054EF07F00A52D8B45CEF07F05AEF17
:100EA60007F00A52D8B45AEF07F05CEF07F0D88083
:0E0EB6001200D8901200D880D88412001200CA
:080EC4000B6A0B86FF0E120001
:060ECC00067E83DC12002B
:100ED2000B6A0C6A086A0350D8B4EDEF07F002C03F
:100EE2000AF0028E9E0E035E03AEDDEF07F0036C86
:100EF200080E035CD8A0AAEF07F0036E083600C004
:100F020008F001C000F002C001F0026A080E035CA2
:100F1200D8A0AAEF07F0036E083600C008F001C09F
:100F220000F0016A080E035CD8A0AAEF07F0036E76
:100F3200083600C008F0006A080E035CD8A0AAEFC9
:100F420007F0036E0836086A0350D8A4D890B6EFAB
:100F520007F00350D8B4B6EF07F0D890023201324E
:100F620000320832032EAEEF07F00BBC08A0C7EF29
:100F720007F0D8A0C7EF07F0082AD8B4002AD8B4DF
:100F8200012AD8B4022A02BEF1EF07F00AAEEDEF51
:100F920007F0021E011E001E081E082AD8B4002AED
:100FA200D8B4012AD8B4022AEDEF07F0026A016A26
:100FB200006A086AEDEF07F00B800BAEF8EF07F05E
:100FC200026A0AAEF8EF07F0026E016E006E086E5A
:100FD2000A360232F8EF07F00C6A000EF9EF07F05A
:100FE200010E0C6E000EDDEC03F0F9EF07F0FF0EC0
:100FF2000250036E0150026E0050016E0850006EE6
:021002001200DA
:1010040003500718D8A416EF08F002500618D8A405
:1010140016EF08F001500518D8A416EF08F0005098
:0E1024000418D8B4D8841200D8941200120018
:1010320080C300F0016A026A036AFF0E0016000E06
:10104200011600C085F301C086F37F0E005C026EBC
:10105200000E0158036E02C085F303C086F3800EB2
:101062000318006E800E005C02E1000E025C21E2B9
:10107200046A056A066A076A7DC300F07EC301F04E
:101082007FC302F080C303F0B5DE010ED8B0000EBC
:10109200006E005209E0000E006E000E016E800E1E
:1010A200026E7F0E036E5AD0006A016A026A036AF8
:1010B20055D0000E006E03018651005C02E185519D
:1010C200180809E27DC300F07EC301F07FC302F07D
:1010D20080C303F043D07DC300F07EC301F07FC321
:1010E20002F080C303F0F4DE88DD00C081F301C0AA
:1010F20082F302C083F303C084F300C004F001C092
:1011020005F002C006F003C007F07DC300F07EC305
:1011120001F07FC302F080C303F06CDE010ED8B091
:10112200000E006E005212E0000E046E000E056EFC
:10113200000E066E7F0E076E81C300F082C301F0BF
:1011420083C302F084C303F0C0DE08D081C300F081
:0E11520082C301F083C302F084C303F01200D5
:1011600084C300F085C301F0000E030185BFFF0EAC
:10117000026E036E003600900136023603360036EA
:10118000009001360236033681510024F66E8251FA
:101190000120F76E83510220F86E0900F5CF86F327
:1011A0000900F5CF87F30900F5CF88F30900F5CFE3
:1011B00089F38451851148E07DC300F07EC301F0BE
:1011C0007FC302F080C303F086C304F087C305F039
:1011D00088C306F089C307F042DD010E845F000E6C
:1011E000855B84C304F085C305F0000E85BFFF0E48
:1011F000066E076E0436049005360636073604364A
:10120000049005360636073681510424F66E825165
:101210000520F76E83510620F86E0900F5CF04F023
:101220000900F5CF05F00900F5CF06F00900F5CF6C
:1012300007F0EBEC03F000C086F301C087F302C0B7
:1012400088F303C089F3B5D786C300F087C301F0E4
:0A12500088C302F089C303F0120006
:10125A00086A096A100E0C6E013408360936045001
:10126A00085E0550D8A0053C095ED8B007D00450E6
:10127A0008260550D8B0053C0926D8900036013614
:06128A000C2EEAD7120051
:101290007D0E046E030E056E030E0424E96E000E2F
:1012A0000520EA6E7E0EEE5C006E016A000E015AA9
:1012B00081C3E1FF82C3E2FF00C0E6FF01C0E6FF99
:1012C000030E0424E16E000E0520E26E7E0EE66E33
:1012D0007DC300F07EC301F07FC302F080C303F042
:0212E0001200FA
:1012E2000450000A12E10550000A0FE10650000AFC
:1012F2000CE10750000A09E1FF0E006EFF0E016EBD
:101302007F0E026EFF0E036EA7D0086A096A0750AD
:10131200D8B41CEF0AF00350D8B420EF0AF0025000
:1013220006180A6E028E068E0E6A02C008F001C00E
:101332000CF000C00DF004500D5E0550D8A0053C25
:101342000C5E0650D8A0063C085E086A0C6A0D6A5C
:10135200D8A0B3EF09F0D89002320132003208323D
:10136200010E0E6E0750035ED8A0C0EF09F07E0E8C
:101372000E240326D8B025EF0AF0C6EF09F07E0E40
:101382000E240326D8A02AEF0AF0180E0B6E0D3693
:101392000C3608360036013602360E360450005E30
:1013A2000550D8A0053C015E0650D8A0063C025E5E
:1013B20006340E120EA0E1EF09F00D80ECEF09F0F9
:1013C200045000260550D8B0053C01260650D8B07E
:1013D200062802260D900B2EC8EF09F012EF0AF034
:1013E200D8900036013602360E360450005E0550A3
:1013F200D8A0053C015E0650D8A0063C025E063429
:101402000E10010B0D26D8B00C2AD8B4082AD8A485
:1014120012EF0AF008320C320D32032AD8B425EF4B
:101422000AF00AAE089E0850026E0C50016E0D5072
:10143200006E2DEF0AF0010E44DD2DEF0AF0020ED0
:10144200D4EC02F02DEF0AF0040EC8EC02F02DEFFE
:0A1452000AF0080EDFEC02F01200B1
:10145C007D0E0301836F030E846F030E8325D96EFB
:10146C00000E8421DA6EDE508125016E000E822181
:10147C00026E01C081F302C082F3800E0218006E6E
:10148C00800E005C02E1000E015C05E2006A016A5C
:10149C00026A036A3ED0800E006E800E8219005CD8
:1014AC0002E18151FF0825E2046A056A066A076AAF
:1014BC007DC300F07EC301F07FC302F080C303F054
:1014CC0094DC010ED8B0000E006E005209E0FF0E45
:1014DC00006EFF0E016EFF0E026EFF0E036E19D032
:1014EC00FF0E006EFF0E016E7F0E026EFF0E036E7E
:1014FC0010D0030E8325E16E000E8421E26E81C3B1
:10150C00E6FF7DC300F07EC301F07FC302F080C311
:04151C0003F01200C6
:101520000B6A0350D8B4D6EF0AF002500A6E028E4E
:101530008E0E035E03AEDAEF0AF0036C080E035C56
:10154000D8A0B5EF0AF0036E013602C001F0026ABE
:10155000080E035CD8A0B5EF0AF0036E0136016AED
:101560000350D8A4D890BFEF0AF00350D8B4BFEF0F
:101570000AF0D89002320132032EB9EF0AF00BBC08
:1015800001A0CCEF0AF0D8A0CCEF0AF0012AD8B421
:10159000022A02BEE9EF0AF00AAEEFEF0AF0021EDD
:1015A000011E012AD8B4022AEFEF0AF0026A016A8A
:1015B000EFEF0AF00B800BAEF3EF0AF0026A0AAE0F
:1015C000F3EF0AF0FF0E026E016E0A360232F3EFFD
:1015D0000AF0010E0C6EDDEC03F0F5EF0AF0000EE0
:1015E0000C6EF5EF0AF0FF0E0C6E0150006E02500B
:0415F000016E120076
:1015F40003017DBF02D0899A01D0898A7DBD02D0C2
:10160400899801D089887DBB02D0899601D08986CA
:101614007DB902D0899401D0898402019EB102D09F
:10162400898001D089908982FBEC05F089920301BD
:101634007DB702D0899A01D0898A7DB502D0899874
:1016440001D089887DB302D0899601D089867DB185
:1016540002D0899401D0898402019EB102D089808C
:1016640001D089908982FBEC05F089929EA103D078
:0C16740025EC06F002D01FEC06F012007E
:101680000134083609360450085E0550D8A0053CE0
:10169000095E003601360F0E0C6E0134083609362D
:1016A000045000A006D0085E0550D8A0053C095E95
:1016B00005D008260550D8B0053C0926003601366D
:1016C0000C2EEBD700B006D0045008260550D8B039
:0816D000053C09260000120090
:1016D80000C008F00150006E016A026A036A0B6AD2
:1016E8000C6A016A026A036A960E036E0A6A00AE01
:1016F80084EF0BF0081E001E082AD8B4002A0A8EB0
:1017080000C001F008C000F0086A026ABFEC06F0E9
:021718001200BD
:10171A000050086E0150006E0250016E0350026EB6
:10172A00036A0B6A0C6A9E0E036E0A6A020E0C6E3C
:06173A00ECEC02F01200CD
:101740000450000A08E10550000A05E1FF0E006E92
:101750007F0E016E57D00D6A096A086A01500010A9
:10176000D8B4000C015005180A6E0ABE0D1E0B6A93
:1017700005AE05D0041E051E042AD8B4052A01AE04
:1017800005D0001E011E002AD8B4012A0150051000
:101790000A6E0ABE10D074DF0BB020D00DAE000C64
:1017A000001E011E002AD8B4012A081E091E082A9C
:1017B000D8B4092A000C05AE0DD001BE07D00150E7
:1017C000096E0050086E016A006AE8D7016A006A73
:1017D000002A000C011E001E0B2ADDD7082AD8B4EF
:1017E000092A0450085CD8A4D9D70550095CD8A4AC
:1017F000D5D7096A086A002AD8B4012A01AECED723
:061800000000FF0C1200C5
:0E18060002019E9173C37DF3F2DE9E811200FB
:101814000B6A0C6A0A6A086A0350D8B492EF0CF097
:10182400028E9E0E035E03BE1DEF0CF0D8B41DEFB6
:101834000CF082EF0CF0036C080E035CD8A04FEFA1
:101844000CF0036E083600C008F001C000F002C0BE
:1018540001F0026A080E035CD8A04FEF0CF0036E8F
:10186400083600C008F001C000F0016A080E035CED
:10187400D8A04FEF0CF0036E083600C008F0006AE1
:10188400080E035CD8A04FEF0CF0036E0836086A0C
:101894000350D8A4D8905BEF0CF00350D8B45BEF9E
:1018A4000CF0D8900232013200320832032E53EF8A
:1018B4000CF00BBC08A06CEF0CF0D8A06CEF0CF093
:1018C400082AD8B4002AD8B4012AD8B4022A02BEFD
:1018D40096EF0CF00AAE92EF0CF0021E011E001EF1
:1018E400081E082AD8B4002AD8B4012AD8B4022A77
:1018F40092EF0CF0026A016A006A086A92EF0CF037
:101904000B800BAE9CEF0CF0026A0AAE9CEF0CF05D
:10191400026E016E006E086E0A3602329CEF0CF005
:10192400000E0C6A9DEF0CF0010E0C6EDDEC03F062
:101934009DEF0CF0FF0E0250036E0150026E00503A
:08194400016E0850006E120054
:10194C000B6A0A6A096A086A0E6A0334083604507C
:10195C00085E0550D8A0053C095E0650D8A0063C90
:10196C000A5E0750D8A0073C0B5EE86AD8A0010EAF
:10197C000E5E0336070E0C6E0334083609360A3633
:10198C000B360E36045003A012D0085E0550D8A0BA
:10199C00053C095E0650D8A0063C0A5E0750D8A04C
:1019AC00073C0B5EE86AD8A0010E0E5E11D008262B
:1019BC000550D8B0053C09260650D8B0063C0A267E
:1019CC000750D8B0073C0B26E86AD8B0010E0E269B
:1019DC0003360C2ED1D70234083609360A360B36AC
:1019EC000E36045003A012D0085E0550D8A0053C5A
:1019FC00095E0650D8A0063C0A5E0750D8A0073CEA
:101A0C000B5EE86AD8A0010E0E5E11D008260550B8
:101A1C00D8B0053C09260650D8B0063C0A2607501B
:101A2C00D8B0073C0B26E86AD8B0010E0E26023659
:101A3C00070E0C6E0234083609360A360B360E3693
:101A4C00045002A012D0085E0550D8A0053C095ED7
:101A5C000650D8A0063C0A5E0750D8A0073C0B5E87
:101A6C00E86AD8A0010E0E5E11D008260550D8B039
:101A7C00053C09260650D8B0063C0A260750D8B0BB
:101A8C00073C0B26E86AD8B0010E0E2602360C2E47
:101A9C00D1D70134083609360A360B360E360450C7
:101AAC0002A012D0085E0550D8A0053C095E065075
:101ABC00D8A0063C0A5E0750D8A0073C0B5EE86A2B
:101ACC00D8A0010E0E5E11D008260550D8B0053CEA
:101ADC0009260650D8B0063C0A260750D8B0073C59
:101AEC000B26E86AD8B0010E0E260136070E0C6ED6
:101AFC000134083609360A360B360E36045001A06E
:101B0C0012D0085E0550D8A0053C095E0650D8A03E
:101B1C00063C0A5E0750D8A0073C0B5EE86AD8A0CA
:101B2C00010E0E5E11D008260550D8B0053C0926D2
:101B3C000650D8B0063C0A260750D8B0073C0B26F6
:101B4C00E86AD8B0010E0E2601360C2ED1D700341F
:101B5C00083609360A360B360E36045001A012D060
:101B6C00085E0550D8A0053C095E0650D8A0063C7E
:101B7C000A5E0750D8A0073C0B5EE86AD8A0010E9D
:101B8C000E5E11D008260550D8B0053C092606502B
:101B9C00D8B0063C0A260750D8B0073C0B26E86A9A
:101BAC00D8B0010E0E260036070E0C6E0034083627
:101BBC0009360A360B360E36045000A012D0085ED9
:101BCC000550D8A0053C095E0650D8A0063C0A5E1C
:101BDC000750D8A0073C0B5EE86AD8A0010E0E5E39
:101BEC0011D008260550D8B0053C09260650D8B0AF
:101BFC00063C0A260750D8B0073C0B26E86AD8B03A
:101C0C00010E0E2600360C2ED1D700B00ED004508B
:101C1C0008260550D8B0053C09260650D8B0063C1D
:0C1C2C000A260750D8B0073C0B26120017
:101C380073C304F074C305F075C306F076C307F0E8
:101C4800006A016A026A036AFBEC06F0000ED8B06B
:101C5800010E006E005205E0006A016A026A036A1A
:101C68006CD073C37DF374C37EF375C37FF376C3FF
:101C780080F3770E0301816F030E826F48EC09F041
:101C8800000E046E000E056E000E066E800E076EC6
:101C98002FEC06F0000E046E000E056E000E066EA8
:101CA8007F0E076E66EC07F000C073F301C074F393
:101CB80002C075F303C076F3010E775F000E785B00
:101CC80000C07DF301C07EF302C07FF303C080F340
:101CD800640E816F4A0E826F000E836F080E846F48
:101CE800000E856FB0EC08F000C079F301C07AF3FC
:101CF80002C07BF303C07CF379C373F37AC374F334
:101D08007BC375F37CC376F377C300F078C301F027
:101D1800DFDC180E046E720E056E310E066E7E0E36
:101D2800076E2FEC06F079C304F07AC305F07BC385
:0C1D380006F07CC307F0EBEC03F0120097
:101D4400046A056A066A076A73C300F074C301F083
:101D540075C302F076C303F002EC08F0010ED8A4B8
:101D6400000E006E005209E0000E006E000E016EBF
:101D7400000E026E7F0E036E00D173C304F074C3B1
:101D840005F075C306F076C307F0FC0E006ED40EA2
:101D9400016E320E026E850E036EFBEC06F0010E30
:101DA400D8B0000E006E005209E0FF0E006EFF0E68
:101DB400016E7F0E026EFF0E036EDFD04F0E046EB7
:101DC400AC0E056EAE0E066E850E076E73C300F084
:101DD40074C301F075C302F076C303F0FBEC06F0A4
:101DE400010ED8B0000E006E005205E0006A016AD0
:101DF400026A036AC2D0046A056A066A076A73C380
:101E040000F074C301F075C302F076C303F0FBEC79
:101E140006F0010ED8B0000E006E00C079F3005237
:101E240002E00301757F73C300F074C301F075C34E
:101E340002F076C303F03B0E046EAA0E056E380E54
:101E4400066E7F0E076E2FEC06F000C073F301C020
:101E540074F302C075F303C076F300C07DF301C0D0
:101E64007EF302C07FF303C080F319EC08F090EC1A
:101E74000AF000C077F301C078F32CDC00C004F052
:101E840001C005F002C006F003C007F073C300F000
:101E940074C301F075C302F076C303F066EC07F077
:101EA40000C073F301C074F302C075F303C076F38A
:101EB40000C07DF301C07EF302C07FF303C080F352
:101EC4003C0E0301816F4A0E826F000E836F090E70
:101ED400846F000E856FB0EC08F000C07DF301C084
:101EE4007EF302C07FF303C080F377C381F378C32A
:101EF40082F32EEC0AF000C073F301C074F302C045
:101F040075F303C076F3795330E0FF0E046EFF0ED1
:101F1400056E7F0E066EFF0E076E73C300F074C36A
:101F240001F075C302F076C303F002EC08F0010E71
:101F3400D8A4000E006E005205E0006A016A026A2D
:101F4400036A1BD073C304F074C305F075C306F0B1
:101F540076C307F0000E006E000E016E000E026ED6
:101F64007F0E036E71EC09F008D073C300F074C3E4
:0C1F740001F075C302F076C303F0120008
:101F80000301776B050E775D0AE277517525E16EE7
:101F9000000E7621E26E200EE66E772BF3D7775196
:101FA0007525E16E000E7621E26EE66A77077751BD
:101FB0007525786F000E7621796F0A0E046E000E7B
:101FC000056E73C300F074C301F02DEC09F008C076
:101FD00000F009C001F0300E002678C3E1FF79C39C
:101FE000E2FF00C0E6FF0A0E046E000E056E73C32A
:101FF00000F074C301F02DEC09F000C073F301C0D0
:1020000074F3000E011802E1000E001801E102D085
:062010007707CDD7120096
:102016000900F5CFE6FF0006FBE10106F9E1120033
:102026000050086E0150006E016A026A036A0B6A6C
:102036000C6A960E036E0A6A00C001F008C000F032
:0A204600086A026ABFEC06F01200FF
:102050000201976B986B800E03013C19006E800E95
:1020600002019819005C03E1975103013B5D10E305
:102070008B82420E0D6E0D2EFED700008B92420E0B
:102080000D6E0D2EFED700000201974B982BE3D763
:0220900012003C
:1020920010D0800E03013B6F1AD0C00E3B6F17D0D9
:1020A200940E3B6F14D0D40E3B6F11D0800E3B6F59
:1020B2000ED003013B51010AECE03B51020AEDE074
:1020C2003B51030AEDE03B51040AEDE0EFD73C053A
:1020D200006E3B51002600C03BF300C07DF3FAECDA
:1020E2000AF09E910301006B00513D25E96E000E3E
:1020F2003E21EA6EEE520DE000513D25E96E000EE2
:102102003E21EA6EEECF73F303EC0CF00301002BD9
:08211200EBD702019E811200CF
:10211A00020E0C6E9C0E0D6E0D2EFED70C2EFCD7E9
:06212A000000000012009D
:102130000301416B426B3BC343F33CC344F3800E4A
:102140003C19006E800E005C02E1000E3B5D0BE26C
:10215000010E416F000E426F3B510008436F3CC3BC
:1021600044F3000E445743C373F344C374F33DC3B5
:1021700075F33EC376F304DF060E3F6F000E406F2B
:10218000000E006E4051005C02E13F51000819E270
:102190003F513D25E16E40513E21E26E010E3F5D13
:1021A000006E000E4059016E00503D25E96E015051
:1021B0003E21EA6EEECFE6FF010E3F5F000E405B70
:1021C000DFD73DC3E1FF3EC3E2FF200EE66E415183
:1021D00042111AE03F6B406B3F513D25E96E405183
:1021E0003E21EA6EEE50200A03E13F4B402BF4D72C
:1021F000010E3F5F000E405B3F513D25E16E4051B7
:0A2200003E21E26E2D0EE66E120084
:10220A000301006B046A056A066A076A3FC300F0A5
:10221A0040C301F041C302F042C303F002EC08F0EC
:10222A00010ED8A4000E006E005209E0000E006EE6
:10223A00000E016E000E026E7F0E036EA6D0046AB7
:10224A00056A066A076A3BC300F03CC301F03DC356
:10225A0002F03EC303F002EC08F0010ED8A4000E0F
:10226A00006E005205E0006A016A026A036A8DD0B4
:10227A00046A056A066A076A3BC300F03CC301F0B8
:10228A003DC302F03EC303F0FBEC06F0010ED8B0EA
:10229A00000E006E00522DE03FC300F040C301F073
:1022AA0041C302F042C303F069EC07F000C043F3F4
:1022BA0001C044F302C045F303C046F3FEEC05F047
:1022CA003FC304F040C305F041C306F042C307F020
:1022DA0002EC08F0000ED8A4010E006E005205E0D0
:1022EA00006A016A026A036A50D0010E4315006F40
:1022FA003D7F3BC373F33CC374F33DC375F33EC3E5
:10230A0076F395DC00C03BF301C03CF302C03DF319
:10231A0003C03EF33FC304F040C305F041C306F0D7
:10232A0042C307F02FEC06F000C03BF301C03CF3B8
:10233A0002C03DF303C03EF300C073F301C074F35F
:10234A0002C075F303C076F3F8DC00C03BF301C0AA
:10235A003CF302C03DF303C03EF3030100530DE01A
:10236A00000E3B19006E000E3C19016E800E3D19DD
:10237A00026E000E3E19036E08D03BC300F03CC348
:0C238A0001F03DC302F03EC303F012005E
:102396000B6A0A6A096A00500402F4CF09F0F3CF07
:1023A60008F001500502F4CF0BF0F3CF0AF000500D
:1023B6000502F3500926F4500A22E86A0B2201505E
:1023C6000402F3500926F4500A22E86A0B2208C0D8
:1023D60000F009C001F00AC002F00BC003F01200C1
:1023E6003BC304F03CC305F03DC306F03EC307F013
:1023F600006A016A026A036AFBEC06F0000ED8B0B6
:10240600010E006E005205E0006A016A026A036A64
:10241600F9D03BC33FF33CC340F33DC341F33EC356
:1024260042F3000E046E000E056E000E066E7F0E61
:10243600076E3BC300F03CC301F03DC302F03EC350
:1024460003F0FBEC06F0010ED8B0000E006E005251
:102456001AE03FC304F040C305F041C306F042C38F
:1024660007F0000E006E000E016E000E026E7F0E6B
:10247600036E71EC09F000C03FF301C040F302C0E7
:1024860041F303C042F33FC37DF340C37EF341C330
:102496007FF342C380F3470E0301816F030E826F01
:1024A60048EC09F000C03FF301C040F302C041F31D
:1024B60003C042F300C07DF301C07EF302C07FF388
:1024C60003C080F3020E046E000E056E47C300F0D3
:1024D60048C301F0A0EC0BF000C081F301C082F309
:1024E6002EEC0AF000C03FF301C040F302C041F3F6
:1024F60003C042F3000E046E000E056E000E066E5B
:102506007F0E076E3BC300F03CC301F03DC302F0F3
:102516003EC303F0FBEC06F0010ED8B0000E006ED1
:1025260000521AE03FC304F040C305F041C306F071
:1025360042C307F0000E006E000E016E000E026E22
:102546007F0E036E71EC09F000C03FF301C040F34B
:1025560002C041F303C042F3140E0301006F3FC3F0
:1025660004F040C305F041C306F042C307F03BC385
:1025760000F03CC301F03DC302F03EC303F071EC32
:1025860009F03FC304F040C305F041C306F042C35F
:1025960007F0EBEC03F0000E046E000E056E000E65
:1025A600066E800E076E71EC09F000C043F301C0A1
:1025B60044F302C045F303C046F33FC304F040C3EF
:1025C60005F041C306F042C307F002EC08F0010E25
:1025D600D8A4000E006E005201E00CD043C33FF3B6
:1025E60044C340F345C341F346C342F30301000726
:1025F6000053B5E13FC300F040C301F041C302F010
:0626060042C303F01200C4
:10260C0003010007000700C301F000070150000898
:10261C0003E200000000F7D70000000000000000FB
:04262C000000120098
:102630000301426B436B41C370F3140EF66E4A0EF6
:10264000F76E000EF86E440EE16E030EE26E280E79
:10265000006E010E016EDFDC41C300F0000E016E62
:10266000003600900136003600900136440E0024FA
:10267000716F030E0120726F71C3E9FF72C3EAFF2D
:10268000EECF00F0EECF01F0EECF02F0EECF03F090
:102690008DEC0BF03BC304F03CC305F03DC306F0EA
:1026A0003EC307F02FEC06F00AEC0CF000C06CF310
:1026B00001C06DF302C06EF303C06FF371C3E9FF95
:1026C00072C3EAFFEECF05F0EECF06F0EECF07F0D3
:1026D000EECF08F00850035C08E10750025C05E10A
:1026E0000650015C02E10550005C02E2010E436FFE
:1026F000000E42BFFF0E006E000E001802E14151B5
:1027000042190CE142513F25E16E000E42BFFF0E1F
:102710004021E26E2E0EE66E422B41D042513F2503
:10272000716F000E42BFFF0E4021726F0A0E046EE1
:10273000000E056E066E076E6CC300F06DC301F0EF
:102740006EC302F06FC303F0A6EC0CF008C000F0FB
:1027500009C001F00AC002F00BC003F0300E0026E1
:1027600071C3E1FF72C3E2FF00C0E6FF422B0A0E15
:10277000046E000E056E066E076E6CC300F06DC32E
:1027800001F06EC302F06FC303F0A6EC0CF000C0C2
:102790006CF301C06DF302C06EF303C06FF370C33E
:1027A00001F07007800E000A006E800E0118005CB8
:1027B0009FE36C516D116E116F119AE143530BE061
:1027C00042513F25E16E000E42BFFF0E4021E26EF6
:1027D000300EE66E422B42513F25E16E000E42BFA5
:1027E000FF0E4021E26EE66A4205006F426B800EEA
:1027F0004219006E800E0019005C29E242513F250B
:10280000006E000E42BFFF0E4021016E00C0E9FFC6
:1028100001C0EAFFEECF43F300513F25E96E000E01
:1028200000BFFF0E4021EA6E00C0E1FF01C0E2FFE1
:10283000EECFE6FF00513F25E16E000E00BFFF0E18
:102840004021E26E43C3E6FF422B0007D0D71200BF
:10285000036AB30E016E020E026E03500126D8B059
:10286000022A03500201D425F66E000ED521F76E20
:10287000000ED621F86E0900F5CF00F001C0E1FF8F
:1028800002C0E2FF00C0E6FF01C0E9FF02C0EAFFAC
:10289000EE5202E0032ADDD7B30E006E020E016E87
:0228A000120024
:1028A200036A9F0E016E020E026E03500126D8B01B
:1028B200022A03500201D425F66E000ED521F76ECE
:1028C200000ED621F86E0900F5CF00F001C0E1FF3D
:1028D20002C0E2FF00C0E6FF01C0E9FF02C0EAFF5A
:1028E200EE5202E0032ADDD79F0E006E020E016E49
:0228F2001200D2
:1028F4000301926B8EC301F0010E006E015004E0DF
:1029040000360090FF0FFBD700C091F38CC3E9FFA2
:102914008DC3EAFF0050EE14016E0152010ED8A4DB
:10292400000E006E9051001A1AE08F51000806E262
:102934008DEC10F08DEC10F08F07F7D78CC3E9FF06
:102944008DC3EAFF9151EE14016E0152010ED8A419
:10295400000E006E9051001A02E0FF0E926F92C3B7
:0429640000F012006D
:10296800D6C23BF3D7C23CF3C90E03013D6F020E3A
:102978003E6F98EC10F0010E7D6FFAEC0AF0010E34
:1029880003013B6F010E3C6FD4C23DF3D5C23EF349
:1029980049EC10F0020E03013B6F010E3C6FC90EAB
:1029A8003D6F020E3E6F49EC10F0000E925D02E1A1
:1029B800120E915D05E3010E996F000E9A6F04D017
:1029C8000A0E996F000E9A6F020E03013B6F99C2AF
:1029D8003CF3D8C23DF3D9C23EF349EC10F0020EE5
:1029E8000B6E450E0C6EA90E0D6E0D2EFED70C2E1D
:0C29F800FCD70B2EFAD7000000001200E4
:102A04000201956B966B010EC76F000EC86FD06BF9
:102A1400D16BD8C2DCF2D9C2DDF2DAC2DEF2DBC29B
:102A2400DFF28B908B948B8CA30E0C6E550E0D6E77
:102A34000D2EFED70C2EFCD78B8E000E941902E1BE
:102A4400010E93191DE1936B946BD6C23BF3D7C26D
:102A54003CF328EC10F0D0C23BF3D1C23CF3C90ED6
:102A640003013D6F020E3E6F98EC10F0020E3B6FB7
:102A74000A0E3C6FC90E3D6F020E3E6F49EC10F01A
:102A8400D0C200F0D1C201F013EC10F0DCC204F0AB
:102A9400DDC205F0DEC206F0DFC207F0FBEC06F093
:102AA400000ED8B0010E006E00521BE0DCC200F034
:102AB400DDC201F0DEC202F0DFC203F0D8C204F0CE
:102AC400D9C205F0DAC206F0DBC207F0EBEC03F082
:102AD40000C0DCF201C0DDF202C0DEF203C0DFF2AE
:102AE4008274D551D15D02E1D451D05DA6E38B9EB1
:102AF400A30E0C6E550E0D6E0D2EFED70C2EFCD7AC
:102B04008B9CC76BC86B010E956F000E966F8B8004
:102B1400914B922B030E0B6E8A0E0C6E550E0D6E9E
:102B24000D2EFED70C2EFCD70B2EFAD7000000007A
:022B340012008D
:102B3600000E006E02019251005C02E191510708FD
:102B460011E3D6C23BF3D7C23CF3D8C23DF3D9C298
:102B56003EF3820E03013F6F020E406F010E416F7E
:102B660064DD10D00301D6C23BF3D7C23CF3D8C212
:102B76003DF3D9C23EF3820E3F6F020E406F040E44
:102B8600416F53DD010E7D6FFAEC0AF0010E030171
:102B96003B6F010E3C6FD4C23DF3D5C23EF349EC08
:102BA60010F0020E03013B6F010E3C6F820E3D6F6B
:102BB600020E3E6F49EC10F0020E03013B6F0A0E47
:102BC6003C6FDAC23DF3DBC23EF349EC10F0020E75
:102BD6000B6E450E0C6EA90E0D6E0D2EFED70C2E2D
:0C2BE600FCD70B2EFAD7000000001200F4
:102BF2000201956B966B7AC12DF37BC12EF37CC1DA
:102C02002FF37DC130F3B4C1D8F2B5C1D9F2B6C148
:102C1200DAF2B7C1DBF280C127F381C128F382C1A6
:102C220029F383C12AF384C12BF385C12CF386C116
:102C320000F087C101F06CEC0BF000C015F301C08D
:102C420016F302C017F303C018F3CD0E046ECC0EB8
:102C5200056E4C0E066E7C0E076E66EC07F000C029
:102C620015F301C016F302C017F303C018F3000EE8
:102C72000301196F000E1A6F1B0E1B6F870E1C6F5C
:102C8200000E1D6F000E1E6F110E1F6F870E206F3C
:102C9200010E7D6FFAEC0AF0010E03013B6F010E8B
:102CA2003C6FA20E3D6F010E3E6F49EC10F02FC338
:102CB20000F030C301F06CEC0BF0D8C204F0D9C2C2
:102CC20005F0DAC206F0DBC207F02FEC06F090EC5A
:102CD2000AF000C031F301C032F36CEC0BF000C01B
:102CE20033F301C034F302C035F303C036F32DC30E
:102CF20000F02EC301F06CEC0BF000C004F001C038
:102D020005F002C006F003C007F033C300F034C37D
:102D120001F035C302F036C303F071EC09F000C0D4
:102D2200D4F201C0D5F202C0D6F203C0D7F22E0E01
:102D32000301736F03EC0CF0020E0B6E450E0C6E6A
:102D4200A90E0D6E0D2EFED70C2EFCD70B2EFAD728
:102D52000000000031C300F032C301F06CEC0BF054
:102D620000C03BF301C03CF302C03DF303C03EF39D
:102D7200F3EC11F000C0DCF201C0DDF202C0DEF2C1
:102D820003C0DFF22E0E0301736F03EC0CF0020E90
:102D92000B6E450E0C6EA90E0D6E0D2EFED70C2E6F
:102DA200FCD70B2EFAD700000000DCC204F0DDC213
:102DB20005F0DEC206F0DFC207F0000E006E000E64
:102DC200016E280E026E840E036E71EC09F000C0D3
:102DD20033F301C034F302C035F303C036F32DC31D
:102DE20000F02EC301F06CEC0BF033C304F034C3DB
:102DF20005F035C306F036C307F02FEC06F000C02D
:102E020037F301C038F302C039F303C03AF337C3D2
:102E12000DF338C30EF339C30FF33AC310F32FC3C4
:102E220000F030C301F06CEC0BF033C304F034C398
:102E320005F035C306F036C307F02FEC06F000C0EC
:102E420033F301C034F302C035F303C036F333C3A6
:102E520011F334C312F335C313F336C314F337C378
:102E620000F038C301F039C302F03AC303F0000E98
:102E7200046E000E056E000E066E7F0E076EEBEC02
:102E820003F000C00DF301C00EF302C00FF303C044
:102E920010F333C300F034C301F035C302F036C37C
:102EA20003F0000E046E000E056E000E066E7F0E1D
:102EB200076EEBEC03F000C011F301C012F302C085
:102EC20013F303C014F32E0E0301736F03EC0CF023
:102ED200020E0B6E450E0C6EA90E0D6E0D2EFED758
:102EE2000C2EFCD70B2EFAD700000000120E996FA1
:102EF200000E9A6F040E026E99C200F09AC201F09F
:102F0200025005E0003600900136FF0FFAD7280E76
:102F12000026000E01220C0E0024D96E000E0120A4
:102F2200DA6EDECF04F0DECF05F0DECF06F0DECFC4
:102F320007F0D4C200F0D5C201F0D6C202F0D7C267
:102F420003F0FBEC06F0010ED8B0000E006E00524A
:102F52007CE0010E995D036E000E9A59046E040E18
:102F6200026E03C000F004C001F0025005E000361A
:102F720000900136FF0FFAD7280E00240301336FA9
:102F8200000E0120346F33C3E9FF34C3EAFFEECFF2
:102F920000F0EECF01F0EECF02F0EECF03F090ECB6
:102FA2000AF000C021F301C022F3040E3325E96EBA
:102FB200000E3421EA6EEECF00F0EECF01F0EECF3C
:102FC20002F0EECF03F019C304F01AC305F01BC3DD
:102FD20006F01CC307F02FEC06F000C005F301C099
:102FE20006F302C007F303C008F3040E3325D96EBB
:102FF200000E3421DA6EDECF04F0DECF05F0DECF34
:1030020006F0DECF07F015C300F016C301F017C3B8
:1030120002F018C303F071EC09F000C0E0F201C045
:10302200E1F202C0E2F203C0E3F2040E030133252F
:10303200E96E000E3421EA6EEECFF4F2EECFF5F235
:10304200EECFF6F2EECFF7F206D0010E0201995F53
:10305200000E9A5B4FD70201120E996F000E9A6F03
:10306200040E026E99C200F09AC201F0025005E00D
:10307200003600900136FF0FFAD7280E0026000E08
:1030820001220C0E0024D96E000E0120DA6EDECF72
:1030920004F0DECF05F0DECF06F0DECF07F0D8C2B7
:1030A20000F0D9C201F0DAC202F0DBC203F0FBEC9D
:1030B20006F0010ED8B0000E006E0052D8B47DD0DA
:1030C2000201010E995D036E000E9A59046E040E00
:1030D200026E03C000F004C001F0025005E00036A9
:1030E20000900136FF0FFAD7280E00240301336F38
:1030F200000E0120346F33C3E9FF34C3EAFFEECF81
:1031020000F0EECF01F0EECF02F0EECF03F090EC44
:103112000AF000C023F301C024F3040E3325E96E44
:10312200000E3421EA6EEECF00F0EECF01F0EECFCA
:1031320002F0EECF03F01DC304F01EC305F01FC35F
:1031420006F020C307F02FEC06F000C009F301C01F
:103152000AF302C00BF303C00CF3040E3325D96E3D
:10316200000E3421DA6EDECF04F0DECF05F0DECFC2
:1031720006F0DECF07F015C300F016C301F017C347
:1031820002F018C303F071EC09F000C0E4F201C0D0
:10319200E5F202C0E6F203C0E7F2040E03013325B2
:1031A200E96E000E3421EA6EEECFF8F2EECFF9F2BC
:1031B200EECFFAF2EECFFBF206D0010E0201995FDA
:1031C200000E9A5B4DD72E0E0301736F03EC0CF0C9
:1031D200020E0B6E450E0C6EA90E0D6E0D2EFED755
:1031E2000C2EFCD70B2EFAD70000000027C325F3C4
:1031F20028C326F3030125372591263729C300F07A
:103202002AC301F0003600900136005025270150F4
:1032120026232E0E736F03EC0CF0020E0B6E450E7E
:103222000C6EA90E0D6E0D2EFED70C2EFCD70B2E9A
:10323200FAD70000000027C300F028C301F029C319
:1032420004F02AC305F0CBEC11F06CEC0BF015C3C3
:1032520004F016C305F017C306F018C307F02FECED
:1032620006F000C0FCF201C0FDF202C0FEF203C093
:10327200FFF2E0C204F0E1C205F0E2C206F0E3C2EE
:1032820007F00DC300F00EC301F00FC302F010C32C
:1032920003F071EC09F0000E046E000E056E000ED4
:1032A200066E800E076E2FEC06F0F4C204F0F5C233
:1032B20005F0F6C206F0F7C207F02FEC06F000C0E8
:1032C20033F301C034F302C035F303C036F329C32C
:1032D20000F02AC301F06CEC0BF033C304F034C3EA
:1032E20005F035C306F036C307F0EBEC03F000C07F
:1032F2003BF301C03CF302C03DF303C03EF3000EBA
:1033020003013F6F000E406F000E416F800E426F4F
:1033120005EC11F015C304F016C305F017C306F04F
:1033220018C307F02FEC06F0FCC204F0FDC205F052
:10333200FEC206F0FFC207F066EC07F000C001F320
:1033420001C002F302C003F303C004F3E4C204F0B9
:10335200E5C205F0E6C206F0E7C207F011C300F0CD
:1033620012C301F013C302F014C303F071EC09F0AD
:10337200000E046E000E056E000E066E800E076EC5
:103382002FEC06F0F8C204F0F9C205F0FAC206F01A
:10339200FBC207F02FEC06F000C033F301C034F398
:1033A20002C035F303C036F329C300F02AC301F08B
:1033B2006CEC0BF033C304F034C305F035C306F0F4
:1033C20036C307F0EBEC03F000C03BF301C03CF363
:1033D20002C03DF303C03EF3000E03013F6F000E37
:1033E200406F000E416F800E426F05EC11F000C07D
:1033F20037F301C038F302C039F303C03AF3E0C235
:1034020004F0E1C205F0E2C206F0E3C207F00DC328
:1034120000F00EC301F00FC302F010C303F071EC11
:1034220009F0000E046E000E056E000E066E800E90
:10343200076E2FEC06F0F4C204F0F5C205F0F6C2F6
:1034420006F0F7C207F02FEC06F000C033F301C01C
:1034520034F302C035F303C036F329C300F02AC3A4
:1034620001F06CEC0BF033C304F034C305F035C348
:1034720006F036C307F0EBEC03F000C03BF301C0EB
:103482003CF302C03DF303C03EF3000E03013F6F65
:10349200000E406F000E416F800E426F05EC11F07E
:1034A20037C304F038C305F039C306F03AC307F056
:1034B200EBEC03F015C304F016C305F017C306F0D6
:1034C20018C307F02FEC06F000C033F301C034F349
:1034D20002C035F303C036F3FCC200F0FDC201F0B6
:1034E200FEC202F0FFC203F001C304F002C305F002
:1034F20003C306F004C307F0EBEC03F000C004F0D2
:1035020001C005F002C006F003C007F033C300F0AB
:1035120034C301F035C302F036C303F066EC07F0A2
:1035220000C033F301C034F302C035F303C036F3F5
:1035320001C300F002C301F003C302F004C303F0AD
:10354200E80E046E520E056E160E066E6E0E076EB5
:103552002FEC06F000C0E8F201C0E9F202C0EAF284
:1035620003C0EBF233C300F034C301F035C302F001
:1035720036C303F0E80E046E520E056E160E066E8A
:103582006E0E076E2FEC06F000C0ECF201C0EDF2F9
:1035920002C0EEF203C0EFF22E0E736F03EC0CF0DA
:1035A200020E0B6E450E0C6EA90E0D6E0D2EFED781
:1035B2000C2EFCD70B2EFAD7000000002BC300F014
:1035C2002CC301F06CEC0BF015C304F016C305F02C
:1035D20017C306F018C307F02FEC06F000C037F34C
:1035E20001C038F302C039F303C03AF3E0C204F079
:1035F200E1C205F0E2C206F0E3C207F00DC300F03B
:103602000EC301F00FC302F010C303F071EC09F016
:1036120015C304F016C305F017C306F018C307F06C
:103622002FEC06F0F4C204F0F5C205F0F6C206F083
:10363200F7C207F02FEC06F000C033F301C034F3F9
:1036420002C035F303C036F3E4C204F0E5C205F06C
:10365200E6C206F0E7C207F011C300F012C301F0A0
:1036620013C302F014C303F071EC09F015C304F0A4
:1036720016C305F017C306F018C307F02FEC06F0C7
:10368200F8C204F0F9C205F0FAC206F0FBC207F074
:103692002FEC06F033C304F034C305F035C306F053
:1036A20036C307F0EBEC03F000C004F001C005F0F4
:1036B20002C006F003C007F037C300F038C301F0C0
:1036C20039C302F03AC303F066EC07F000C0F0F22F
:1036D20001C0F1F202C0F2F203C0F3F22E0E0301B6
:1036E200736F03EC0CF0020E0B6E450E0C6EA90EFE
:1036F2000D6E0D2EFED70C2EFCD70B2EFAD7000026
:10370200000031C38AF132C38BF1D4C2D0F1D5C2E9
:10371200D1F1D6C2D2F1D7C2D3F125C38EF126C3DD
:103722008FF10DC3D8F10EC3D9F10FC3DAF110C373
:10373200DBF111C3DCF112C3DDF113C3DEF114C3FB
:10374200DFF121C394F122C395F123C396F124C37F
:1037520097F1E8C2E8F1E9C2E9F1EAC2EAF1EBC2A3
:10376200EBF1ECC2ECF1EDC2EDF1EEC2EEF1EFC223
:10377200EFF1F0C2F0F1F1C2F1F1F2C2F2F1F3C2F3
:10378200F3F1E0C2F4F1E1C2F5F1E2C2F6F1E3C213
:10379200F7F1E4C2F8F1E5C2F9F1E6C2FAF1E7C2E3
:1037A200FBF105C3FCF106C3FDF107C3FEF108C33B
:1037B200FFF109C300F20AC301F20BC302F20CC308
:1037C20003F22E0E0301736F03EC0CF0030E0B6E6B
:1037D2008A0E0C6E550E0D6E0D2EFED70C2EFCD7DA
:1037E2000B2EFAD700000000010E03017D6FFAECE8
:1037F2000AF0914B922B010E956F000E966F030EFD
:103802000B6E8A0E0C6E550E0D6E0D2EFED70C2E03
:0C381200FCD70B2EFAD7000000001200BB
:10381E0092929290929492969298929A899289907C
:10382E00899A89988996899425EC06F025EC06F0FC
:10383E0025EC06F0898689848982FBEC05F0899255
:10384E0025EC06F08982FBEC05F0899225EC06F05A
:10385E008982FBEC05F0899225EC06F08994898229
:10386E00FBEC05F0899225EC06F08982FBEC05F065
:10387E0089928996898A8982FBEC05F0899225ECDA
:10388E0006F0899A89848982FBEC05F089928994E5
:10389E008982FBEC05F0899225EC06F08982FBEC1F
:1038AE0005F0899289848982FBEC05F0899225ECDA
:1038BE0006F089948982FBEC05F08992898A8988C1
:1038CE00898689848982FBEC05F0899225EC06F0C5
:0638DE0002019E811200B0
:1038E4000201976B986B800ED519006E800E9819A3
:1038F400005C02E19751D45D0FE38B82460E030115
:10390400006F06EC13F08B92460E006F06EC13F07A
:0A3914000201974B982BE7D7120031
:10391E000AEC26F0926AFF0E936E080E946E0F0E4E
:10392E00C16E070EB46E806A816A826A020E0B6ED9
:10393E00450E0C6EA90E0D6E0D2EFED70C2EFCD75D
:10394E000B2EFAD70000000063DFD190F286F290C2
:10395E00F190F288F292F086F090F088F092F28E6A
:10396E00020E0B6E450E0C6EA90E0D6E0D2EFED7B1
:10397E000C2EFCD70B2EFAD7000000006D966F862A
:10398E008B90936B946B8B9E8B9C0C0E03017D6FB7
:10399E00FAEC0AF0010E03017D6FFAEC0AF0010E4B
:1039AE0003013B6F100E3C6F690E3D6F010E3E6FB3
:1039BE0049EC10F0020E03013B6F110E3C6F580ED6
:1039CE003D6F010E3E6F49EC10F0030E0B6E8A0E2A
:1039DE000C6E550E0D6E0D2EFED70C2EFCD70B2E2B
:1039EE00FAD700000000996B9A6B800E9A19006E40
:1039FE00800E005C02E1200E995D15E2180E0301A7
:103A0E007D6FFAEC0AF0020E0B6EE70E0C6E000ED6
:103A1E000D6E0D2EFED70C2EFCD70B2EFAD70000F6
:103A2E00994B9A2BE2D7010E03017D6FFAEC0AF047
:103A3E00996B9A6B800E9A19006E800E005C02E1F3
:103A4E00040E995D3AE2010E03013B6F020E3C6FCC
:103A5E00FC0E3D6F010E3E6F49EC10F0020E03019D
:103A6E003B6F020E3C6F390E3D6F020E3E6F49ECFE
:103A7E0010F0040E0B6E2C0E0C6EAB0E0D6E0D2E8A
:103A8E00FED70C2EFCD70B2EFAD700000000010E2D
:103A9E0003017D6FFAEC0AF0040E0B6E2C0E0C6E09
:103AAE00AB0E0D6E0D2EFED70C2EFCD70B2EFAD7AD
:103ABE0000000000994B9A2BBDD7C76BC86B916B5A
:103ACE00926B030E0B6E8A0E0C6E550E0D6E0D2E36
:103ADE00FED70C2EFCD70B2EFAD700000000010EDD
:103AEE00956F000E966F9251000802E191511B08DE
:103AFE0002E2916B926B0BEF23F0030E006E000E41
:103B0E00016E91C204F092C205F0CBEC11F0030EDF
:103B1E000024E96E020E0120EA6EEECFD4F2EECF53
:103B2E00D5F2EECFD6F251EC14F000C0D4F201C0B3
:103B3E00D5F291C200F092C201F00036009001362B
:103B4E007A0E0024E96E010E0120EA6EEECFD6F257
:103B5E00EECFD7F248C2D8F249C2D9F2B4EC14F083
:103B6E00D9EF23F0030E006E000E016E91C204F029
:103B7E0092C205F0CBEC11F0030E0024E96E020E9A
:103B8E000120EA6EEECFD4F2EECFD5F2EECFD6F222
:103B9E0051EC14F000C0D4F201C0D5F291C200F085
:103BAE0092C201F00036009001367A0E0024E96EC2
:103BBE00010E0120EA6EEECFD6F2EECFD7F248C25A
:103BCE00D8F249C2D9F2B4EC14F0D9EF23F0030EB7
:103BDE00006E000E016E91C204F092C205F0CBECA5
:103BEE0011F0030E0024E96E020E0120EA6EEECFF4
:103BFE00D4F2EECFD5F2EECFD6F251EC14F000C0E7
:103C0E00D4F201C0D5F291C200F092C201F000369A
:103C1E0000900136003600900136AC0E0024E96E9D
:103C2E00010E0120EA6EEECFD6F2EECFD7F2EECF36
:103C3E00D8F2EECFD9F24AC2DAF24BC2DBF29BECEB
:103C4E0015F0D9EF23F0030E006E000E016E91C237
:103C5E0004F092C205F0CBEC11F0030E0024E96ED5
:103C6E00020E0120EA6EEECFD4F2EECFD5F2EECFF9
:103C7E00D6F251EC14F000C0D4F201C0D5F291C2CC
:103C8E0000F092C201F00036009001367A0E002448
:103C9E00E96E010E0120EA6EEECFD6F2EECFD7F22C
:103CAE004CC2D8F24DC2D9F2B4EC14F0D9EF23F0D5
:103CBE00030E006E000E016E91C204F092C205F06A
:103CCE00CBEC11F0030E0024E96E020E0120EA6E19
:103CDE00EECFD4F2EECFD5F2EECFD6F251EC14F009
:103CEE0000C0D4F201C0D5F291C200F092C201F030
:103CFE000036009001367A0E0024E96E010E012086
:103D0E00EA6EEECFD6F2EECFD7F24CC2D8F24DC25B
:103D1E00D9F2B4EC14F0D9EF23F0030E006E000EBE
:103D2E00016E91C204F092C205F0CBEC11F0030EBD
:103D3E000024E96E020E0120EA6EEECFD4F2EECF31
:103D4E00D5F2EECFD6F251EC14F000C0D4F201C091
:103D5E00D5F291C200F092C201F000360090013609
:103D6E007A0E0024E96E010E0120EA6EEECFD6F235
:103D7E00EECFD7F24CC2D8F24DC2D9F2B4EC14F059
:103D8E00D9EF23F0030E006E000E016E91C204F007
:103D9E0092C205F0CBEC11F0030E0024E96E020E78
:103DAE000120EA6EEECFD4F2EECFD5F2EECFD6F200
:103DBE0051EC14F000C0D4F201C0D5F291C200F063
:103DCE0092C201F00036009001367A0E0024E96EA0
:103DDE00010E0120EA6EEECFD6F2EECFD7F24CC234
:103DEE00D8F24DC2D9F2B4EC14F0D9EF23F0F9ECBD
:103DFE0015F0D9EF23F0030E006E000E016E91C286
:103E0E0004F092C205F0CBEC11F0030E0024E96E23
:103E1E00020E0120EA6EEECFD4F2EECFD5F2EECF47
:103E2E00D6F251EC14F000C0D4F201C0D5F291C21A
:103E3E0000F092C201F00036009001367A0E002496
:103E4E00E96E010E0120EA6EEECFD6F2EECFD7F27A
:103E5E0056C2D8F257C2D9F2B4EC14F0D9EF23F00F
:103E6E00030E006E000E016E91C204F092C205F0B8
:103E7E00CBEC11F0030E0024E96E020E0120EA6E67
:103E8E00EECFD4F2EECFD5F2EECFD6F251EC14F057
:103E9E0000C0D4F201C0D5F291C200F092C201F07E
:103EAE00003600900136003600900136AC0E00242C
:103EBE00E96E010E0120EA6EEECFD6F2EECFD7F20A
:103ECE00EECFD8F2EECFD9F24AC2DAF24BC2DBF223
:103EDE009BEC15F0D9EF23F0030E006E000E016E71
:103EEE0091C204F092C205F0CBEC11F0030E002447
:103EFE00E96E020E0120EA6EEECFD4F2EECFD5F2CD
:103F0E00EECFD6F251EC14F000C0D4F201C0D5F2CF
:103F1E0091C200F092C201F00036009001367A0E86
:103F2E000024E96E010E0120EA6EEECFD6F2EECF3E
:103F3E00D7F24CC2D8F24DC2D9F2B4EC14F0D9EF8C
:103F4E0023F0030E006E000E016E91C204F092C2B9
:103F5E0005F0CBEC11F0030E0024E96E020E0120E9
:103F6E00EA6EEECFD4F2EECFD5F2EECFD6F251EC22
:103F7E0014F000C0D4F201C0D5F291C200F092C28A
:103F8E0001F0003600900136003600900136AC0E7E
:103F9E000024E96E010E0120EA6EEECF00F0EECFA6
:103FAE0001F0EECF02F0EECF03F090EC0AF000C07D
:103FBE00D6F201C0D7F24EC2D8F24FC2D9F2B4EC4B
:103FCE0014F0F0D3030E006E000E016E91C204F0D9
:103FDE0092C205F0CBEC11F0030E0024E96E020E36
:103FEE000120EA6EEECFD4F2EECFD5F2EECFD6F2BE
:103FFE0051EC14F000C0D4F201C0D5F291C200F021
:10400E0092C201F000360090013600360090013663
:10401E00AC0E0024E96E010E0120EA6EEECF00F028
:10402E00EECF01F0EECF02F0EECF03F090EC0AF0FF
:10403E0000C0D6F201C0D7F24EC2D8F24FC2D9F2AA
:10404E00B4EC14F0AFD3030E006E000E016E91C2ED
:10405E0004F092C205F0CBEC11F0030E0024E96ED1
:10406E00020E0120EA6EEECFD4F2EECFD5F2EECFF5
:10407E00D6F251EC14F000C0D4F201C0D5F291C2C8
:10408E0000F092C201F00036009001367A0E002444
:10409E00E96E010E0120EA6EEECFD6F2EECFD7F228
:1040AE0050C2D8F251C2D9F2B4EC14F07BD3030E45
:1040BE00006E000E016E91C204F092C205F0CBECC0
:1040CE0011F0030E0024E96E020E0120EA6EEECF0F
:1040DE00D4F2EECFD5F2EECFD6F251EC14F000C002
:1040EE00D4F201C0D5F291C200F092C201F00036B6
:1040FE00009001367A0E0024E96E010E0120EA6E60
:10410E00EECFD6F2EECFD7F250C2D8F251C2D9F2DC
:10411E00B4EC14F047D3030E006E000E016E91C284
:10412E0004F092C205F0CBEC11F0030E0024E96E00
:10413E00020E0120EA6EEECFD4F2EECFD5F2EECF24
:10414E00D6F251EC14F000C0D4F201C0D5F291C2F7
:10415E0000F092C201F00036009001360036009059
:10416E000136AC0E0024E96E010E0120EA6EEECF90
:10417E00D6F2EECFD7F2EECFD8F2EECFD9F252C2C0
:10418E00DAF253C2DBF29BEC15F00CD3030E006E89
:10419E00000E016E91C204F092C205F0CBEC11F04C
:1041AE00030E0024E96E020E0120EA6EEECFD4F269
:1041BE00EECFD5F2EECFD6F251EC14F000C0D4F221
:1041CE0001C0D5F291C200F092C201F0003600900B
:1041DE000136003600900136AC0E0024E96E010E59
:1041EE000120EA6EEECFD6F2EECFD7F2EECFD8F2B6
:1041FE00EECFD9F252C2DAF253C2DBF29BEC15F0DB
:10420E00D1D2030E006E000E016E91C204F092C266
:10421E0005F0CBEC11F0030E0024E96E020E012026
:10422E00EA6EEECFD4F2EECFD5F2EECFD6F251EC5F
:10423E0014F000C0D4F201C0D5F291C200F092C2C7
:10424E0001F0003600900136003600900136AC0EBB
:10425E000024E96E010E0120EA6EEECFD6F2EECF0B
:10426E00D7F2EECFD8F2EECFD9F254C2DAF255C26F
:10427E00DBF29BEC15F096D2EC0ED46F4A0ED56F96
:10428E00000ED66F28EC14F000C0D2F201C0D3F2AB
:10429E00DC0ED46F4A0ED56F000ED66F51EC14F0B3
:1042AE0000C0D4F201C0D5F288C1D6F289C1D7F2CE
:1042BE00D2C2D8F2D3C2D9F2B4EC14F073D20C0E2F
:1042CE00D46F4B0ED56F000ED66F28EC14F000C0D5
:1042DE00D2F201C0D3F2830ED46F4B0ED56F000E07
:1042EE00D66F51EC14F000C0D4F201C0D5F288C1E3
:1042FE00D6F289C1D7F2D2C2D8F2D3C2D9F2B4EC77
:10430E0014F0000E941902E1010E931909E18B903D
:10431E00936B946B960ED46F000ED56F72EC1CF0EF
:10432E0041D2AA0ED46F4A0ED56F000ED66F28EC6E
:10433E0014F000C0D2F201C0D3F21C0ED46F4B0E9B
:10434E00D56F000ED66F51EC14F000C0D4F201C040
:10435E00D5F288C1D6F289C1D7F2D2C2D8F2D3C271
:10436E00D9F2B4EC14F01ED2E10ED46F4B0ED56F11
:10437E00000ED66F28EC14F000C0D2F201C0D3F2BA
:10438E00DC0ED46F4A0ED56F000ED66F51EC14F0C2
:10439E0000C0D4F201C0D5F288C1D6F289C1D7F2DD
:1043AE00D2C2D8F2D3C2D9F2B4EC14F0D8C100F014
:1043BE00D9C101F0DAC102F0DBC103F090EC0AF0D2
:1043CE0000C0D4F201C0D5F2FCC100F0FDC101F075
:1043DE00FEC102F0FFC103F090EC0AF000C0D6F26D
:1043EE0001C0D7F2F4C1D8F2F5C1D9F2F6C1DAF2B2
:1043FE00F7C1DBF202EC15F0D5D1880ED46F4A0E60
:10440E00D56F000ED66F28EC14F000C0D2F201C0AA
:10441E00D3F2BB0ED46F4A0ED56F000ED66F51EC91
:10442E0014F000C0D4F201C0D5F288C1D6F289C111
:10443E00D7F2D2C2D8F2D3C2D9F2B4EC14F0B2D1C0
:10444E00FC0ED46F4A0ED56F000ED66F28EC14F00A
:10445E0000C0D2F201C0D3F2990ED46F4A0ED56FBE
:10446E00000ED66F51EC14F000C0D4F201C0D5F29C
:10447E0088C1D6F289C1D7F2D2C2D8F2D3C2D9F24C
:10448E00B4EC14F08FD10C0ED46F4B0ED56F000E12
:10449E00D66F28EC14F000C0D2F201C0D3F2830E16
:1044AE00D46F4B0ED56F000ED66F51EC14F000C0CA
:1044BE00D4F201C0D5F288C1D6F289C1D7F2D2C2E8
:1044CE00D8F2D3C2D9F2B4EC14F0000E941902E172
:1044DE00010E931909E18B90936B946B960ED46F2A
:1044EE00000ED56F72EC1CF05DD1AA0ED46F4A0E81
:1044FE00D56F000ED66F28EC14F000C0D2F201C0BA
:10450E00D3F21C0ED46F4B0ED56F000ED66F51EC3E
:10451E0014F000C0D4F201C0D5F288C1D6F289C120
:10452E00D7F2D2C2D8F2D3C2D9F2B4EC14F03AD147
:10453E00E10ED46F4B0ED56F000ED66F28EC14F033
:10454E0000C0D2F201C0D3F2990ED46F4A0ED56FCD
:10455E00000ED66F51EC14F000C0D4F201C0D5F2AB
:10456E0088C1D6F289C1D7F2D2C2D8F2D3C2D9F25B
:10457E00B4EC14F0DCC100F0DDC101F0DEC102F0DC
:10458E00DFC103F090EC0AF000C0D4F201C0D5F206
:10459E0000C200F001C201F002C202F003C203F039
:1045AE0090EC0AF000C0D6F201C0D7F2F8C1D8F2F2
:1045BE00F9C1D9F2FAC1DAF2FBC1DBF202EC15F065
:1045CE00F1D0CC0ED46F4A0ED56F000ED66F28ECFC
:1045DE0014F000C0D2F201C0D3F2BB0ED46F4A0E5B
:1045EE00D56F000ED66F51EC14F000C0D4F201C09E
:1045FE00D5F288C1D6F289C1D7F2D2C2D8F2D3C2CF
:10460E00D9F2B4EC14F0CED0000E921902E1000EE5
:10461E009119D8B484EF1DF0000E921902E1010E2B
:10462E009119D8B4B9EF1DF0000E921902E1020EE5
:10463E009119D8B4EEEF1DF0000E921902E1030E9F
:10464E009119D8B42AEF1EF0000E921902E1040E51
:10465E009119D8B45FEF1EF0000E921902E1050E0B
:10466E009119D8B494EF1EF0000E921902E1060EC5
:10467E009119D8B4C9EF1EF0000E921902E1070E7F
:10468E009119D8B4FEEF1EF0000E921902E1080E39
:10469E009119D8B402EF1FF0000E921902E1090E23
:1046AE009119D8B437EF1FF0000E921902E10A0EDD
:1046BE009119D8B411D4000E921902E10B0E911972
:1046CE00D8B43FD4000E921902E10C0E9119D8B451
:1046DE0079D4000E921902E10D0E9119D8B4B3D40B
:1046EE00000E921902E10E0E9119D8B4E0D4000E0C
:1046FE00921902E10F0E9119D8B40DD5000E921930
:10470E0002E1100E9119D8B441D5000E921902E1B2
:10471E00110E9119D8B475D5000E921902E1120E30
:10472E009119D8B4A9D5000E921902E1130E911960
:10473E00D8B4C5D5000E921902E1140E9119D8B451
:10474E00F0D5000E921902E1150E9119D8B40CD6BF
:10475E00000E921902E1160E9119D8B44ED6000E23
:10476E00921902E1170E9119D8B46AD6000E921959
:10477E0002E1180E9119D8B486D6000E921902E1F4
:10478E00190E9119D8B4B1D6000E921902E11A0E73
:10479E009119D8B4CDD6000E921902E11B0E9119C3
:0A47AE00D8B40FD768EF1DF0FFD755
:104C140010EE28F05A0E006E030E016EB80EF66EFA
:0E4C2400470EF76E000EF86E0BEC10F012004B
:0100060000F9
:1047B80000000083D7A3507F508D177952B82E81FF
:1047C800000008838FC2357F1EA768788FC20581D5
:1047D80000001083F6281C7FC3642A78E17A44809D
:1047E800000018835C8F027FA3E96C77EC51088086
:1047F80000002083E7FB697E3E054077A4705D7F5B
:1048080000002883C520507E41B71777295C2F7F89
:10481800000030831904367E58FF67766666067F87
:1048280000003883F6281C7EC3642A76A69B447E43
:1048380000004083A01A0F7E1A860F76B81E257EC8
:10484800000048834A0C027E863D6D75B072087E72
:1048580000005083E7FB697D795D3F751B2F5D7D07
:10486800000058830681557D68E81F75D9CE377DCD
:10487800000060831283407DE3C201750681157DC7
:1048880000006883D7A3307D03275B7491ED7C7C9F
:1048980000007083AE47217DA930367485EB517CCA
:1048A800000078833D0A177D30621F74C74B377C40
:1048B80000000084BA490C7DB893087477BE1F7C49
:1048C800000004844A0C027D6AFA6C732731087C64
:1048D80000000884B29D6F7C64CD48738B6C677B45
:1048E8002057696E64696E67204D616368696E65FB
:0148F80000BF
:1048F9005472616E73666F726D657220436F696C75
:0149090000AD
:10490A00DC00060000001D001D000B002400000052
:10491A00000000000000000000000000000000008D
:08492A00000000000000000085
:0A493200436F6D707574696E6700C5
:10493C0000000000000000000000408000000000AB
:10494C00000000000000000000000000000000005B
:10495C00000000000000000000000000000000004B
:10496C00000000000000000000000000000000003B
:10497C00000000000000000000000000000000002B
:06498C00456E7465720027
:01499200FF25
:10499300CB4B008F4B009B4B00D64B00A74B002B00
:1049A3004B003A4B00060000014C00EC4B00F74B68
:1049B30000584B00494B00674B00754B00BF4B0041
:0649C300B34B000B4C0099
:0F49C90053706563696669636174696F6E73002B
:1049D80064026A025A025E026F0277027B02730265
:0249E800760255
:0449EA006D6D2E00C1
:0649EE0074696D657300A1
:0649F400766F6C74730085
:0549FA00616D70730007
:0449FF0041574700D5
:034A030056410019
:014A060000AF
:044A07006B672E00AB
:074A0B0073712E6D6D2E008A
:014A120000A3
:014A130000A2
:104A1400010000000A00000064000000E803000038
:104A240010270000A086010040420F0080969800E5
:084A340000E1F50500CA9A3B00
:104A3C000000007F1872317EF0FD757C4758637A58
:104A4C0058951D7882C42E75A8782172EF93006F4B
:084A5C00A092276B4656156875
:104A6400FFE65B5DC4FF7F7E80EFFF7D90E1297DE3
:104A7400EC82F67C82AD2B7C0E3CC37B87D1137A0F
:044A84004178D3772B
:104A880050726573734F6B746F50726F63656564B2
:014A9800001D
:104A99005365636F6E642057696E64696E673A2067
:014AA900000C
:104AAA0020202020202020202020202020202020FC
:014ABA0000FB
:104ABB0057696E64696E6746696E697368656421D0
:014ACB0000EA
:104ACC0050726573734F6B546F52657475726E00D0
:104ADC0046697273742057696E64696E673A200078
:104AEC00496E736572742031737420576972650056
:104AFC00496E7365727420326E642057697265005A
:104B0C00466F7220537461727420506F696E74001A
:0F4B1C0053746172742057696E64696E673F004D
:0F4B2B0057696E64696E67204865696768740032
:0F4B3A0057696E64696E67204C656E677468001A
:0F4B49004E6F4F665475726E7328326E6429007A
:0F4B58004E6F4F665475726E7328317374290057
:0E4B67005769726553697A65283173742900A5
:0E4B75005769726553697A6528326E642900AB
:0C4B830041646A757374204B6E6F620011
:0C4B8F00566F6C74616765204F757400F0
:0C4B9B0043757272656E74204F757400D3
:0C4BA700436F7265204865696768740000
:0C4BB300576569676874576972653200C5
:0C4BBF00576569676874576972653100BA
:0B4BCB00566F6C7461676520496E0036
:0B4BD600436F7265205769647468002B
:0B4BE1005475726E204E6F3A202000C9
:0B4BEC0043757272656E7420496E0004
:0A4BF700506572696D657465720007
:0A4C0100506F7765722856412900B4
:084C0B0041697220476170004D
:020000040030CA
:0E000000000C1F1EFF8381FF0FC00FE00F409A
:00000001FF
