:04000000A5EF16F062
:1000080000C023F001C022F002C021F003C020F09C
:1000180004C01FF005C01EF006C01DF007C01CF08C
:1000280008C01BF009C01AF00AC019F00BC018F07C
:100038000CC017F00DC016F00EC015F0E1CF26F079
:10004800E2CF27F0E9CF24F0EACF25F081CFA7F25D
:10005800000E0201A86FF2A245D0000EA51902E118
:10006800010EA4193FE1810E0301766F0F0E776F21
:10007800786B960E796F010E7A6F5BEC10F0005278
:1000880031E0010E02019C5F000E9D5B0FD0060E51
:100098009C6F000E9D6F1CD0120E9C6F000E9D6F02
:1000A80017D0170E9C6F000E9D6F12D0000E9D1971
:1000B80002E1070E9C19EBE0000E9D1902E1150EF6
:1000C8009C19EAE0000E9D1902E11A0E9C19E9E05C
:1000D800000E006E9D51005C02E19C51000802E395
:1000E8009C6B9D6BF292F0A039D00201000EA5190D
:1000F80002E1010EA41932E1810E0301766F0F0EA1
:10010800776F010E786F960E796F010E7A6F5BEC40
:1001180010F0005223E002019C4B9D2B000E9D5DC8
:1001280002E11B0E9C5D02E39C6B9D6B000E9D5DC6
:1001380002E1070E9C5D06E382BA04D0120E9C6FA2
:10014800000E9D6F000E9D1902E1120E9C1906E12A
:1001580082BA04D0170E9C6F000E9D6FF090F0A22B
:1001680023D00201000EA31902E1010EA2191CE11D
:10017800000EA51902E1000EA41916E1810E030173
:10018800766F0F0E776F020E786F020E796F010E81
:100198007A6F5BEC10F0005207E00201A04BA12B34
:1001A800010E896F000E8A6FF092F2A00ED0020144
:1001B800000EA51902E1010EA41907E1000E9D5DCC
:1001C80002E1070E9C5D01E20ED00201000E9D19AE
:1001D80002E1130E9C1907E0000E9D1902E1180EAA
:1001E8009C1901E0B7D1026A81BA022A02C000F064
:1001F80000360090000E81B8010EA66F0050A613BD
:100208000101DA51FF0AD8B4A3D1DA51000A05E195
:100218000201A651010A01E11CD00101DA51010ACB
:1002280005E10201A651030A01E113D00101DA51E7
:10023800030A05E10201A651020A01E10AD00101FF
:10024800DA51020A05E10201A651000A01E101D0D2
:100258008DD00201000E9D1902E1020E9C1940E1A9
:100268009CC200F09DC201F00036009001360036B5
:10027800009001365A0E00240301746F000E01200D
:10028800756F9CC200F09DC201F0003600900136E7
:100298000036009001365A0E0024E96E000E012047
:1002A800EA6EEECF00F0EECF01F0EECF02F0EECF27
:1002B80003F0DA0E046ECC0E056E4C0E066E7B0E45
:1002C800076EA2EC09F074C3E1FF75C3E2FF00C03A
:1002D800E6FF01C0E6FF02C0E6FF03C0E6FF31D03B
:1002E800000E02019D1902E1020E9C192AE0000E7F
:1002F8009D5D02E1160E9C5D24E29CC200F09DC249
:1003080001F0003600900136280E0024E16E000E40
:100318000120E26E9CC200F09DC201F00036009000
:100328000136280E0024E96E000E0120EA6E010E47
:10033800EE24006E000EEE20016E00C0E6FF01C044
:10034800E6FF0201000E9D1902E1130E9C1907E059
:10035800000E9D1902E1180E9C1901E006D082B426
:100368008B94010E896F000E8A6FF2D00101DA5169
:10037800000A05E10201A651020A01E10AD00101C1
:10038800DA51010A05E10201A651000A01E101D092
:10039800DFD00201000E9D1902E1020E9C1977E1DF
:1003A8009CC200F09DC201F0003600900136003674
:1003B800009001365A0E00240301746F000E0120CC
:1003C800756F9CC200F09DC201F0003600900136A6
:1003D8000036009001365A0E0024E96E000E012006
:1003E800EA6EEECF00F0EECF01F0EECF02F0EECFE6
:1003F80003F0DA0E046ECC0E056E4C0E066E7B0E04
:10040800076EABEC0EF074C3E1FF75C3E2FF00C0EA
:10041800E6FF01C0E6FF02C0E6FF03C0E6FF9CC29C
:1004280000F09DC201F000360090013600360090C1
:1004380001365A0E0024E96E000E0120EA6EEECF56
:1004480000F0EECF01F0EECF02F0EECF03F0046A39
:10045800056A066A076A69DA010ED8B0000E006EEE
:10046800005214E09CC200F09DC201F000360090DA
:1004780001360036009001365A0E0024E16E000E57
:100488000120E26EE66AE66AE66AE66A24D09CC261
:1004980000F09DC201F0003600900136280E0024BD
:1004A800E16E000E0120E26E9CC200F09DC201F0D8
:1004B800003600900136280E0024E96E000E012057
:1004C800EA6E010EEE5C006E000EEE58016E00C082
:1004D800E6FF01C0E6FF9CC200F09DC201F00036B5
:1004E80000900136280E0024E96E000E0120EA6E05
:1004F800EECF01F0EECF02F0800E0218006E800EF3
:10050800005C02E1000E015C0FE29CC200F09DC29B
:1005180001F0003600900136280E0024E16E000E2E
:100528000120E26EE66AE66A000E02019D1902E108
:10053800130E9C1907E0000E9D1902E1180E9C1974
:1005480001E006D082A48B84010E896F000E8A6FA9
:10055800A6C2DAF1F29023C000F022C001F021C057
:1005680002F020C003F01FC004F01EC005F01DC03B
:1005780006F01CC007F01BC008F01AC009F019C02B
:100588000AF018C00BF017C00CF016C00DF015C01B
:100598000EF024C0E9FF25C0EAFF26C0E1FF27C00E
:0405A800E2FF11005D
:1005AC00120E0C6EDA0E0D6E0D2EFED70C2EFCD725
:0405BC000000120029
:0605C00000000000120023
:0C05C600290E0D6E0D2EFED70000120055
:0805D2000AAE029E000E1200A9
:0E05DA00026A016A006A086A036A000E1200D3
:1005E8000B840BAEFFEF02F0010E036E026A016A84
:0A05F800006A0A360232FF0E1200FC
:100602000B820BAE0BEF03F003680268016800680F
:080612000A360232FF0E12004D
:08061A000B6A0B86FF0E1200B3
:10062200030173BF02D0899A01D0898A73BD02D0B7
:10063200899801D0898873BB02D0899601D08986B6
:1006420073B902D0899401D089840201A9B102D080
:10065200898001D089908982B2DF8992030173B7C0
:1006620002D0899A01D0898A73B502D0899801D0C3
:10067200898873B302D0899601D0898673B102D07A
:10068200899401D089840201A9B102D0898001D064
:100692008990898294DF8992A9A102D086DF01D054
:0406A20091DF1200D2
:1006A6000B800BAE5FEF03F0026A0AAEFF0E026E1E
:0C06B600016E006E0A360232FF0E1200C8
:1006C2000134083609360450085E0550D8A0053CAE
:1006D200095E003601360F0E0C6E013408360936FB
:1006E200045000A006D0085E0550D8A0053C095E63
:1006F20005D008260550D8B0053C0926003601363B
:100702000C2EEBD700B006D0045008260550D8B006
:08071200053C0926000012005D
:10071A000CB0CFEF03F00CA275EF04F00E6A000ED6
:10072A000264E6EF03F0F00E0214D8A4B1EF03F06E
:10073A00023A01380F0B02260138F00B016E00381D
:10074A000F0B01260038F00B006E08380F0B00263D
:10075A000838F00B086E0E84D89002BECAEF03F078
:10076A0008360036013602360E2A02BECAEF03F0F8
:10077A0008360036013602360E2A02BECAEF03F0E8
:10078A0008360036013602360E2A0E5003646BEF25
:10079A0004F0035E0BBC08AE70EF04F0D880800E44
:1007AA0008640030000E002201220222D8A070EF55
:1007BA0004F0023201320032034A75EF04F070EF9E
:1007CA0004F001C002F000C001F008C000F0086A9D
:1007DA00000E0E8602641DEF04F0F00E0214D8A477
:1007EA0005EF04F0023A01380F0B02260138F00B2C
:1007FA00016E00380F0B01260038F00B006E0E84D4
:10080A00D89002BECAEF03F00036013602360E2A2D
:10081A0002BECAEF03F00036013602360E2A02BEC5
:10082A00CAEF03F00036013602360E2ACAEF03F089
:10083A0001C002F000C001F0006A000E0E960E8898
:10084A0002644AEF04F0F00E0214D8A435EF04F063
:10085A00023A01380F0B02260138F00B016E0E84A2
:10086A00D89002BECAEF03F0013602360E2A02BE43
:10087A00CAEF03F0013602360E2A02BECAEF03F0AF
:10088A00013602360E2ACAEF03F001C002F0016AED
:10089A00000E0E8602647AEF04F0F00E0214D8A459
:1008AA0059EF04F0023A0E84D89002BECAEF03F060
:1008BA0002360E2A02BECAEF03F002360E2A02BE22
:1008CA00CAEF03F002360E2ACAEF03F0010E0C6ECD
:1008DA0086DE7DEF04F0020E0C6E76DE7DEF04F00C
:1008EA00040E0C6E89DE7DEF04F0080E0C6E70DECD
:0208FA001200EA
:1008FC00086A096A100E0C6E013408360936045069
:10090C00085E0550D8A0053C095ED8B007D004504D
:10091C0008260550D8B0053C0926D890003601367B
:06092C000C2EEAD71200B8
:100932000A6A0350D8A40A800750D8A40A820A502F
:10094200D8B4FCEF04F0030AD8B4B5EF04F00AB04F
:10095200B0EF04F006AEFAEF04F0F8EF04F002AEE6
:10096200F8EF04F0FAEF04F00250800B0A6E029ED8
:100972000650800B069E0A18D8B4C6EF04F00A503F
:10098200D8B4F8EF04F0FAEF04F00750035CD8B4DF
:10099200D0EF04F0D8A0ECEF04F0F2EF04F0065030
:1009A200025CD8B4DAEF04F0D8A0ECEF04F0F2EF76
:1009B20004F00550015CD8B4E4EF04F0D8A0ECEFE9
:1009C20004F0F2EF04F00450005CD8B4FCEF04F041
:1009D200D8B0F2EF04F00A52D8B4FAEF04F0F8EF0C
:1009E20004F00A52D8B4F8EF04F0FAEF04F0D88019
:0E09F2001200D8901200D880D8841200120093
:100A00006B0E046E030E056E030E0424E96E000ED9
:100A10000520EA6E7E0EEE5C006E016A000E015A41
:100A20006FC3E1FF70C3E2FF00C0E6FF01C0E6FF55
:100A3000030E0424E16E000E0520E26E7E0EE66ECB
:100A40006BC300F06CC301F06DC302F06EC303F022
:020A5000120092
:100A52006B0E0301716F030E726F030E7125D96E57
:100A6200000E7221DA6EDE506F25016E000E7021CB
:100A7200026E01C06FF302C070F3800E0218006EA6
:100A8200800E005C02E1000E015C05E2006A016A70
:100A9200026A036A3ED0800E006E800E7019005CFE
:100AA20002E16F51FF0825E2046A056A066A076AD5
:100AB2006BC300F06CC301F06DC302F06EC303F0B0
:100AC20037DF010ED8B0000E006E005209E0FF0EB3
:100AD200006EFF0E016EFF0E026EFF0E036E19D046
:100AE200FF0E006EFF0E016E7F0E026EFF0E036E92
:100AF20010D0030E7125E16E000E7221E26E6FC3FB
:100B0200E6FF6BC300F06CC301F06DC302F06EC36D
:040B120003F01200DA
:100B1600086A096A000E0762036410EF06F00250C5
:100B260006180A6E075003267E0ED8A0A1EF05F020
:100B3600035ED8B014EF06F0A5EF05F0035ED8A06B
:100B460018EF06F0028E068E02C00EF001C00BF002
:100B560000C00DF000500402F4CF0CF00150050265
:100B6600F4CF00F0F3CF08F00402F3500C26F45053
:100B76000822000E00220D500502F3500C26F450F8
:100B86000822000E002202500402F3500826F450F8
:100B9600002202500502016A000E0122F3500026CF
:100BA600F45001220D500602F3500826F45000229C
:100BB600026A000E012202220B500602F3500026A2
:100BC600F4500122000E02220E500602F3500126B6
:100BD600F450022202BEF8EF05F008360036013660
:100BE60002360306D8B418EF06F00BEF06F0D880ED
:100BF600800E08640030000E002201220222D8A0D6
:100C06000BEF06F0023201320032034A14EF06F00F
:100C16000AAE029E000E1AEF06F0010EDBDC1AEF9A
:100C260006F0020EEBDC1AEF06F0040EDADC120018
:100C36000B6A0A6A096A086A0E6A0334083604509F
:100C4600085E0550D8A0053C095E0650D8A0063CB3
:100C56000A5E0750D8A0073C0B5EE86AD8A0010ED2
:100C66000E5E0336070E0C6E0334083609360A3656
:100C76000B360E36045003A012D0085E0550D8A0DD
:100C8600053C095E0650D8A0063C0A5E0750D8A06F
:100C9600073C0B5EE86AD8A0010E0E5E11D008264E
:100CA6000550D8B0053C09260650D8B0063C0A26A1
:100CB6000750D8B0073C0B26E86AD8B0010E0E26BE
:100CC60003360C2ED1D70234083609360A360B36CF
:100CD6000E36045003A012D0085E0550D8A0053C7D
:100CE600095E0650D8A0063C0A5E0750D8A0073C0D
:100CF6000B5EE86AD8A0010E0E5E11D008260550DC
:100D0600D8B0053C09260650D8B0063C0A2607503E
:100D1600D8B0073C0B26E86AD8B0010E0E2602367C
:100D2600070E0C6E0234083609360A360B360E36B6
:100D3600045002A012D0085E0550D8A0053C095EFA
:100D46000650D8A0063C0A5E0750D8A0073C0B5EAA
:100D5600E86AD8A0010E0E5E11D008260550D8B05C
:100D6600053C09260650D8B0063C0A260750D8B0DE
:100D7600073C0B26E86AD8B0010E0E2602360C2E6A
:100D8600D1D70134083609360A360B360E360450EA
:100D960002A012D0085E0550D8A0053C095E065098
:100DA600D8A0063C0A5E0750D8A0073C0B5EE86A4E
:100DB600D8A0010E0E5E11D008260550D8B0053C0D
:100DC60009260650D8B0063C0A260750D8B0073C7C
:100DD6000B26E86AD8B0010E0E260136070E0C6EF9
:100DE6000134083609360A360B360E36045001A091
:100DF60012D0085E0550D8A0053C095E0650D8A062
:100E0600063C0A5E0750D8A0073C0B5EE86AD8A0ED
:100E1600010E0E5E11D008260550D8B0053C0926F5
:100E26000650D8B0063C0A260750D8B0073C0B2619
:100E3600E86AD8B0010E0E2601360C2ED1D7003442
:100E4600083609360A360B360E36045001A012D083
:100E5600085E0550D8A0053C095E0650D8A0063CA1
:100E66000A5E0750D8A0073C0B5EE86AD8A0010EC0
:100E76000E5E11D008260550D8B0053C092606504E
:100E8600D8B0063C0A260750D8B0073C0B26E86ABD
:100E9600D8B0010E0E260036070E0C6E003408364A
:100EA60009360A360B360E36045000A012D0085EFC
:100EB6000550D8A0053C095E0650D8A0063C0A5E3F
:100EC6000750D8A0073C0B5EE86AD8A0010E0E5E5C
:100ED60011D008260550D8B0053C09260650D8B0D2
:100EE600063C0A260750D8B0073C0B26E86AD8B05D
:100EF600010E0E2600360C2ED1D700B00ED00450AF
:100F060008260550D8B0053C09260650D8B0063C40
:0C0F16000A260750D8B0073C0B2612003A
:100F22000B6A0C6A0A6A086A0350D8B419EF08F00F
:100F3200028E9E0E035E03BEA4EF07F0D8B4A4EFA8
:100F420007F009EF08F0036C080E035CD8A0D6EF97
:100F520007F0036E083600C008F001C000F002C0BE
:100F620001F0026A080E035CD8A0D6EF07F0036E08
:100F7200083600C008F001C000F0016A080E035CE8
:100F8200D8A0D6EF07F0036E083600C008F0006A5A
:100F9200080E035CD8A0D6EF07F0036E0836086A85
:100FA2000350D8A4D890E2EF07F00350D8B4E2EF90
:100FB20007F0D8900232013200320832032EDAEF03
:100FC20007F00BBC08A0F3EF07F0D8A0F3EF07F08F
:100FD200082AD8B4002AD8B4012AD8B4022A02BEF8
:100FE2001DEF08F00AAE19EF08F0021E011E001EE6
:100FF200081E082AD8B4002AD8B4012AD8B4022A72
:1010020019EF08F0026A016A006A086A19EF08F02B
:101012000B800BAE23EF08F0026A0AAE23EF08F052
:10102200026E016E006E086E0A36023223EF08F07D
:10103200000E0C6A24EF08F0010E0C6E53EC03F064
:1010420024EF08F0FF0E0250036E0150026E0050B2
:08105200016E0850006E12004F
:10105A000450000A12E10550000A0FE10650000A86
:10106A000CE10750000A09E1FF0E006EFF0E016E47
:10107A007F0E026EFF0E036EA8D0086A096A075037
:10108A00D8B4D8EF08F00350D8B4DDEF08F0025016
:10109A0006180A6E028E068E0E6A02C008F001C099
:1010AA000CF000C00DF004500D5E0550D8A0053CB0
:1010BA000C5E0650D8A0063C085E086A0C6A0D6AE7
:1010CA00D8A06FEF08F0D89002320132003208320D
:1010DA00010E0E6E0750035ED8A07CEF08F07E0E5C
:1010EA000E240326D8B0E2EF08F082EF08F07E0E55
:1010FA000E240326D8A0E7EF08F0180E0B6E0D3663
:10110A000C3608360036013602360E360450005EBA
:10111A000550D8A0053C015E0650D8A0063C025EE8
:10112A0006340E120EA09DEF08F00D80A8EF08F00D
:10113A00045000260550D8B0053C01260650D8B008
:10114A00062802260D900B2E84EF08F0CEEF08F049
:10115A00D8900036013602360E360450005E05502D
:10116A00D8A0053C015E0650D8A0063C025E0634B3
:10117A000E10010B0D26D8B00C2AD8B4082AD8A410
:10118A00CEEF08F008320C320D32032AD8B4E2EF5F
:10119A0008F00AAE089E0850026E0C50016E0D50FF
:1011AA00006EEAEF08F0010E0DEC03F0EAEF08F02A
:1011BA00020EEDEC02F0EAEF08F0040E01EC03F087
:0C11CA00EAEF08F0080EF4EC02F012004E
:1011D6000450000A08E10550000A05E1FF0E006E02
:1011E6007F0E016E58D00D6A096A086A0150001018
:1011F600D8B4000C015005180A6E0ABE0D1E0B6A03
:1012060005AE05D0041E051E042AD8B4052A01AE73
:1012160005D0001E011E002AD8B4012A015005106F
:101226000A6E0ABE10D061EC03F00BB020D00DAEF2
:10123600000C001E011E002AD8B4012A081E091E31
:10124600082AD8B4092A000C05AE0DD001BE07D075
:101256000150096E0050086E016A006AE8D7016AFB
:10126600006A002A000C011E001E0B2ADDD7082A80
:10127600D8B4092A0450085CD8A4D9D70550095C0B
:10128600D8A4D5D7096A086A002AD8B4012A01AEBB
:08129600CED70000FF0C12008E
:10129E0003500718D8A463EF09F002500618D8A41B
:1012AE0063EF09F001500518D8A463EF09F0005060
:0E12BE000418D8B4D8841200D894120012007C
:1012CC000C6A0E6A0250D8A47FEF09F001C002F03C
:1012DC0000C001F0006A0E860250D8A47FEF09F01E
:1012EC0001C002F0016A0E960E880250D8B491EF3C
:1012FC0009F00E50035ED8A4D8A097EF09F0D8904F
:10130C0002BE9DEF09F0003601360236032E86EF41
:10131C0009F097EF09F0010E0C6EEDEC02F0A1EF65
:10132C0009F0020E0C6EF4EC02F0A1EF09F0040EC1
:08133C000C6EE9EC02F0120056
:10134400025006180E6E086A096A0B6A0350076495
:1013540095EF0AF006500A6E068E028E03500B6E4D
:101364000750036E000E0B64E5EF09F00B50075EA7
:10137400D8B486EF0AF0070E076454EF0AF0075E4C
:1013840000C008F001C000F002C001F0026A074E7C
:1013940086EF0AF0076429EF0AF0075E00C008F040
:1013A40001C000F0016A074E86EF0AF0076407EFF8
:1013B4000AF0075E00C008F0006A074E86EF0AF0E4
:1013C4000764EEEF09F00AC002F005C001F004C0A2
:1013D40000F0086AB2EF0BF0030E0764F9EF09F0AE
:1013E400075E08380F0B086E074E86EF0AF0D89098
:1013F4000832074E86EF0AF0D8900832074E86EF7F
:101404000AF0D890083286EF0AF0030E076418EF4A
:101414000AF0075E08380F0B086E0038F00B082638
:1014240000380F0B006E074E86EF0AF0D89000329A
:101434000832074E86EF0AF0D89000320832074E81
:1014440086EF0AF0D8900032083286EF0AF0030ED5
:10145400076440EF0AF0075E08380F0B086E003887
:10146400F00B082600380F0B006E0138F00B002635
:1014740001380F0B016E074E86EF0AF0D890013247
:1014840000320832074E86EF0AF0D890013200325B
:101494000832074E86EF0AF0D89001320032083243
:1014A40086EF0AF0030E076471EF0AF0075E08384E
:1014B4000F0B086E0038F00B082600380F0B006E77
:1014C4000138F00B002601380F0B016E0238F00BC7
:1014D400012602380F0B026E074E86EF0AF0D890F1
:1014E4000232013200320832074E86EF0AF0D890F9
:1014F4000232013200320832074E86EF0AF0D890E9
:101504000232013200320832096A000E0EAE7AEF5E
:101514000BF0081E001E011E021E082A00220122D2
:1015240002227AEF0BF00750D8A49BEF0AF0B2EF37
:101534000BF0096A02C00AF0028E068E0750035CA3
:10154400076ED8B46DEF0BF0070E07643BEF0BF09A
:10155400075E0450096E0550046E0650056E066A57
:10156400074E6DEF0BF0070E076410EF0BF0075EEC
:101574000450096E0550046E056A074E6DEF0BF0BA
:10158400070E0764EEEF0AF0075E0450096E046A62
:10159400074E6DEF0BF0070E0764D5EF0AF00AC093
:1015A40002F0B2EF0BF0030E0764E0EF0AF0075EFF
:1015B40009380F0B096E074E6DEF0BF0D890093206
:1015C400074E6DEF0BF0D8900932074E6DEF0BF01C
:1015D400D89009326DEF0BF0030E0764FFEF0AF0A9
:1015E400075E09380F0B096E0438F00B092604381E
:1015F4000F0B046E074E6DEF0BF0D89004320932D6
:10160400074E6DEF0BF0D89004320932074E6DEFA0
:101614000BF0D890043209326DEF0BF0030E07641F
:1016240027EF0BF0075E09380F0B096E0438F00B37
:10163400092604380F0B046E0538F00B0426053810
:101644000F0B056E074E6DEF0BF0D8900532043288
:101654000932074E6DEF0BF0D8900532043209328F
:10166400074E6DEF0BF0D8900532043209326DEF5E
:101674000BF0030E076458EF0BF0075E09380F0BED
:10168400096E0438F00B092604380F0B046E053874
:10169400F00B042605380F0B056E0638F00B0526F3
:1016A40006380F0B066E074E6DEF0BF0D89006321E
:1016B400053204320932074E6DEF0BF0D890063232
:1016C400053204320932074E6DEF0BF0D890063222
:1016D400053204320932086A000E0EAE7AEF0BF0BE
:1016E400091E041E051E061E092A042205220622BE
:1016F40009500826045000220550012206500222F7
:101704000EBE91EF0BF0D8A0A0EF0BF00232013225
:1017140000320832033EA0EF0BF0ACEF0BF0D8B070
:10172400A6EF0BF0000E081E001E011E021E082A62
:101734000022012202220A7EA6EF0BF0010E0C6E9B
:101744008DEC03F0B4EF0BF0020E0C6E8DEC03F095
:10175400B4EF0BF0040E0C6E01EC03F0B4EF0BF0DD
:06176400000E0C6E1200E5
:10176A000900F5CFE6FF0006FBE10106F9E11200E8
:10177A0003016F6B050E6F5D0AE26F516D25E16E15
:10178A00000E6E21E26E200EE66E6F2BF3D76F51BC
:10179A006D25E16E000E6E21E26EE66A6F076F51EB
:1017AA006D25706F000E6E21716F0A0E046E000EA9
:1017BA00056E6BC300F06CC301F07EEC04F008C048
:1017CA0000F009C001F0300E002670C3E1FF71C3BA
:1017DA00E2FF00C0E6FF0A0E046E000E056E6BC340
:1017EA0000F06CC301F07EEC04F000C06BF301C0A2
:1017FA006CF3000E011802E1000E001801E102D09C
:06180A006F07CDD71200AC
:101810000201A9916BC373F311EC03F0A9811200CB
:101820000050086E0150006E0250016E0350026EAF
:10183000036A0B6A0C6A9E0E036E0A6A020E0C6E35
:061840008DEC03F0120024
:1018460003010007000700C301F00007015000086C
:1018560003E200000000F7D70000000000000000CF
:04186600000012006C
:10186A000301396B3A6B33C33BF334C33CF3800E49
:10187A003419006E800E005C02E1000E335D0BE24B
:10188A00010E396F000E3A6F335100083B6F34C3B3
:10189A003CF3000E3C573BC36BF33CC36CF335C3BC
:1018AA006DF336C36EF364DF060E376F000E386FC2
:1018BA00000E006E3851005C02E13751000819E24F
:1018CA0037513525E16E38513621E26E010E375D0A
:1018DA00006E000E3859016E00503525E96E015030
:1018EA003621EA6EEECFE6FF010E375F000E385B57
:1018FA00DFD735C3E1FF36C3E2FF200EE66E39516A
:10190A003A111AE0376B386B37513525E96E385181
:10191A003621EA6EEE50200A03E1374B382BF4D712
:10192A00010E375F000E385B37513525E16E3851AD
:0A193A003621E26E2D0EE66E12005B
:1019440002019E6B9F6B800E03013419006E800EA2
:1019540002019F19005C03E19E510301335D10E312
:101964008B82420E0D6E0D2EFED700008B92420E1E
:101974000D6E0D2EFED7000002019E4B9F2BE3D768
:0219840012004F
:10198600020E0C6E9C0E0D6E0D2EFED70C2EFCD785
:0619960000000000120039
:10199C0010D0800E0301336F1AD0C00E336F17D0E6
:1019AC00940E336F14D0D40E336F11D0800E336F6E
:1019BC000ED003013351010AECE03351020AEDE081
:1019CC003351030AEDE03351040AEDE0EFD734054F
:1019DC00006E3351002600C033F300C073F311ECDA
:1019EC0003F0A9910301006B00513525E96E000E3F
:1019FC003621EA6EEE520CE000513525E96E000EF0
:101A0C003621EA6EEECF6BF3FDDE0301002BECD733
:061A1C000201A981120085
:101A220003013A6B3B6B39C368F32C0EF66E3E0E24
:101A3200F76E000EF86E3C0EE16E030EE26E280E9B
:101A4200006E010E016E90DE39C300F0000E016ED1
:101A52000036009001360036009001363C0E00241C
:101A6200696F030E01206A6F69C3E9FF6AC3EAFF67
:101A7200EECF00F0EECF01F0EECF02F0EECF03F0AA
:101A8200CEDE33C304F034C305F035C306F036C3EB
:101A920007F08BEC05F091EC07F000C064F301C095
:101AA20065F302C066F303C067F369C3E9FF6AC363
:101AB200EAFFEECF05F0EECF06F0EECF07F0EECF65
:101AC20008F00850035C08E10750025C05E106508B
:101AD200015C02E10550005C02E2010E3B6F000E68
:101AE2003ABFFF0E006E000E001802E139513A199A
:101AF2000CE13A513725E16E000E3ABFFF0E382154
:101B0200E26E2E0EE66E3A2B41D03A513725696FBE
:101B1200000E3ABFFF0E38216A6F0A0E046E000EE5
:101B2200056E066E076E64C300F065C301F066C3FE
:101B320002F067C303F01BEC06F008C000F009C016
:101B420001F00AC002F00BC003F0300E002669C398
:101B5200E1FF6AC3E2FF00C0E6FF3A2B0A0E046E01
:101B6200000E056E066E076E64C300F065C301F0D9
:101B720066C302F067C303F01BEC06F000C064F317
:101B820001C065F302C066F303C067F368C301F0E6
:101B92006807800E000A006E800E0118005C9FE349
:101BA20064516511661167119AE13B530BE03A519A
:101BB2003725E16E000E3ABFFF0E3821E26E300E7D
:101BC200E66E3A2B3A513725E16E000E3ABFFF0E10
:101BD2003821E26EE66A3A05006F3A6B800E3A19D6
:101BE200006E800E0019005C29E23A513725006E22
:101BF200000E3ABFFF0E3821016E00C0E9FF01C09E
:101C0200EAFFEECF3BF300513725E96E000E00BF2D
:101C1200FF0E3821EA6E00C0E1FF01C0E2FFEECF05
:101C2200E6FF00513725E16E000E00BFFF0E38219E
:0E1C3200E26E3BC3E6FF3A2B0007D0D712004C
:101C40000B6A0350D8B466EF0EF002500A6E028E93
:101C50008E0E035E03AE6AEF0EF0036C080E035C9B
:101C6000D8A045EF0EF0036E013602C001F0026A03
:101C7000080E035CD8A045EF0EF0036E0136016A32
:101C80000350D8A4D8904FEF0EF00350D8B44FEFC4
:101C90000EF0D89002320132032E49EF0EF00BBC49
:101CA00001A05CEF0EF0D8A05CEF0EF0012AD8B4D2
:101CB000022A02BE79EF0EF00AAE7FEF0EF0021E8E
:101CC000011E012AD8B4022A7FEF0EF0026A016ACF
:101CD0007FEF0EF00B800BAE83EF0EF0026A0AAEC0
:101CE00083EF0EF0FF0E026E016E0A36023283EFB2
:101CF0000EF0010E0C6E53EC03F085EF0EF0000EAB
:101D00000C6E85EF0EF0FF0E0C6E0150006E02504F
:041D1000016E12004E
:101D140000C008F00150006E016A026A036A0B6A8F
:101D24000C6A016A026A036A960E036E0A6A00AEBE
:101D3400A2EF0EF0081E001E082AD8B4002A0A8E4C
:101D440000C001F008C000F0086A026A66EC09F0FD
:021D540012007B
:081D5600067EA2EC09F0120068
:101D5E000050086E0150006E016A026A036A0B6A37
:101D6E000C6A960E036E0A6A00C001F008C000F0FD
:0A1D7E00086A026A66EC09F0120020
:101D880033C304F034C305F035C306F036C307F097
:101D9800006A016A026A036A99EC04F0000ED8B07E
:101DA800010E006E005205E0006A016A026A036AC9
:101DB800F9D033C337F334C338F335C339F336C3F3
:101DC8003AF3000E046E000E056E000E066E7F0ECE
:101DD800076E33C300F034C301F035C302F036C3D5
:101DE80003F099EC04F0010ED8B0000E006E00521A
:101DF8001AE037C304F038C305F039C306F03AC314
:101E080007F0000E006E000E016E000E026E7F0ECF
:101E1800036E2DEC08F000C037F301C038F302C0A0
:101E280039F303C03AF337C36BF338C36CF339C3E0
:101E38006DF33AC36EF33F0E03016F6F030E706FBD
:101E480000EC05F000C037F301C038F302C039F3E5
:101E580003C03AF300C06BF301C06CF302C06DF32A
:101E680003C06EF3020E046E000E056E3FC300F051
:101E780040C301F0EBEC08F000C06FF301C070F351
:101E880029EC05F000C037F301C038F302C039F37C
:101E980003C03AF3000E046E000E056E000E066EC7
:101EA8007F0E076E33C300F034C301F035C302F070
:101EB80036C303F099EC04F0010ED8B0000E006EA2
:101EC80000521AE037C304F038C305F039C306F0EE
:101ED8003AC307F0000E006E000E016E000E026E8F
:101EE8007F0E036E2DEC08F000C037F301C038F305
:101EF80002C039F303C03AF3140E0301006F37C36D
:101F080004F038C305F039C306F03AC307F033C309
:101F180000F034C301F035C302F036C303F02DECF2
:101F280008F037C304F038C305F039C306F03AC3E4
:101F380007F0A2EC09F0000E046E000E056E000E0C
:101F4800066E800E076E2DEC08F000C03BF301C052
:101F58003CF302C03DF303C03EF337C304F038C37B
:101F680005F039C306F03AC307F04FEC09F0010E4B
:101F7800D8A4000E006E005201E00CD03BC337F32A
:101F88003CC338F33DC339F33EC33AF303010007BA
:101F98000053B5E137C300F038C301F039C302F08C
:061FA8003AC303F0120031
:101FAE00000E006E02019D51005C02E19C5107087B
:101FBE0011E3D6C233F3D7C234F3D8C235F3D9C244
:101FCE0036F38D0E0301376F020E386F010E396F27
:101FDE0021DD10D00301D6C233F3D7C234F3D8C2F9
:101FEE0035F3D9C236F38D0E376F020E386F040EED
:101FFE00396F10DD010E736F11EC03F0010E03014A
:10200E00336F010E346FD4C235F3D5C236F3BFDC55
:10201E00020E0301336F010E346F8D0E356F020EFB
:10202E00366FB5DC020E0301336F0A0E346FDAC25F
:10203E0035F3DBC236F3ABDC020E0B6E450E0C6EC7
:10204E00A90E0D6E0D2EFED70C2EFCD70B2EFAD729
:06205E000000000012006A
:10206400036ABE0E016E020E026E03500126D8B042
:10207400022A03500201D425F66E000ED521F76E14
:10208400000ED621F86E0900F5CF00F001C0E1FF83
:1020940002C0E2FF00C0E6FF01C0E9FF02C0EAFFA0
:1020A400EE5202E0032ADDD7BE0E006E020E016E70
:0220B400120018
:1020B60003017C6B78C301F0010E006E015004E051
:1020C60000360090FF0FFBD700C07BF376C3E9FF15
:1020D60077C3EAFF0050EE14016E0152010ED8A438
:1020E600000E006E7A51001A18E07951000804E2D9
:1020F60047DC46DC7907F9D776C3E9FF77C3EAFF01
:102106007B51EE14016E0152010ED8A4000E006E32
:102116007A51001A02E0FF0E7C6F7CC300F01200B9
:10212600D6C233F3D7C234F3820E0301356F020EE3
:10213600366F35EC0CF0010E736F11EC03F0010EE7
:102146000301336F010E346FD4C235F3D5C236F3B3
:1021560022DC020E0301336F010E346F820E356FDF
:10216600020E366F18DC000E9D5D02E1120E9C5DBC
:1021760005E3010E8B6F000E8C6F04D00A0E8B6F79
:10218600000E8C6F020E0301336F8BC234F3D8C27C
:1021960035F3D9C236F3CEEC0CF0020E0B6E450EBB
:1021A6000C6EA90E0D6E0D2EFED70C2EFCD70B2E27
:0821B600FAD70000000012003E
:1021BE0092929290929492969298929A89928990F3
:1021CE00899A899889968994D6EC02F0D6EC02F019
:1021DE00D6EC02F0898689848982E0EC02F089923D
:1021EE00D6EC02F08982E0EC02F08992D6EC02F095
:1021FE008982E0EC02F08992D6EC02F08994898211
:10220E00E0EC02F08992D6EC02F08982E0EC02F06A
:10221E0089928996898A8982E0EC02F08992D6ECBD
:10222E0002F0899A89848982E0EC02F0899289947D
:10223E008982E0EC02F08992D6EC02F08982E0EC21
:10224E0002F0899289848982E0EC02F08992D6ECC0
:10225E0002F089948982E0EC02F08992898A898859
:10226E00898689848982E0EC02F08992D6EC02F0AC
:06227E000201A98112001B
:10228400036AAA0E016E020E026E03500126D8B034
:10229400022A03500201D425F66E000ED521F76EF2
:1022A400000ED621F86E0900F5CF00F001C0E1FF61
:1022B40002C0E2FF00C0E6FF01C0E9FF02C0EAFF7E
:1022C400EE5202E0032ADDD7AA0E006E020E016E62
:0222D4001200F6
:1022D6000201A46BA56B28C025F329C026F32AC0EA
:1022E60027F32BC028F362C0D8F263C0D9F264C0CA
:1022F600DAF265C0DBF22EC01FF32FC020F330C028
:1023060021F331C022F332C023F333C024F334C0A7
:1023160000F035C001F0FBDC00C00DF301C00EF388
:1023260002C00FF303C010F3CD0E046ECC0E056E83
:102336004C0E066E7C0E076E0BDD00C00DF301C061
:102346000EF302C00FF303C010F3000E0301116F6A
:10235600000E126F1B0E136F870E146F000E156F93
:10236600000E166F110E176F870E186F010E736F22
:1023760011EC03F0010E0301336F010E346F500EA2
:10238600356F000E366FCEEC0CF027C300F028C375
:1023960001F0BDDCD8C204F0D9C205F0DAC206F0FD
:1023A600DBC207F08BEC05F048DC00C029F301C066
:1023B6002AF3ADDC00C02BF301C02CF302C02DF3D1
:1023C60003C02EF325C300F026C301F0A0DC00C035
:1023D60004F001C005F002C006F003C007F02BC3ED
:1023E60000F02CC301F02DC302F02EC303F02DEC38
:1023F60008F000C0D4F201C0D5F202C0D6F203C084
:10240600D7F22E0E03016B6F08EC0CF0020E0B6E6A
:10241600450E0C6EA90E0D6E0D2EFED70C2EFCD79A
:102426000B2EFAD70000000029C300F02AC301F0E2
:102436006EDC00C033F301C034F302C035F303C0D1
:1024460036F39FDC00C0DCF201C0DDF202C0DEF232
:1024560003C0DFF22E0E03016B6F08EC0CF0020EC8
:102466000B6E450E0C6EA90E0D6E0D2EFED70C2EA4
:10247600FCD70B2EFAD700000000DCC204F0DDC248
:1024860005F0DEC206F0DFC207F0000E006E000E99
:10249600016E280E026E840E036E2DEC08F000C04D
:1024A6002BF301C02CF302C02DF303C02EF325C37A
:1024B60000F026C301F02BDC2BC304F02CC305F07F
:1024C6002DC306F02EC307F08BEC05F000C02FF3EA
:1024D60001C030F302C031F303C032F32FC305F35A
:1024E60030C306F331C307F332C308F327C300F042
:1024F60028C301F00CDC2BC304F02CC305F02DC35C
:1025060006F02EC307F08BEC05F000C02BF301C0DC
:102516002CF302C02DF303C02EF32BC309F32CC3F7
:102526000AF32DC30BF32EC30CF32FC300F030C3F5
:1025360001F031C302F032C303F0000E046E000E48
:10254600056E000E066E7F0E076EA2EC09F000C047
:1025560005F301C006F302C007F303C008F32BC35B
:1025660000F02CC301F02DC302F02EC303F0000EC1
:10257600046E000E056E000E066E7F0E076EA2EC50
:1025860009F000C009F301C00AF302C00BF303C04F
:102596000CF32E0E03016B6F08EC0CF0020E0B6EA3
:1025A600450E0C6EA90E0D6E0D2EFED70C2EFCD709
:1025B6000B2EFAD700000000120E8B6F000E8C6FE8
:1025C600040E026E8BC200F08CC201F0025005E0D0
:1025D600003600900136FF0FFAD7AA0E0026000E2D
:1025E60001220C0E0024D96E000E0120DA6EDECF19
:1025F60004F0DECF05F0DECF06F0DECF07F0D4C262
:1026060000F0D5C201F0D6C202F0D7C203F099ECB1
:1026160004F0010ED8B0000E006E00527CE0010EF0
:102626008B5D036E000E8C59046E040E026E03C0A1
:1026360000F004C001F0025005E0003600900136BB
:10264600FF0FFAD7AA0E002403012B6F000E0120FC
:102656002C6F2BC3E9FF2CC3EAFFEECF00F0EECFC1
:1026660001F0EECF02F0EECF03F020EC0EF000C04A
:1026760019F301C01AF3040E2B25E96E000E2C2166
:10268600EA6EEECF00F0EECF01F0EECF02F0EECF25
:1026960003F011C304F012C305F013C306F014C30C
:1026A60007F08BEC05F000C0FCF201C0FDF202C0A1
:1026B600FEF203C0FFF2040E2B25D96E000E2C216C
:1026C600DA6EDECF04F0DECF05F0DECF06F0DECF29
:1026D60007F00DC300F00EC301F00FC302F010C3E4
:1026E60003F02DEC08F000C0E0F201C0E1F202C0F8
:1026F600E2F203C0E3F2040E03012B25E96E000E9D
:102706002C21EA6EEECFF4F2EECFF5F2EECFF6F232
:10271600EECFF7F206D0010E02018B5F000E8C5B46
:102726004FD70201120E8B6F000E8C6F040E026ED5
:102736008BC200F08CC201F0025005E0003600901A
:102746000136FF0FFAD7AA0E0026000E01220C0E44
:102756000024D96E000E0120DA6EDECF04F0DECF43
:1027660005F0DECF06F0DECF07F0D8C200F0D9C202
:1027760001F0DAC202F0DBC203F099EC04F0010EBC
:10278600D8B0000E006E0052D8B47DD00201010E02
:102796008B5D036E000E8C59046E040E026E03C030
:1027A60000F004C001F0025005E00036009001364A
:1027B600FF0FFAD7AA0E002403012B6F000E01208B
:1027C6002C6F2BC3E9FF2CC3EAFFEECF00F0EECF50
:1027D60001F0EECF02F0EECF03F020EC0EF000C0D9
:1027E6001BF301C01CF3040E2B25E96E000E2C21F1
:1027F600EA6EEECF00F0EECF01F0EECF02F0EECFB4
:1028060003F015C304F016C305F017C306F018C38A
:1028160007F08BEC05F000C001F301C002F302C023
:1028260003F303C004F3040E2B25D96E000E2C21EE
:10283600DA6EDECF04F0DECF05F0DECF06F0DECFB7
:1028460007F00DC300F00EC301F00FC302F010C372
:1028560003F02DEC08F000C0E4F201C0E5F202C07E
:10286600E6F203C0E7F2040E03012B25E96E000E23
:102876002C21EA6EEECFF8F2EECFF9F2EECFFAF2B5
:10288600EECFFBF206D0010E02018B5F000E8C5BD1
:102896004DD72E0E03016B6F08EC0CF0020E0B6E7B
:1028A600450E0C6EA90E0D6E0D2EFED70C2EFCD706
:1028B6000B2EFAD7000000001FC31DF320C31EF322
:1028C60003011D371D911E3721C300F022C301F0FD
:1028D60000360090013600501D2701501E232E0E93
:1028E6006B6F08EC0CF0020E0B6E450E0C6EA90E0B
:1028F6000D6E0D2EFED70C2EFCD70B2EFAD7000030
:1029060000002E0E03016B6F08EC0CF0020E0B6E2E
:10291600450E0C6EA90E0D6E0D2EFED70C2EFCD795
:102926000B2EFAD70000000023C300F024C301F0E9
:102936008AEC0EF00DC304F00EC305F00FC306F0CB
:1029460010C307F08BEC05F000C02FF301C030F385
:1029560002C031F303C032F3E0C204F0E1C205F075
:10296600E2C206F0E3C207F005C300F006C301F0B9
:1029760007C302F008C303F02DEC08F00DC304F002
:102986000EC305F00FC306F010C307F08BEC05F07D
:10299600F4C204F0F5C205F0F6C206F0F7C207F07D
:1029A6008BEC05F000C02BF301C02CF302C02DF315
:1029B60003C02EF3E4C204F0E5C205F0E6C206F059
:1029C600E7C207F009C300F00AC301F00BC302F027
:1029D6000CC303F02DEC08F00DC304F00EC305F094
:1029E6000FC306F010C307F08BEC05F0F8C204F035
:1029F600F9C205F0FAC206F0FBC207F08BEC05F04F
:102A06002BC304F02CC305F02DC306F02EC307F02C
:102A1600A2EC09F000C004F001C005F002C006F007
:102A260003C007F02FC300F030C301F031C302F03A
:102A360032C303F0ABEC0EF000C0F0F201C0F1F2CD
:102A460002C0F2F203C0F3F22E0E03016B6F08EC24
:102A56000CF0020E0B6E450E0C6EA90E0D6E0D2EB1
:102A6600FED70C2EFCD70B2EFAD70000000029C388
:102A760038F02AC339F0D4C27EF0D5C27FF0D6C270
:102A860080F0D7C281F01DC33CF01EC33DF005C3E4
:102A960086F006C387F007C388F008C389F009C328
:102AA6008AF00AC38BF00BC38CF00CC38DF019C3EC
:102AB60042F01AC343F01BC344F01CC345F0E8C2FE
:102AC60096F0E9C297F0EAC298F0EBC299F0ECC230
:102AD6009AF0EDC29BF0EEC29CF0EFC29DF0F0C200
:102AE6009EF0F1C29FF0F2C2A0F0F3C2A1F0E0C2E4
:102AF600A2F0E1C2A3F0E2C2A4F0E3C2A5F0E4C2F0
:102B0600A6F0E5C2A7F0E6C2A8F0E7C2A9F0FCC2AB
:102B1600AAF0FDC2ABF0FEC2ACF0FFC2ADF001C33D
:102B2600AEF002C3AFF003C3B0F004C3B1F02E0E93
:102B360003016B6F08EC0CF0030E0B6E8A0E0C6E25
:102B4600550E0D6E0D2EFED70C2EFCD70B2EFAD77A
:102B560000000000010E0301736F11EC03F09C4BA3
:102B66009D2B010EA46F000EA56F030E0B6E8A0E31
:102B76000C6E550E0D6E0D2EFED70C2EFCD70B2EA1
:082B8600FAD700000000120064
:102B8E0002019E6B9F6B800ED519006E800E9F19F1
:102B9E00005C02E19E51D45D0FE38B82460E030171
:102BAE00006F23EC0CF08B92460E006F23EC0CF0B2
:0A2BBE0002019E4B9F2BE7D7120087
:102BC8000B6A0A6A096A00500402F4CF09F0F3CFCD
:102BD80008F001500502F4CF0BF0F3CF0AF00050D3
:102BE8000502F3500926F4500A22E86A0B22015024
:102BF8000402F3500926F4500A22E86A0B2208C09E
:102C080000F009C001F00AC002F00BC003F0120086
:102C18000201A46BA56B010EA26F000EA36FA06B3F
:102C2800A16BD8C2DCF2D9C2DDF2DAC2DEF2DBC2B5
:102C3800DFF28B908B948B8CA30E0C6E550E0D6E61
:102C48000D2EFED70C2EFCD78B8E000E8A1902E1B2
:102C5800010E89191DE1896B8A6BD6C233F3D7C27D
:102C680034F3A2EC0CF0A0C233F3A1C234F3820E09
:102C78000301356F020E366F35EC0CF0020E336F20
:102C88000A0E346F820E356F020E366FCEEC0CF0E2
:102C9800A0C200F0A1C201F0AFEC0EF0DCC204F05B
:102CA800DDC205F0DEC206F0DFC207F099EC04F0E1
:102CB800000ED8B0010E006E00521BE0DCC200F01E
:102CC800DDC201F0DEC202F0DFC203F0D8C204F0B8
:102CD800D9C205F0DAC206F0DBC207F0A2EC09F0AF
:102CE80000C0DCF201C0DDF202C0DEF203C0DFF298
:102CF8008274D551A15D02E1D451A05DA6E38B9EFB
:102D0800A30E0C6E550E0D6E0D2EFED70C2EFCD795
:102D18008B9CA26BA36B010EA46F000EA56F8B801A
:102D28009C4B9D2B030E0B6E8A0E0C6E550E0D6E72
:102D38000D2EFED70C2EFCD70B2EFAD70000000064
:022D4800120077
:102D4A00F0EC1FF0926AFF0E936E080E946E0F0E4F
:102D5A00C16E070EB46E806A816A826A020E0B6EB9
:102D6A00450E0C6EA90E0D6E0D2EFED70C2EFCD73D
:102D7A000B2EFAD700000000DFEC10F0D190F2869B
:102D8A00F290F190F288F292F086F090F088F09248
:102D9A00F28E020E0B6E450E0C6EA90E0D6E0D2EE6
:102DAA00FED70C2EFCD70B2EFAD7000000006D962A
:102DBA006F868B90896B8A6B8B9E8B9C0C0E0301A2
:102DCA00736F11EC03F0010E0301736F11EC03F042
:102DDA00010E0301336F100E346FF20E356F010EC0
:102DEA00366FCEEC0CF0020E0301336F110E346F06
:102DFA00E10E356F010E366FCEEC0CF0030E0B6E42
:102E0A008A0E0C6E550E0D6E0D2EFED70C2EFCD7AB
:102E1A000B2EFAD7000000008B6B8C6B800E8C197E
:102E2A00006E800E005C02E1200E8B5D15E2180E2A
:102E3A000301736F11EC03F0020E0B6EE70E0C6EBA
:102E4A00000E0D6E0D2EFED70C2EFCD70B2EFAD7C8
:102E5A0000008B4B8C2BE2D7010E0301736F11EC30
:102E6A0003F08B6B8C6B800E8C19006E800E005CED
:102E7A0002E1040E8B5D3AE2010E0301336F020E8A
:102E8A00346FDB0E356F010E366FCEEC0CF0020E8E
:102E9A000301336F020E346F4B0E356F020E366F1D
:102EAA00CEEC0CF0040E0B6E2C0E0C6EAB0E0D6EEF
:102EBA000D2EFED70C2EFCD70B2EFAD700000000E1
:102ECA00010E0301736F11EC03F0040E0B6E2C0E4E
:102EDA000C6EAB0E0D6E0D2EFED70C2EFCD70B2EE4
:102EEA00FAD7000000008B4B8C2BBDD7A26BA36BCB
:102EFA009C6B9D6B030E0B6E8A0E0C6E550E0D6E3F
:102F0A000D2EFED70C2EFCD70B2EFAD70000000090
:102F1A00010EA46F000EA56F9D51000802E19C519D
:102F2A001B0802E29C6B9D6B17EF1DF0030E006EEF
:102F3A00000E016E9CC204F09DC205F040DE150E23
:102F4A000024E96E020E0120EA6EEECFD4F2EECF33
:102F5A00D5F2EECFD6F232EC10F000C0D4F201C0B6
:102F6A00D5F29CC200F09DC201F0003600900136F5
:102F7A00280E0024E96E000E0120EA6EEECFD6F28A
:102F8A00EECFD7F203C2D8F204C2D9F293EC10F012
:102F9A00E5EF1DF0030E006E000E016E9CC204F0F8
:102FAA009DC205F00CDE150E0024E96E020E01200A
:102FBA00EA6EEECFD4F2EECFD5F2EECFD6F232EC05
:102FCA0010F000C0D4F201C0D5F29CC200F09DC23C
:102FDA0001F0003600900136280E0024E96E000E3A
:102FEA000120EA6EEECFD6F2EECFD7F203C2D8F2C4
:102FFA0004C2D9F293EC10F0E5EF1DF0030E006E57
:10300A00000E016E9CC204F09DC205F0D8DD150EBB
:10301A000024E96E020E0120EA6EEECFD4F2EECF62
:10302A00D5F2EECFD6F232EC10F000C0D4F201C0E5
:10303A00D5F29CC200F09DC201F000360090013624
:10304A000036009001365A0E0024E96E000E012067
:10305A00EA6EEECFD6F2EECFD7F2EECFD8F2EECFBF
:10306A00D9F205C2DAF206C2DBF2D7EC0FF0E5EFCD
:10307A001DF0030E006E000E016E9CC204F09DC28C
:10308A0005F09DDD150E0024E96E020E0120EA6EA0
:10309A00EECFD4F2EECFD5F2EECFD6F232EC10F07C
:1030AA0000C0D4F201C0D5F29CC200F09DC201F06A
:1030BA00003600900136280E0024E96E000E012029
:1030CA00EA6EEECFD6F2EECFD7F207C2D8F208C236
:1030DA00D9F293EC10F0E5EF1DF0030E006E000E2E
:1030EA00016E9CC204F09DC205F069DD150E002434
:1030FA00E96E020E0120EA6EEECFD4F2EECFD5F2DF
:10310A00EECFD6F232EC10F000C0D4F201C0D5F204
:10311A009CC200F09DC201F0003600900136280ED4
:10312A000024E96E000E0120EA6EEECFD6F2EECF51
:10313A00D7F207C2D8F208C2D9F293EC10F0E5EF41
:10314A001DF0030E006E000E016E9CC204F09DC2BB
:10315A0005F035DD150E0024E96E020E0120EA6E37
:10316A00EECFD4F2EECFD5F2EECFD6F232EC10F0AB
:10317A0000C0D4F201C0D5F29CC200F09DC201F099
:10318A00003600900136280E0024E96E000E012058
:10319A00EA6EEECFD6F2EECFD7F207C2D8F208C265
:1031AA00D9F293EC10F0E5EF1DF0030E006E000E5D
:1031BA00016E9CC204F09DC205F001DD150E0024CB
:1031CA00E96E020E0120EA6EEECFD4F2EECFD5F20E
:1031DA00EECFD6F232EC10F000C0D4F201C0D5F234
:1031EA009CC200F09DC201F0003600900136280E04
:1031FA000024E96E000E0120EA6EEECFD6F2EECF81
:10320A00D7F207C2D8F208C2D9F293EC10F0E5EF70
:10321A001DF06BEC11F0E5EF1DF0030E006E000ED1
:10322A00016E9CC204F09DC205F0C9DC150E002493
:10323A00E96E020E0120EA6EEECFD4F2EECFD5F29D
:10324A00EECFD6F232EC10F000C0D4F201C0D5F2C3
:10325A009CC200F09DC201F0003600900136280E93
:10326A000024E96E000E0120EA6EEECFD6F2EECF10
:10327A00D7F211C2D8F212C2D9F293EC10F0E5EFEC
:10328A001DF0030E006E000E016E9CC204F09DC27A
:10329A0005F095DC150E0024E96E020E0120EA6E97
:1032AA00EECFD4F2EECFD5F2EECFD6F232EC10F06A
:1032BA0000C0D4F201C0D5F29CC200F09DC201F058
:1032CA000036009001360036009001365A0E00246E
:1032DA00E96E000E0120EA6EEECFD6F2EECFD7F2FB
:1032EA00EECFD8F2EECFD9F205C2DAF206C2DBF29D
:1032FA00D7EC0FF0E5EF1DF0030E006E000E016E25
:10330A009CC204F09DC205F05ADC150E0024E96E39
:10331A00020E0120EA6EEECFD4F2EECFD5F2EECF56
:10332A00D6F232EC10F000C0D4F201C0D5F29CC241
:10333A0000F09DC201F0003600900136280E0024EC
:10334A00E96E000E0120EA6EEECFD6F2EECFD7F28A
:10335A0007C2D8F208C2D9F293EC10F0E5EF1DF0DB
:10336A00030E006E000E016E9CC204F09DC205F0B1
:10337A0026DC150E0024E96E020E0120EA6EEECF5D
:10338A00D4F2EECFD5F2EECFD6F232EC10F000C086
:10339A00D4F201C0D5F29CC200F09DC201F0003601
:1033AA00009001360036009001365A0E0024E96E6C
:1033BA00000E0120EA6EEECF00F0EECF01F0EECF64
:1033CA0002F0EECF03F020EC0EF000C0D6F201C0FE
:1033DA00D7F209C2D8F20AC2D9F293EC10F0F0D3AC
:1033EA00030E006E000E016E9CC204F09DC205F031
:1033FA00E4EC15F0150E0024E96E020E0120EA6EC7
:10340A00EECFD4F2EECFD5F2EECFD6F232EC10F008
:10341A0000C0D4F201C0D5F29CC200F09DC201F0F6
:10342A000036009001360036009001365A0E00240C
:10343A00E96E000E0120EA6EEECF00F0EECF01F049
:10344A00EECF02F0EECF03F020EC0EF000C0D6F281
:10345A0001C0D7F209C2D8F20AC2D9F293EC10F02D
:10346A00AFD3030E006E000E016E9CC204F09DC223
:10347A0005F0E4EC15F0150E0024E96E020E0120A9
:10348A00EA6EEECFD4F2EECFD5F2EECFD6F232EC30
:10349A0010F000C0D4F201C0D5F29CC200F09DC267
:1034AA0001F0003600900136280E0024E96E000E65
:1034BA000120EA6EEECFD6F2EECFD7F20BC2D8F2E7
:1034CA000CC2D9F293EC10F07BD3030E006E000EFF
:1034DA00016E9CC204F09DC205F0E4EC15F0150ED5
:1034EA000024E96E020E0120EA6EEECFD4F2EECF8E
:1034FA00D5F2EECFD6F232EC10F000C0D4F201C011
:10350A00D5F29CC200F09DC201F00036009001364F
:10351A00280E0024E96E000E0120EA6EEECFD6F2E4
:10352A00EECFD7F20BC2D8F20CC2D9F293EC10F05C
:10353A0047D3030E006E000E016E9CC204F09DC2BA
:10354A0005F0E4EC15F0150E0024E96E020E0120D8
:10355A00EA6EEECFD4F2EECFD5F2EECFD6F232EC5F
:10356A0010F000C0D4F201C0D5F29CC200F09DC296
:10357A0001F00036009001360036009001365A0EEE
:10358A000024E96E000E0120EA6EEECFD6F2EECFED
:10359A00D7F2EECFD8F2EECFD9F20DC2DAF20EC2DE
:1035AA00DBF2D7EC0FF00CD3030E006E000E016EA7
:1035BA009CC204F09DC205F0E4EC15F0150E00243F
:1035CA00E96E020E0120EA6EEECFD4F2EECFD5F20A
:1035DA00EECFD6F232EC10F000C0D4F201C0D5F230
:1035EA009CC200F09DC201F0003600900136003600
:1035FA00009001365A0E0024E96E000E0120EA6E90
:10360A00EECFD6F2EECFD7F2EECFD8F2EECFD9F296
:10361A000DC2DAF20EC2DBF2D7EC0FF0D1D2030EF2
:10362A00006E000E016E9CC204F09DC205F0E4EC2F
:10363A0015F0150E0024E96E020E0120EA6EEECF97
:10364A00D4F2EECFD5F2EECFD6F232EC10F000C0C3
:10365A00D4F201C0D5F29CC200F09DC201F000363E
:10366A00009001360036009001365A0E0024E96EA9
:10367A00000E0120EA6EEECFD6F2EECFD7F2EECFF1
:10368A00D8F2EECFD9F20FC2DAF210C2DBF2D7ECDF
:10369A000FF096D2D80ED46F3E0ED56F000ED66FAD
:1036AA0042EC11F000C0D2F201C0D3F2C80ED46FBE
:1036BA003E0ED56F000ED66F32EC10F000C0D4F279
:1036CA0001C0D5F236C0D6F237C0D7F2D2C2D8F28C
:1036DA00D3C2D9F293EC10F073D2A80ED46F3E0E77
:1036EA00D56F000ED66F42EC11F000C0D2F201C0C5
:1036FA00D3F24F0ED46F3F0ED56F000ED66F32EC59
:10370A0010F000C0D4F201C0D5F236C0D6F237C0EC
:10371A00D7F2D2C2D8F2D3C2D9F293EC10F0000E8B
:10372A008A1902E1010E891909E18B90896B8A6B6A
:10373A00960ED46F000ED56FC7EC15F041D2760EF7
:10374A00D46F3E0ED56F000ED66F42EC11F000C05A
:10375A00D2F201C0D3F2F70ED46F3E0ED56F000E2F
:10376A00D66F32EC10F000C0D4F201C0D5F236C0E8
:10377A00D6F237C0D7F2D2C2D8F2D3C2D9F293EC7A
:10378A0010F01ED2B80ED46F3F0ED56F000ED66F52
:10379A0042EC11F000C0D2F201C0D3F2C80ED46FCD
:1037AA003E0ED56F000ED66F32EC10F000C0D4F288
:1037BA0001C0D5F236C0D6F237C0D7F2D2C2D8F29B
:1037CA00D3C2D9F293EC10F086C000F087C001F0A2
:1037DA0088C002F089C003F020EC0EF000C0D4F2D9
:1037EA0001C0D5F2AAC000F0ABC001F0ACC002F033
:1037FA00ADC003F020EC0EF000C0D6F201C0D7F243
:10380A00A2C0D8F2A3C0D9F2A4C0DAF2A5C0DBF2F2
:10381A000CEC16F0D5D1540ED46F3E0ED56F000EB7
:10382A00D66F42EC11F000C0D2F201C0D3F2650E9D
:10383A00D46F3E0ED56F000ED66F32EC10F000C07A
:10384A00D4F201C0D5F236C0D6F237C0D7F2D2C20E
:10385A00D8F2D3C2D9F293EC10F0B2D1B80ED46F29
:10386A003E0ED56F000ED66F42EC11F000C0D2F2B8
:10387A0001C0D3F2870ED46F3E0ED56F000ED66FFD
:10388A0032EC10F000C0D4F201C0D5F236C0D6F244
:10389A0037C0D7F2D2C2D8F2D3C2D9F293EC10F021
:1038AA008FD1A80ED46F3E0ED56F000ED66F42ECA4
:1038BA0011F000C0D2F201C0D3F24F0ED46F3F0E06
:1038CA00D56F000ED66F32EC10F000C0D4F201C0F2
:1038DA00D5F236C0D6F237C0D7F2D2C2D8F2D3C2A6
:1038EA00D9F293EC10F0000E8A1902E1010E89193F
:1038FA0009E18B90896B8A6B960ED46F000ED56F97
:10390A00C7EC15F05DD1760ED46F3E0ED56F000E62
:10391A00D66F42EC11F000C0D2F201C0D3F2F70E1A
:10392A00D46F3E0ED56F000ED66F32EC10F000C089
:10393A00D4F201C0D5F236C0D6F237C0D7F2D2C21D
:10394A00D8F2D3C2D9F293EC10F03AD1B80ED46FB0
:10395A003F0ED56F000ED66F42EC11F000C0D2F2C6
:10396A0001C0D3F2870ED46F3E0ED56F000ED66F0C
:10397A0032EC10F000C0D4F201C0D5F236C0D6F253
:10398A0037C0D7F2D2C2D8F2D3C2D9F293EC10F030
:10399A008AC000F08BC001F08CC002F08DC003F029
:1039AA0020EC0EF000C0D4F201C0D5F2AEC000F097
:1039BA00AFC001F0B0C002F0B1C003F020EC0EF0CD
:1039CA0000C0D6F201C0D7F2A6C0D8F2A7C0D9F279
:1039DA00A8C0DAF2A9C0DBF20CEC16F0F1D0980E0E
:1039EA00D46F3E0ED56F000ED66F42EC11F000C0B8
:1039FA00D2F201C0D3F2650ED46F3E0ED56F000E1F
:103A0A00D66F32EC10F000C0D4F201C0D5F236C045
:103A1A00D6F237C0D7F2D2C2D8F2D3C2D9F293ECD7
:103A2A0010F0CED0000E9D1902E1000E9C19D8B4F8
:103A3A009BEF17F0000E9D1902E1010E9C19D8B4F4
:103A4A00CFEF17F0000E9D1902E1020E9C19D8B4AF
:103A5A0003EF18F0000E9D1902E1030E9C19D8B469
:103A6A003EEF18F0000E9D1902E1040E9C19D8B41D
:103A7A0072EF18F0000E9D1902E1050E9C19D8B4D8
:103A8A00A6EF18F0000E9D1902E1060E9C19D8B493
:103A9A00DAEF18F0000E9D1902E1070E9C19D8B44E
:103AAA000EEF19F0000E9D1902E1080E9C19D8B408
:103ABA0012EF19F0000E9D1902E1090E9C19D8B4F3
:103ACA0046EF19F0000E9D1902E10A0E9C19D8B4AE
:103ADA0013D4000E9D1902E10B0E9C19D8B440D4E0
:103AEA00000E9D1902E10C0E9C19D8B479D4000E6F
:103AFA009D1902E10D0E9C19D8B4B3D4000E9D197C
:103B0A0002E10E0E9C19D8B4E0D4000E9D1902E110
:103B1A000F0E9C19D8B40DD5000E9D1902E1100E96
:103B2A009C19D8B441D5000E9D1902E1110E9C19B9
:103B3A00D8B475D5000E9D1902E1120E9C19D8B49D
:103B4A00A9D5000E9D1902E1130E9C19D8B4C5D54A
:103B5A00000E9D1902E1140E9C19D8B4F0D5000E7E
:103B6A009D1902E1150E9C19D8B40CD6000E9D19A8
:103B7A0002E1160E9C19D8B44ED6000E9D1902E128
:103B8A00170E9C19D8B46AD6000E9D1902E1180EB8
:103B9A009C19D8B486D6000E9D1902E1190E9C19FB
:103BAA00D8B4B1D6000E9D1902E11A0E9C19D8B4E8
:103BBA00CDD6000E9D1902E11B0E9C19D8B40FD761
:063BCA007FEF17F0FFD7AA
:103FE00010EE28F05A0E006E030E016ED00EF66E23
:0E3FF0003B0EF76E000EF86EB5EC0BF01200F3
:0100060000F9
:103BD000DC00060000001D001D000B00240000009A
:103BE00000000000000000000000000000000000D5
:083BF0000000000000000000CD
:0A3BF800436F6D707574696E67000D
:103C020000000000000000000000408000000000F2
:103C120000000000000000000000000000000000A2
:103C22000000000000000000000000000000000092
:103C32000000000000000000000000000000000082
:103C42000000000000000000000000000000000072
:103C520000000083D7A3507F508D177952B82E8170
:103C6200000008838FC2357F1EA768788FC2058146
:103C720000001083F6281C7FC3642A78E17A44800E
:103C8200000018835C8F027FA3E96C77EC510880F7
:103C920000002083E7FB697E3E054077A4705D7FCC
:103CA20000002883C520507E41B71777295C2F7FFB
:103CB200000030831904367E58FF67766666067FF9
:103CC20000003883F6281C7EC3642A76A69B447EB5
:103CD20000004083A01A0F7E1A860F76B81E257E3A
:103CE200000048834A0C027E863D6D75B072087EE4
:103CF20000005083E7FB697D795D3F751B2F5D7D79
:103D0200000058830681557D68E81F75D9CE377D3E
:103D1200000060831283407DE3C201750681157D38
:103D220000006883D7A3307D03275B7491ED7C7C10
:103D320000007083AE47217DA930367485EB517C3B
:103D4200000078833D0A177D30621F74C74B377CB1
:103D520000000084BA490C7DB893087477BE1F7CBA
:103D6200000004844A0C027D6AFA6C732731087CD5
:103D720000000884B29D6F7C64CD48738B6C677BB6
:013D8200FF41
:063D8300456E746572003C
:103D89002057696E64696E67204D616368696E6565
:013D99000029
:103D9A005472616E73666F726D657220436F696CDF
:013DAA000018
:103DAB0072026D027E027802690261025A02660299
:023DBB0065029F
:103DBD00A23F005B3F00673F00973F007F3F00152C
:103DCD003F00063F00060000CD3F00AD3F00C33F62
:103DDD0000243F00E83E00333F00413F00733F00A9
:063DED008B3F00D73F00F0
:0F3DF30053706563696669636174696F6E73000D
:073E020073712E6D6D2E009F
:043E09006B672E00B5
:013E0D0000B4
:033E0E005641001A
:043E110041574700CE
:053E1500616D707300F7
:063E1A00766F6C7473006A
:063E200074696D6573007A
:043E26006D6D2E0090
:013E2A000097
:013E2B000096
:103E2C00010000000A00000064000000E80300002C
:103E3C0010270000A086010040420F0080969800D9
:083E4C0000E1F50500CA9A3BF4
:103E540050726573734F6B746F50726F63656564F2
:013E6400005D
:103E650057696E64696E6746696E69736865642132
:013E7500004C
:103E7600202020202020202020202020202020203C
:013E8600003B
:103E87005365636F6E642057696E64696E673A2085
:013E9700002A
:103E980050726573734F6B546F52657475726E0010
:103EA800466F7220537461727420506F696E74008B
:103EB800496E7365727420326E64205769726500AA
:103EC80046697273742057696E64696E673A200098
:103ED800496E736572742031737420576972650076
:0F3EE8004E6F4F665475726E7328326E642900E8
:0F3EF70053746172742057696E64696E673F007F
:0F3F060057696E64696E67204C656E677468005A
:0F3F150057696E64696E67204865696768740054
:0F3F24004E6F4F665475726E7328317374290097
:0E3F33005769726553697A65283173742900E5
:0E3F41005769726553697A6528326E642900EB
:0C3F4F0041646A757374204B6E6F620051
:0C3F5B00566F6C74616765204F75740030
:0C3F670043757272656E74204F75740013
:0C3F730057656967687457697265310012
:0C3F7F00436F7265204865696768740034
:0C3F8B00576569676874576972653200F9
:0B3F9700436F72652057696474680076
:0B3FA200566F6C7461676520496E006B
:0B3FAD0043757272656E7420496E004F
:0B3FB8005475726E204E6F3A202000FE
:0A3FC300506572696D657465720047
:0A3FCD00506F7765722856412900F5
:083FD70041697220476170008E
:020000040030CA
:0E000000000C1F1EFF8381FF0FC00FE00F409A
:00000001FF
