:0400000094EF16F073
:1000080000C023F001C022F002C021F003C020F09C
:1000180004C01FF005C01EF006C01DF007C01CF08C
:1000280008C01BF009C01AF00AC019F00BC018F07C
:100038000CC017F00DC016F00EC015F0E1CF26F079
:10004800E2CF27F0E9CF24F0EACF25F0F2A246D09C
:10005800000E02019B1902E1010E9A193FE1810E7F
:1000680003016C6F0F0E6D6F6E6B960E6F6F010E46
:10007800706F49EC10F0005231E0010E0201925FFE
:10008800000E935B0FD0060E926F000E936F1CD07C
:10009800120E926F000E936F17D0170E926F000E0C
:1000A800936F12D0000E931902E1070E9219EBE03C
:1000B800000E931902E1150E9219EAE0000E931949
:1000C80002E11A0E9219E9E0000E006E9351005CED
:1000D80002E19251000802E3926B936BF292F0A056
:1000E8002DD00201000E9B1902E1010E9A1926E19A
:1000F800810E03016C6F0F0E6D6F010E6E6F960E01
:100108006F6F010E706F49EC10F0005217E002019A
:10011800924B932BC751935D02E1C651925D02E366
:10012800926B936B000E935D02E1070E925D06E3FE
:1001380082BA04D0170E926F000E936FF090F0A25F
:1001480023D00201000E991902E1010E98191CE151
:10015800000E9B1902E1000E9A1916E1810E0301A7
:100168006C6F0F0E6D6F020E6E6F020E6F6F010EC9
:10017800706F49EC10F0005207E00201964B972B84
:10018800010E786F000E796FF092F2A00ED0020186
:10019800000E9B1902E1010E9A1907E1000E935D0A
:1001A80002E1070E925D01E20ED00201000E9319E2
:1001B80002E1130E921907E0000E931902E1180EDE
:1001C800921901E0B7D1026A81BA022A02C000F08E
:1001D80000360090000E81B8010E9C6F00509C13F1
:1001E8000101EC51FF0AD8B4A3D1EC51000A05E192
:1001F80002019C51010A01E11CD00101EC51010AE4
:1002080005E102019C51030A01E113D00101EC51FF
:10021800030A05E102019C51020A01E10AD0010129
:10022800EC51020A05E102019C51000A01E101D0EA
:100238008DD00201000E931902E1020E921940E1DD
:1002480092C200F093C201F00036009001360036E9
:10025800009001365A0E002403016A6F000E012037
:100268006B6F92C200F093C201F000360090013625
:100278000036009001365A0E0024E96E000E012067
:10028800EA6EEECF00F0EECF01F0EECF02F0EECF47
:1002980003F0DA0E046ECC0E056E4C0E066E7B0E65
:1002A800076E92EC09F06AC3E1FF6BC3E2FF00C07E
:1002B800E6FF01C0E6FF02C0E6FF03C0E6FF31D05B
:1002C800000E0201931902E1020E92192AE0000EB3
:1002D800935D02E1160E925D24E292C200F093C291
:1002E80001F0003600900136280E0024E16E000E61
:1002F8000120E26E92C200F093C201F00036009035
:100308000136280E0024E96E000E0120EA6E010E67
:10031800EE24006E000EEE20016E00C0E6FF01C064
:10032800E6FF0201000E931902E1130E921907E08D
:10033800000E931902E1180E921901E006D082B45A
:100348008B94010E786F000E796FF2D00101EC5199
:10035800000A05E102019C51020A01E10AD00101EB
:10036800EC51010A05E102019C51000A01E101D0AA
:10037800DFD00201000E931902E1020E921977E113
:1003880092C200F093C201F00036009001360036A8
:10039800009001365A0E002403016A6F000E0120F6
:1003A8006B6F92C200F093C201F0003600900136E4
:1003B8000036009001365A0E0024E96E000E012026
:1003C800EA6EEECF00F0EECF01F0EECF02F0EECF06
:1003D80003F0DA0E046ECC0E056E4C0E066E7B0E24
:1003E800076E99EC0EF06AC3E1FF6BC3E2FF00C031
:1003F800E6FF01C0E6FF02C0E6FF03C0E6FF92C2C7
:1004080000F093C201F000360090013600360090EB
:1004180001365A0E0024E96E000E0120EA6EEECF76
:1004280000F0EECF01F0EECF02F0EECF03F0046A59
:10043800056A066A076A69DA010ED8B0000E006E0E
:10044800005214E092C200F093C201F0003600900E
:1004580001360036009001365A0E0024E16E000E77
:100468000120E26EE66AE66AE66AE66A24D092C28B
:1004780000F093C201F0003600900136280E0024E7
:10048800E16E000E0120E26E92C200F093C201F00C
:10049800003600900136280E0024E96E000E012077
:1004A800EA6E010EEE5C006E000EEE58016E00C0A2
:1004B800E6FF01C0E6FF92C200F093C201F00036E9
:1004C80000900136280E0024E96E000E0120EA6E25
:1004D800EECF01F0EECF02F0800E0218006E800E13
:1004E800005C02E1000E015C0FE292C200F093C2D0
:1004F80001F0003600900136280E0024E16E000E4F
:100508000120E26EE66AE66A000E0201931902E132
:10051800130E921907E0000E931902E1180E9219B2
:1005280001E006D082A48B84010E786F000E796FEB
:100538009CC2ECF1F29023C000F022C001F021C06F
:1005480002F020C003F01FC004F01EC005F01DC05B
:1005580006F01CC007F01BC008F01AC009F019C04B
:100568000AF018C00BF017C00CF016C00DF015C03B
:100578000EF024C0E9FF25C0EAFF26C0E1FF27C02E
:04058800E2FF11007D
:10058C00120E0C6EDA0E0D6E0D2EFED70C2EFCD745
:04059C000000120049
:0605A00000000000120043
:0C05A600290E0D6E0D2EFED70000120075
:0805B2000AAE029E000E1200C9
:0E05BA00026A016A006A086A036A000E1200F3
:1005C8000B840BAEEFEF02F0010E036E026A016AB4
:0A05D800006A0A360232FF0E12001C
:1005E2000B820BAEFBEF02F0036802680168006841
:0805F2000A360232FF0E12006E
:0805FA000B6A0B86FF0E1200D4
:10060200030169BF02D0899A01D0898A69BD02D0EB
:10061200899801D0898869BB02D0899601D08986E0
:1006220069B902D0899401D0898402019DB102D0B6
:10063200898001D089908982B2DF8992030169B7EA
:1006420002D0899A01D0898A69B502D0899801D0ED
:10065200898869B302D0899601D0898669B102D0AE
:10066200899401D0898402019DB102D0898001D090
:100672008990898294DF89929DA102D086DF01D080
:0406820091DF1200F2
:100686000B800BAE4FEF03F0026A0AAEFF0E026E4E
:0C069600016E006E0A360232FF0E1200E8
:1006A2000134083609360450085E0550D8A0053CCE
:1006B200095E003601360F0E0C6E0134083609361B
:1006C200045000A006D0085E0550D8A0053C095E83
:1006D20005D008260550D8B0053C0926003601365B
:1006E2000C2EEBD700B006D0045008260550D8B027
:0806F200053C0926000012007E
:1006FA000CB0BFEF03F00CA265EF04F00E6A000E17
:10070A000264D6EF03F0F00E0214D8A4A1EF03F0AE
:10071A00023A01380F0B02260138F00B016E00383D
:10072A000F0B01260038F00B006E08380F0B00265D
:10073A000838F00B086E0E84D89002BEBAEF03F0A8
:10074A0008360036013602360E2A02BEBAEF03F028
:10075A0008360036013602360E2A02BEBAEF03F018
:10076A0008360036013602360E2A0E5003645BEF55
:10077A0004F0035E0BBC08AE60EF04F0D880800E74
:10078A0008640030000E002201220222D8A060EF85
:10079A0004F0023201320032034A65EF04F060EFDE
:1007AA0004F001C002F000C001F008C000F0086ABD
:1007BA00000E0E8602640DEF04F0F00E0214D8A4A7
:1007CA00F5EF03F0023A01380F0B02260138F00B5D
:1007DA00016E00380F0B01260038F00B006E0E84F4
:1007EA00D89002BEBAEF03F00036013602360E2A5E
:1007FA0002BEBAEF03F00036013602360E2A02BEF6
:10080A00BAEF03F00036013602360E2ABAEF03F0C9
:10081A0001C002F000C001F0006A000E0E960E88B8
:10082A0002643AEF04F0F00E0214D8A425EF04F0A3
:10083A00023A01380F0B02260138F00B016E0E84C2
:10084A00D89002BEBAEF03F0013602360E2A02BE73
:10085A00BAEF03F0013602360E2A02BEBAEF03F0EF
:10086A00013602360E2ABAEF03F001C002F0016A1D
:10087A00000E0E8602646AEF04F0F00E0214D8A489
:10088A0049EF04F0023A0E84D89002BEBAEF03F0A0
:10089A0002360E2A02BEBAEF03F002360E2A02BE52
:1008AA00BAEF03F002360E2ABAEF03F0010E0C6E0D
:1008BA0086DE6DEF04F0020E0C6E76DE6DEF04F04C
:1008CA00040E0C6E89DE6DEF04F0080E0C6E70DEFD
:0208DA0012000A
:1008DC00086A096A100E0C6E013408360936045089
:1008EC00085E0550D8A0053C095ED8B007D004506E
:1008FC0008260550D8B0053C0926D890003601369C
:06090C000C2EEAD71200D8
:100912000A6A0350D8A40A800750D8A40A820A504F
:10092200D8B4ECEF04F0030AD8B4A5EF04F00AB08F
:10093200A0EF04F006AEEAEF04F0E8EF04F002AE36
:10094200E8EF04F0EAEF04F00250800B0A6E029E18
:100952000650800B069E0A18D8B4B6EF04F00A506F
:10096200D8B4E8EF04F0EAEF04F00750035CD8B41F
:10097200C0EF04F0D8A0DCEF04F0E2EF04F0065080
:10098200025CD8B4CAEF04F0D8A0DCEF04F0E2EFC6
:1009920004F00550015CD8B4D4EF04F0D8A0DCEF29
:1009A20004F0E2EF04F00450005CD8B4ECEF04F081
:1009B200D8B0E2EF04F00A52D8B4EAEF04F0E8EF5C
:1009C20004F00A52D8B4E8EF04F0EAEF04F0D88059
:0E09D2001200D8901200D880D88412001200B3
:1009E000610E046E030E056E030E0424E96E000E04
:1009F0000520EA6E7E0EEE5C006E016A000E015A62
:100A000065C3E1FF66C3E2FF00C0E6FF01C0E6FF89
:100A1000030E0424E16E000E0520E26E7E0EE66EEB
:100A200061C300F062C301F063C302F064C303F06A
:020A30001200B2
:100A3200610E0301676F030E686F030E6725D96E9F
:100A4200000E6821DA6EDE506525016E000E662109
:100A5200026E01C065F302C066F3800E0218006EDA
:100A6200800E005C02E1000E015C05E2006A016A90
:100A7200026A036A3ED0800E006E800E6619005C28
:100A820002E16551FF0825E2046A056A066A076AFF
:100A920061C300F062C301F063C302F064C303F0F8
:100AA20037DF010ED8B0000E006E005209E0FF0ED3
:100AB200006EFF0E016EFF0E026EFF0E036E19D066
:100AC200FF0E006EFF0E016E7F0E026EFF0E036EB2
:100AD20010D0030E6725E16E000E6821E26E65C339
:100AE200E6FF61C300F062C301F063C302F064C3B6
:040AF20003F01200FB
:100AF600086A096A000E0762036400EF06F00250F6
:100B060006180A6E075003267E0ED8A091EF05F050
:100B1600035ED8B004EF06F095EF05F0035ED8A0AB
:100B260008EF06F0028E068E02C00EF001C00BF032
:100B360000C00DF000500402F4CF0CF00150050285
:100B4600F4CF00F0F3CF08F00402F3500C26F45073
:100B56000822000E00220D500502F3500C26F45018
:100B66000822000E002202500402F3500826F45018
:100B7600002202500502016A000E0122F3500026EF
:100B8600F45001220D500602F3500826F4500022BC
:100B9600026A000E012202220B500602F3500026C2
:100BA600F4500122000E02220E500602F3500126D6
:100BB600F450022202BEE8EF05F008360036013690
:100BC60002360306D8B408EF06F0FBEF05F0D8802E
:100BD600800E08640030000E002201220222D8A0F6
:100BE600FBEF05F0023201320032034A04EF06F051
:100BF6000AAE029E000E0AEF06F0010EDBDC0AEFDB
:100C060006F0020EEBDC0AEF06F0040EDADC120048
:100C16000B6A0A6A096A086A0E6A033408360450BF
:100C2600085E0550D8A0053C095E0650D8A0063CD3
:100C36000A5E0750D8A0073C0B5EE86AD8A0010EF2
:100C46000E5E0336070E0C6E0334083609360A3676
:100C56000B360E36045003A012D0085E0550D8A0FD
:100C6600053C095E0650D8A0063C0A5E0750D8A08F
:100C7600073C0B5EE86AD8A0010E0E5E11D008266E
:100C86000550D8B0053C09260650D8B0063C0A26C1
:100C96000750D8B0073C0B26E86AD8B0010E0E26DE
:100CA60003360C2ED1D70234083609360A360B36EF
:100CB6000E36045003A012D0085E0550D8A0053C9D
:100CC600095E0650D8A0063C0A5E0750D8A0073C2D
:100CD6000B5EE86AD8A0010E0E5E11D008260550FC
:100CE600D8B0053C09260650D8B0063C0A2607505F
:100CF600D8B0073C0B26E86AD8B0010E0E2602369D
:100D0600070E0C6E0234083609360A360B360E36D6
:100D1600045002A012D0085E0550D8A0053C095E1A
:100D26000650D8A0063C0A5E0750D8A0073C0B5ECA
:100D3600E86AD8A0010E0E5E11D008260550D8B07C
:100D4600053C09260650D8B0063C0A260750D8B0FE
:100D5600073C0B26E86AD8B0010E0E2602360C2E8A
:100D6600D1D70134083609360A360B360E3604500A
:100D760002A012D0085E0550D8A0053C095E0650B8
:100D8600D8A0063C0A5E0750D8A0073C0B5EE86A6E
:100D9600D8A0010E0E5E11D008260550D8B0053C2D
:100DA60009260650D8B0063C0A260750D8B0073C9C
:100DB6000B26E86AD8B0010E0E260136070E0C6E19
:100DC6000134083609360A360B360E36045001A0B1
:100DD60012D0085E0550D8A0053C095E0650D8A082
:100DE600063C0A5E0750D8A0073C0B5EE86AD8A00E
:100DF600010E0E5E11D008260550D8B0053C092616
:100E06000650D8B0063C0A260750D8B0073C0B2639
:100E1600E86AD8B0010E0E2601360C2ED1D7003462
:100E2600083609360A360B360E36045001A012D0A3
:100E3600085E0550D8A0053C095E0650D8A0063CC1
:100E46000A5E0750D8A0073C0B5EE86AD8A0010EE0
:100E56000E5E11D008260550D8B0053C092606506E
:100E6600D8B0063C0A260750D8B0073C0B26E86ADD
:100E7600D8B0010E0E260036070E0C6E003408366A
:100E860009360A360B360E36045000A012D0085E1C
:100E96000550D8A0053C095E0650D8A0063C0A5E5F
:100EA6000750D8A0073C0B5EE86AD8A0010E0E5E7C
:100EB60011D008260550D8B0053C09260650D8B0F2
:100EC600063C0A260750D8B0073C0B26E86AD8B07D
:100ED600010E0E2600360C2ED1D700B00ED00450CF
:100EE60008260550D8B0053C09260650D8B0063C61
:0C0EF6000A260750D8B0073C0B2612005B
:100F02000B6A0C6A0A6A086A0350D8B409EF08F03F
:100F1200028E9E0E035E03BE94EF07F0D8B494EFE8
:100F220007F0F9EF07F0036C080E035CD8A0C6EFD8
:100F320007F0036E083600C008F001C000F002C0DE
:100F420001F0026A080E035CD8A0C6EF07F0036E38
:100F5200083600C008F001C000F0016A080E035C08
:100F6200D8A0C6EF07F0036E083600C008F0006A8A
:100F7200080E035CD8A0C6EF07F0036E0836086AB5
:100F82000350D8A4D890D2EF07F00350D8B4D2EFD0
:100F920007F0D8900232013200320832032ECAEF33
:100FA20007F00BBC08A0E3EF07F0D8A0E3EF07F0CF
:100FB200082AD8B4002AD8B4012AD8B4022A02BE18
:100FC2000DEF08F00AAE09EF08F0021E011E001E26
:100FD200081E082AD8B4002AD8B4012AD8B4022A92
:100FE20009EF08F0026A016A006A086A09EF08F06C
:100FF2000B800BAE13EF08F0026A0AAE13EF08F093
:10100200026E016E006E086E0A36023213EF08F0AD
:10101200000E0C6A14EF08F0010E0C6E43EC03F0A4
:1010220014EF08F0FF0E0250036E0150026E0050E2
:08103200016E0850006E12006F
:10103A000450000A12E10550000A0FE10650000AA6
:10104A000CE10750000A09E1FF0E006EFF0E016E67
:10105A007F0E026EFF0E036EA8D0086A096A075057
:10106A00D8B4C8EF08F00350D8B4CDEF08F0025056
:10107A0006180A6E028E068E0E6A02C008F001C0B9
:10108A000CF000C00DF004500D5E0550D8A0053CD0
:10109A000C5E0650D8A0063C085E086A0C6A0D6A07
:1010AA00D8A05FEF08F0D89002320132003208323D
:1010BA00010E0E6E0750035ED8A06CEF08F07E0E8C
:1010CA000E240326D8B0D2EF08F072EF08F07E0E95
:1010DA000E240326D8A0D7EF08F0180E0B6E0D3693
:1010EA000C3608360036013602360E360450005EDB
:1010FA000550D8A0053C015E0650D8A0063C025E09
:10110A0006340E120EA08DEF08F00D8098EF08F04D
:10111A00045000260550D8B0053C01260650D8B028
:10112A00062802260D900B2E74EF08F0BEEF08F089
:10113A00D8900036013602360E360450005E05504D
:10114A00D8A0053C015E0650D8A0063C025E0634D3
:10115A000E10010B0D26D8B00C2AD8B4082AD8A430
:10116A00BEEF08F008320C320D32032AD8B4D2EF9F
:10117A0008F00AAE089E0850026E0C50016E0D501F
:10118A00006EDAEF08F0010EFDEC02F0DAEF08F07B
:10119A00020EDDEC02F0DAEF08F0040EF1EC02F0D8
:0C11AA00DAEF08F0080EE4EC02F012008E
:1011B6000450000A08E10550000A05E1FF0E006E22
:1011C6007F0E016E58D00D6A096A086A0150001038
:1011D600D8B4000C015005180A6E0ABE0D1E0B6A23
:1011E60005AE05D0041E051E042AD8B4052A01AE94
:1011F60005D0001E011E002AD8B4012A0150051090
:101206000A6E0ABE10D051EC03F00BB020D00DAE22
:10121600000C001E011E002AD8B4012A081E091E51
:10122600082AD8B4092A000C05AE0DD001BE07D095
:101236000150096E0050086E016A006AE8D7016A1B
:10124600006A002A000C011E001E0B2ADDD7082AA0
:10125600D8B4092A0450085CD8A4D9D70550095C2B
:10126600D8A4D5D7096A086A002AD8B4012A01AEDB
:08127600CED70000FF0C1200AE
:10127E0003500718D8A453EF09F002500618D8A44B
:10128E0053EF09F001500518D8A453EF09F00050A0
:0E129E000418D8B4D8841200D894120012009C
:1012AC000C6A0E6A0250D8A46FEF09F001C002F06C
:1012BC0000C001F0006A0E860250D8A46FEF09F04E
:1012CC0001C002F0016A0E960E880250D8B481EF6C
:1012DC0009F00E50035ED8A4D8A087EF09F0D8907F
:1012EC0002BE8DEF09F0003601360236032E76EF82
:1012FC0009F087EF09F0010E0C6EDDEC02F091EFB6
:10130C0009F0020E0C6EE4EC02F091EF09F0040E01
:08131C000C6ED9EC02F0120086
:10132400025006180E6E086A096A0B6A03500764B5
:1013340085EF0AF006500A6E068E028E03500B6E7D
:101344000750036E000E0B64D5EF09F00B50075ED7
:10135400D8B476EF0AF0070E076444EF0AF0075E8C
:1013640000C008F001C000F002C001F0026A074E9C
:1013740076EF0AF0076419EF0AF0075E00C008F080
:1013840001C000F0016A074E76EF0AF00764F7EF38
:1013940009F0075E00C008F0006A074E76EF0AF015
:1013A4000764DEEF09F00AC002F005C001F004C0D2
:1013B40000F0086AA2EF0BF0030E0764E9EF09F0EE
:1013C400075E08380F0B086E074E76EF0AF0D890C8
:1013D4000832074E76EF0AF0D8900832074E76EFBF
:1013E4000AF0D890083276EF0AF0030E076408EF8B
:1013F4000AF0075E08380F0B086E0038F00B082659
:1014040000380F0B006E074E76EF0AF0D8900032CA
:101414000832074E76EF0AF0D89000320832074EB1
:1014240076EF0AF0D8900032083276EF0AF0030E15
:10143400076430EF0AF0075E08380F0B086E0038B7
:10144400F00B082600380F0B006E0138F00B002655
:1014540001380F0B016E074E76EF0AF0D890013277
:1014640000320832074E76EF0AF0D890013200328B
:101474000832074E76EF0AF0D89001320032083273
:1014840076EF0AF0030E076461EF0AF0075E08388E
:101494000F0B086E0038F00B082600380F0B006E97
:1014A4000138F00B002601380F0B016E0238F00BE7
:1014B400012602380F0B026E074E76EF0AF0D89021
:1014C4000232013200320832074E76EF0AF0D89029
:1014D4000232013200320832074E76EF0AF0D89019
:1014E4000232013200320832096A000E0EAE6AEF8F
:1014F4000BF0081E001E011E021E082A00220122F3
:1015040002226AEF0BF00750D8A48BEF0AF0A2EF87
:101514000BF0096A02C00AF0028E068E0750035CC3
:10152400076ED8B45DEF0BF0070E07642BEF0BF0DA
:10153400075E0450096E0550046E0650056E066A77
:10154400074E5DEF0BF0070E076400EF0BF0075E2C
:101554000450096E0550046E056A074E5DEF0BF0EA
:10156400070E0764DEEF0AF0075E0450096E046A92
:10157400074E5DEF0BF0070E0764C5EF0AF00AC0D3
:1015840002F0A2EF0BF0030E0764D0EF0AF0075E3F
:1015940009380F0B096E074E5DEF0BF0D890093236
:1015A400074E5DEF0BF0D8900932074E5DEF0BF05C
:1015B400D89009325DEF0BF0030E0764EFEF0AF0E9
:1015C400075E09380F0B096E0438F00B092604383E
:1015D4000F0B046E074E5DEF0BF0D8900432093206
:1015E400074E5DEF0BF0D89004320932074E5DEFE1
:1015F4000BF0D890043209325DEF0BF0030E076450
:1016040017EF0BF0075E09380F0B096E0438F00B67
:10161400092604380F0B046E0538F00B0426053830
:101624000F0B056E074E5DEF0BF0D89005320432B8
:101634000932074E5DEF0BF0D890053204320932BF
:10164400074E5DEF0BF0D8900532043209325DEF9E
:101654000BF0030E076448EF0BF0075E09380F0B1D
:10166400096E0438F00B092604380F0B046E053894
:10167400F00B042605380F0B056E0638F00B052613
:1016840006380F0B066E074E5DEF0BF0D89006324E
:10169400053204320932074E5DEF0BF0D890063262
:1016A400053204320932074E5DEF0BF0D890063252
:1016B400053204320932086A000E0EAE6AEF0BF0EE
:1016C400091E041E051E061E092A042205220622DE
:1016D4000950082604500022055001220650022217
:1016E4000EBE81EF0BF0D8A090EF0BF00232013266
:1016F40000320832033E90EF0BF09CEF0BF0D8B0B1
:1017040096EF0BF0000E081E001E011E021E082A92
:101714000022012202220A7E96EF0BF0010E0C6ECB
:101724007DEC03F0A4EF0BF0020E0C6E7DEC03F0E5
:10173400A4EF0BF0040E0C6EF1EC02F0A4EF0BF02E
:06174400000E0C6E120005
:10174A000900F5CFE6FF0006FBE10106F9E1120008
:10175A000301656B050E655D0AE265516325E16E5D
:10176A00000E6421E26E200EE66E652BF3D76551FA
:10177A006325E16E000E6421E26EE66A6507655133
:10178A006325666F000E6421676F0A0E046E000EF1
:10179A00056E61C300F062C301F06EEC04F008C08C
:1017AA0000F009C001F0300E002666C3E1FF67C3EE
:1017BA00E2FF00C0E6FF0A0E046E000E056E61C36A
:1017CA0000F062C301F06EEC04F000C061F301C0E6
:1017DA0062F3000E011802E1000E001801E102D0C6
:0617EA006507CDD71200D7
:1017F00002019D9161C369F301EC03F09D81120028
:101800000050086E0150006E0250016E0350026ECF
:10181000036A0B6A0C6A9E0E036E0A6A020E0C6E55
:061820007DEC03F0120054
:1018260003010007000700C301F00007015000088C
:1018360003E200000000F7D70000000000000000EF
:04184600000012008C
:10184A0003012F6B306B29C331F32AC332F3800EA5
:10185A002A19006E800E005C02E1000E295D0BE27F
:10186A00010E2F6F000E306F29510008316F2AC305
:10187A0032F3000E325731C361F332C362F32BC322
:10188A0063F32CC364F364DF060E2D6F000E2E6F14
:10189A00000E006E2E51005C02E12D51000819E283
:1018AA002D512B25E16E2E512C21E26E010E2D5D5C
:1018BA00006E000E2E59016E00502B25E96E015064
:1018CA002C21EA6EEECFE6FF010E2D5F000E2E5B95
:1018DA00DFD72BC3E1FF2CC3E2FF200EE66E2F51A8
:1018EA0030111AE02D6B2E6B2D512B25E96E2E51DE
:1018FA002C21EA6EEE50200A03E12D4B2E2BF4D751
:10190A00010E2D5F000E2E5B2D512B25E16E2E51FF
:0A191A002C21E26E2D0EE66E120085
:101924000201946B956B800E03012A19006E800EE0
:1019340002019519005C03E194510301295D0EE352
:101944008B82530E0D6E0D2EFED78B92530E0D6EA1
:0E1954000D2EFED70201944B952BE5D7120005
:10196200020E0C6E9C0E0D6E0D2EFED70C2EFCD7A9
:061972000000000012005D
:1019780010D0800E0301296F1AD0C00E296F17D01E
:10198800940E296F14D0D40E296F11D0800E296FB0
:101998000ED003012951010AECE02951020AEDE0B9
:1019A8002951030AEDE02951040AEDE0EFD72A0591
:1019B800006E2951002600C029F300C069F301EC2C
:1019C80003F09D910301006B00512B25E96E000E79
:1019D8002C21EA6EEE520CE000512B25E96E000E28
:1019E8002C21EA6EEECF61F3FFDE0301002BECD76A
:0619F80002019D811200B6
:1019FE000301306B316B2FC35EF3840EF66E3D0E1A
:101A0E00F76E000EF86E320EE16E030EE26E280EC9
:101A1E00006E010E016E92DE2FC300F0000E016EFD
:101A2E00003600900136003600900136320E00244A
:101A3E005F6F030E0120606F5FC3E9FF60C3EAFFB3
:101A4E00EECF00F0EECF01F0EECF02F0EECF03F0CE
:101A5E00D0DE29C304F02AC305F02BC306F02CC335
:101A6E0007F07BEC05F081EC07F000C05AF301C0E3
:101A7E005BF302C05CF303C05DF35FC3E9FF60C3B9
:101A8E00EAFFEECF05F0EECF06F0EECF07F0EECF89
:101A9E0008F00850035C08E10750025C05E10650AF
:101AAE00015C02E10550005C02E2010E316F000E96
:101ABE0030BFFF0E006E000E001802E12F513019DC
:101ACE000CE130512D25E16E000E30BFFF0E2E21A0
:101ADE00E26E2E0EE66E302B41D030512D255F6F0B
:101AEE00000E30BFFF0E2E21606F0A0E046E000E28
:101AFE00056E066E076E5AC300F05BC301F05CC341
:101B0E0002F05DC303F00BEC06F008C000F009C054
:101B1E0001F00AC002F00BC003F0300E00265FC3C6
:101B2E00E1FF60C3E2FF00C0E6FF302B0A0E046E39
:101B3E00000E056E066E076E5AC300F05BC301F011
:101B4E005CC302F05DC303F00BEC06F000C05AF369
:101B5E0001C05BF302C05CF303C05DF35EC301F032
:101B6E005E07800E000A006E800E0118005C9FE377
:101B7E005A515B115C115D119AE131530BE03051FA
:101B8E002D25E16E000E30BFFF0E2E21E26E300EBF
:101B9E00E66E302B30512D25E16E000E30BFFF0E5C
:101BAE002E21E26EE66A3005006F306B800E301922
:101BBE00006E800E0019005C29E230512D25006E5A
:101BCE00000E30BFFF0E2E21016E00C0E9FF01C0D6
:101BDE00EAFFEECF31F300512D25E96E000E00BF66
:101BEE00FF0E2E21EA6E00C0E1FF01C0E2FFEECF34
:101BFE00E6FF00512D25E16E000E00BFFF0E2E21D7
:0E1C0E00E26E31C3E6FF302B0007D0D7120084
:101C1C000B6A0350D8B454EF0EF002500A6E028EC9
:101C2C008E0E035E03AE58EF0EF0036C080E035CD1
:101C3C00D8A033EF0EF0036E013602C001F0026A39
:101C4C00080E035CD8A033EF0EF0036E0136016A68
:101C5C000350D8A4D8903DEF0EF00350D8B43DEF0C
:101C6C000EF0D89002320132032E37EF0EF00BBC7F
:101C7C0001A04AEF0EF0D8A04AEF0EF0012AD8B41A
:101C8C00022A02BE67EF0EF00AAE6DEF0EF0021ED6
:101C9C00011E012AD8B4022A6DEF0EF0026A016A05
:101CAC006DEF0EF00B800BAE71EF0EF0026A0AAE08
:101CBC0071EF0EF0FF0E026E016E0A36023271EFFA
:101CCC000EF0010E0C6E43EC03F073EF0EF0000EF1
:101CDC000C6E73EF0EF0FF0E0C6E0150006E025086
:041CEC00016E120073
:101CF00000C008F00150006E016A026A036A0B6AB4
:101D00000C6A016A026A036A960E036E0A6A00AEE2
:101D100090EF0EF0081E001E082AD8B4002A0A8E82
:101D200000C001F008C000F0086A026A56EC09F031
:021D300012009F
:081D3200067E92EC09F012009C
:101D3A000050086E0150006E016A026A036A0B6A5B
:101D4A000C6A960E036E0A6A00C001F008C000F021
:0A1D5A00086A026A56EC09F0120054
:101D640029C304F02AC305F02BC306F02CC307F0E3
:101D7400006A016A026A036A89EC04F0000ED8B0B2
:101D8400010E006E005205E0006A016A026A036AED
:101D9400F9D029C32DF32AC32EF32BC32FF32CC35D
:101DA40030F3000E046E000E056E000E066E7F0EFC
:101DB400076E29C300F02AC301F02BC302F02CC321
:101DC40003F089EC04F0010ED8B0000E006E00524E
:101DD4001AE02DC304F02EC305F02FC306F030C360
:101DE40007F0000E006E000E016E000E026E7F0EF4
:101DF400036E1DEC08F000C02DF301C02EF302C0E9
:101E04002FF303C030F32DC361F32EC362F32FC34A
:101E140063F330C364F3350E0301656F030E666F1D
:101E2400F0EC04F000C02DF301C02EF302C02FF338
:101E340003C030F300C061F301C062F302C063F376
:101E440003C064F3020E046E000E056E35C300F089
:101E540036C301F0DBEC08F000C065F301C066F3A3
:101E640019EC05F000C02DF301C02EF302C02FF3CE
:101E740003C030F3000E046E000E056E000E066EF5
:101E84007F0E076E29C300F02AC301F02BC302F0B2
:101E94002CC303F089EC04F0010ED8B0000E006EE0
:101EA40000521AE02DC304F02EC305F02FC306F030
:101EB40030C307F0000E006E000E016E000E026EBD
:101EC4007F0E036E1DEC08F000C02DF301C02EF34D
:101ED40002C02FF303C030F3140E0301006F2DC3AF
:101EE40004F02EC305F02FC306F030C307F029C356
:101EF40000F02AC301F02BC302F02CC303F01DEC45
:101F040008F02DC304F02EC305F02FC306F030C330
:101F140007F092EC09F0000E046E000E056E000E40
:101F2400066E800E076E1DEC08F000C031F301C090
:101F340032F302C033F303C034F32DC304F02EC3D1
:101F440005F02FC306F030C307F03FEC09F0010E93
:101F5400D8A4000E006E005201E00CD031C32DF362
:101F640032C32EF333C32FF334C330F3030100071A
:101F74000053B5E12DC300F02EC301F02FC302F0CE
:061F840030C303F012005F
:101F8A00000E006E02019351005C02E192510708B3
:101F9A0011E3CCC229F3CDC22AF3CEC22BF3CFC2AE
:101FAA002CF3830E03012D6F020E2E6F010E2F6F7D
:101FBA0021DD10D00301CCC229F3CDC22AF3CEC24F
:101FCA002BF3CFC22CF3830E2D6F020E2E6F040E4D
:101FDA002F6F10DD010E696F01EC03F0010E030192
:101FEA00296F010E2A6FCAC22BF3CBC22CF3BFDCB6
:101FFA00020E0301296F010E2A6F830E2B6F020E48
:10200A002C6FB5DC020E0301296F0A0E2A6FD0C2AB
:10201A002BF3D1C22CF3ABDC020E0B6E450E0C6E09
:10202A00A90E0D6E0D2EFED70C2EFCD70B2EFAD74D
:06203A000000000012008E
:10204000036AB20E016E020E026E03500126D8B072
:10205000022A03500201CA25F66E000ECB21F76E4C
:10206000000ECC21F86E0900F5CF00F001C0E1FFB1
:1020700002C0E2FF00C0E6FF01C0E9FF02C0EAFFC4
:10208000EE5202E0032ADDD7B20E006E020E016EA0
:0220900012003C
:102092000301726B6EC301F0010E006E015004E089
:1020A20000360090FF0FFBD700C071F36CC3E9FF4D
:1020B2006DC3EAFF0050EE14016E0152010ED8A466
:1020C200000E006E7051001A18E06F51000804E211
:1020D20047DC46DC6F07F9D76CC3E9FF6DC3EAFF43
:1020E2007151EE14016E0152010ED8A4000E006E61
:1020F2007051001A02E0FF0E726F72C300F01200FC
:10210200CCC229F3CDC22AF37A0E03012B6F020E41
:102112002C6F25EC0CF0010E696F01EC03F0010E3F
:102122000301296F010E2A6FCAC22BF3CBC22CF313
:1021320022DC020E0301296F010E2A6F7A0E2B6F29
:10214200020E2C6F18DC000E935D02E1120E925DFE
:1021520005E3010E816F000E826F04D00A0E816FBB
:10216200000E826F020E0301296F81C22AF3CEC2D2
:102172002BF3CFC22CF3BCEC0CF0020E0B6E450E0F
:102182000C6EA90E0D6E0D2EFED70C2EFCD70B2E4B
:08219200FAD700000000120062
:10219A0092929290929492969298929A8992899017
:1021AA00899A899889968994C6EC02F0C6EC02F05D
:1021BA00C6EC02F0898689848982D0EC02F0899281
:1021CA00C6EC02F08982D0EC02F08992C6EC02F0E9
:1021DA008982D0EC02F08992C6EC02F08994898255
:1021EA00D0EC02F08992C6EC02F08982D0EC02F0BF
:1021FA0089928996898A8982D0EC02F08992C6EC02
:10220A0002F0899A89848982D0EC02F089928994B1
:10221A008982D0EC02F08992C6EC02F08982D0EC75
:10222A0002F0899289848982D0EC02F08992C6EC04
:10223A0002F089948982D0EC02F08992898A89888D
:10224A00898689848982D0EC02F08992C6EC02F0F0
:06225A0002019D8112004B
:10226000036A9E0E016E020E026E03500126D8B064
:10227000022A03500201CA25F66E000ECB21F76E2A
:10228000000ECC21F86E0900F5CF00F001C0E1FF8F
:1022900002C0E2FF00C0E6FF01C0E9FF02C0EAFFA2
:1022A000EE5202E0032ADDD79E0E006E020E016E92
:0222B00012001A
:1022B20002019A6B9B6B28C017F329C018F32AC03E
:1022C20019F32BC01AF362C0CEF263C0CFF264C01E
:1022D200D0F265C0D1F22EC011F32FC012F330C07C
:1022E20013F331C014F332C015F333C016F334C004
:1022F20000F035C001F0FBDC00C005F301C006F3BD
:1023020002C007F303C008F3000E046E000E056E50
:10231200000E066E7D0E076E0BDD00C005F301C0D8
:1023220006F302C007F303C008F3000E0301096FAE
:10233200000E0A6F0C0E0B6F870E0C6F010E696F89
:1023420001EC03F0010E0301296F010E2A6F500EFA
:102352002B6F000E2C6FBCEC0CF019C300F01AC3EB
:1023620001F0C5DCCEC204F0CFC205F0D0C206F047
:10237200D1C207F07BEC05F050DC00C01BF301C0BA
:102382001CF3B5DC00C021F301C022F302C023F329
:1023920003C024F317C300F018C301F0A8DC00C087
:1023A20004F001C005F002C006F003C007F021C32B
:1023B20000F022C301F023C302F024C303F01DEC9A
:1023C20008F000C0CAF201C0CBF202C0CCF203C0D6
:1023D200CDF22E0E0301616FF8EC0BF0020E0B6EC4
:1023E200450E0C6EA90E0D6E0D2EFED70C2EFCD7CF
:1023F2000B2EFAD7000000001BC300F01CC301F033
:1024020076DC00C029F301C02AF302C02BF303C01B
:102412002CF3A7DC00C0D2F201C0D3F202C0D4F286
:1024220003C0D5F22E0E0301616FF8EC0BF0020E21
:102432000B6E450E0C6EA90E0D6E0D2EFED70C2ED8
:10244200FCD70B2EFAD700000000D2C204F0D3C290
:1024520005F0D4C206F0D5C207F0000E006E000EE1
:10246200016E280E026E840E036E1DEC08F000C091
:1024720021F301C022F302C023F303C024F317C3E4
:1024820000F018C301F033DC21C304F022C305F0CD
:1024920023C306F024C307F07BEC05F000C025F34C
:1024A20001C026F302C027F303C028F325C3FAF2C2
:1024B20026C3FBF227C3FCF228C3FDF219C300F0C6
:1024C2001AC301F014DC21C304F022C305F023C3B4
:1024D20006F024C307F07BEC05F000C021F301C035
:1024E20022F302C023F303C024F321C301F322C366
:1024F20002F323C303F324C304F325C300F026C36A
:1025020001F027C302F028C303F0000E046E000E90
:10251200056E000E066E7F0E076E92EC09F000C08B
:10252200FAF201C0FBF202C0FCF203C0FDF221C3C9
:1025320000F022C301F023C302F024C303F0000E13
:10254200046E000E056E000E066E7F0E076E92EC94
:1025520009F000C001F301C002F302C003F303C09B
:1025620004F32E0E0301616FF8EC0BF0020E0B6EFA
:10257200450E0C6EA90E0D6E0D2EFED70C2EFCD73D
:102582000B2EFAD700000000120E816F000E826F30
:10259200040E026E81C200F082C201F0025005E018
:1025A200003600900136FF0FFAD7AA0E0026000E61
:1025B20001220C0E0024D96E000E0120DA6EDECF4D
:1025C20004F0DECF05F0DECF06F0DECF07F0CAC2A0
:1025D20000F0CBC201F0CCC202F0CDC203F089EC14
:1025E20004F0010ED8B0000E006E00527CE0010E25
:1025F200815D036E000E8259046E040E026E03C0EA
:1026020000F004C001F0025005E0003600900136EF
:10261200FF0FFAD7AA0E00240301216F000E01203A
:10262200226F21C3E9FF22C3EAFFEECF00F0EECF13
:1026320001F0EECF02F0EECF03F00EEC0EF000C090
:10264200FEF201C0FFF2040E2125E96E000E2221E6
:10265200EA6EEECF00F0EECF01F0EECF02F0EECF59
:1026620003F009C304F00AC305F00BC306F00CC360
:1026720007F07BEC05F000C0F2F201C0F3F202C0F9
:10268200F4F203C0F5F2040E2125D96E000E2221C8
:10269200DA6EDECF04F0DECF05F0DECF06F0DECF5D
:1026A20007F005C300F006C301F007C302F008C338
:1026B20003F01DEC08F000C0D6F201C0D7F202C050
:1026C200D8F203C0D9F2040E03012125E96E000EEF
:1026D2002221EA6EEECFEAF2EECFEBF2EECFECF28F
:1026E200EECFEDF206D0010E0201815F000E825B99
:1026F2004FD70201120E816F000E826F040E026E1E
:1027020081C200F082C201F0025005E00036009062
:102712000136FF0FFAD7AA0E0026000E01220C0E78
:102722000024D96E000E0120DA6EDECF04F0DECF77
:1027320005F0DECF06F0DECF07F0CEC200F0CFC24A
:1027420001F0D0C202F0D1C203F089EC04F0010E14
:10275200D8B0000E006E0052D8B47DD00201010E36
:10276200815D036E000E8259046E040E026E03C078
:1027720000F004C001F0025005E00036009001367E
:10278200FF0FFAD7AA0E00240301216F000E0120C9
:10279200226F21C3E9FF22C3EAFFEECF00F0EECFA2
:1027A20001F0EECF02F0EECF03F00EEC0EF000C01F
:1027B2000DF301C00EF3040E2125E96E000E222155
:1027C200EA6EEECF00F0EECF01F0EECF02F0EECFE8
:1027D20003F009C304F00AC305F00BC306F00CC3EF
:1027E20007F07BEC05F000C0F6F201C0F7F202C080
:1027F200F8F203C0F9F2040E2125D96E000E22214F
:10280200DA6EDECF04F0DECF05F0DECF06F0DECFEB
:1028120007F005C300F006C301F007C302F008C3C6
:1028220003F01DEC08F000C0DAF201C0DBF202C0D6
:10283200DCF203C0DDF2040E03012125E96E000E75
:102842002221EA6EEECFEEF2EECFEFF2EECFF0F211
:10285200EECFF1F206D0010E0201815F000E825B23
:102862004DD72E0E0301616FF8EC0BF0020E0B6ECA
:10287200450E0C6EA90E0D6E0D2EFED70C2EFCD73A
:102882000B2EFAD70000000011C30FF312C310F38E
:1028920003010F370F91103713C300F014C301F077
:1028A20000360090013600500F27015010232E0EE3
:1028B200616FF8EC0BF0020E0B6E450E0C6EA90E5A
:1028C2000D6E0D2EFED70C2EFCD70B2EFAD7000064
:1028D20000002E0E0301616FF8EC0BF0020E0B6E7E
:1028E200450E0C6EA90E0D6E0D2EFED70C2EFCD7CA
:1028F2000B2EFAD70000000015C300F016C301F03A
:1029020078EC0EF005C304F006C305F007C306F029
:1029120008C307F07BEC05F000C025F301C026F3E5
:1029220002C027F303C028F3D6C204F0D7C205F0D1
:10293200D8C206F0D9C207F0FAC200F0FBC201F019
:10294200FCC202F0FDC203F01DEC08F005C304F066
:1029520006C305F007C306F008C307F07BEC05F0D9
:10296200EAC204F0EBC205F0ECC206F0EDC207F0D9
:102972007BEC05F000C021F301C022F302C023F377
:1029820003C024F3DAC204F0DBC205F0DCC206F0B5
:10299200DDC207F001C300F002C301F003C302F07D
:1029A20004C303F01DEC08F005C304F006C305F0F0
:1029B20007C306F008C307F07BEC05F0EEC204F093
:1029C200EFC205F0F0C206F0F1C207F07BEC05F0B1
:1029D20021C304F022C305F023C306F024C307F089
:1029E20092EC09F000C004F001C005F002C006F04C
:1029F20003C007F025C300F026C301F027C302F08D
:102A020028C303F099EC0EF000C0E6F201C0E7F231
:102A120002C0E8F203C0E9F22E0E0301616FF8EC86
:102A22000BF0020E0B6E450E0C6EA90E0D6E0D2EE6
:102A3200FED70C2EFCD70B2EFAD7000000001BC3CA
:102A420038F01CC339F0CAC27EF0CBC27FF0CCC2D0
:102A520080F0CDC281F00FC33CF010C33DF0FAC24A
:102A620086F0FBC287F0FCC288F0FDC289F001C388
:102A72008AF002C38BF003C38CF004C38DF0FEC254
:102A820042F0FFC243F00DC344F00EC345F0DEC274
:102A920096F0DFC297F0E0C298F0E1C299F0E2C28C
:102AA2009AF0E3C29BF0E4C29CF0E5C29DF0E6C25C
:102AB2009EF0E7C29FF0E8C2A0F0E9C2A1F0D6C240
:102AC200A2F0D7C2A3F0D8C2A4F0D9C2A5F0DAC24C
:102AD200A6F0DBC2A7F0DCC2A8F0DDC2A9F01DC3DC
:102AE20050F01EC351F01FC352F020C353F0F2C284
:102AF200B2F0F3C2B3F0F4C2B4F0F5C2B5F0F6C26C
:102B0200B6F0F7C2B7F0F8C2B8F0F9C2B9F02E0EBB
:102B12000301616FF8EC0BF0060E0B6E130E0C6ED8
:102B2200AD0E0D6E0D2EFED70C2EFCD70B2EFAD746
:102B320000000000010E0301696F01EC03F0924BEB
:102B4200932B010E9A6F000E9B6F060E0B6E130EE7
:102B52000C6EAD0E0D6E0D2EFED70C2EFCD70B2E6D
:082B6200FAD700000000120088
:102B6A000201946B956B800ECB19006E800E95193D
:102B7A00005C02E19451CA5D0FE38B82460E0301A9
:102B8A00006F13EC0CF08B92460E006F13EC0CF0F6
:0A2B9A000201944B952BE7D71200BF
:102BA4000B6A0A6A096A00500402F4CF09F0F3CFF1
:102BB40008F001500502F4CF0BF0F3CF0AF00050F7
:102BC4000502F3500926F4500A22E86A0B22015048
:102BD4000402F3500926F4500A22E86A0B2208C0C2
:102BE40000F009C001F00AC002F00BC003F01200AB
:102BF40002019A6B9B6B010E986F000E996F966B96
:102C0400976BCEC2D2F2CFC2D3F2D0C2D4F2D1C229
:102C1400D5F28B908B948B8CA30E0C6E550E0D6E8F
:102C24000D2EFED70C2EFCD78B8E96C229F397C29D
:102C34002AF37A0E03012B6F020E2C6F25EC0CF095
:102C4400020E296F0A0E2A6F7A0E2B6F020E2C6F5A
:102C5400BCEC0CF0000E791902E1010E781908E1C0
:102C6400786B796BCCC229F3CDC22AF392EC0CF0C9
:102C740096C200F097C201F09DEC0EF0D2C204F0AF
:102C8400D3C205F0D4C206F0D5C207F089EC04F033
:102C9400000ED8B0010E006E00521BE0D2C200F04C
:102CA400D3C201F0D4C202F0D5C203F0CEC204F004
:102CB400CFC205F0D0C206F0D1C207F092EC09F001
:102CC40000C0D2F201C0D3F202C0D4F203C0D5F2E4
:102CD40082740201CB51975D02E1CA51965DA5E36E
:102CE4008B9EA30E0C6E550E0D6E0D2EFED70C2E64
:102CF400FCD78B9C986B996B010E9A6F000E9B6F9F
:102D04008B80924B932B030E0B6E8A0E0C6E550E1A
:102D14000D6E0D2EFED70C2EFCD70B2EFAD700000D
:042D24000000120099
:102D28009CEC1FF0926AFF0E936E080E946E0F0EC5
:102D3800C16E070EB46E806A816A826A020E0B6EDB
:102D4800450E0C6EA90E0D6E0D2EFED70C2EFCD75F
:102D58000B2EFAD700000000CDEC10F0D190F286CF
:102D6800F290F190F288F292F086F090F088F0926A
:102D7800F28E020E0B6E450E0C6EA90E0D6E0D2E08
:102D8800FED70C2EFCD70B2EFAD7000000006D964C
:102D98006F868290786B796B829E829C010E03010C
:102DA800696F01EC03F0010E0301296F030E2A6F0E
:102DB800FF0E2B6F010E2C6FBCEC0CF0020E030102
:102DC800296F040E2A6FF30E2B6F010E2C6FBCECCB
:102DD8000CF0070E0B6E580E0C6E590E0D6E0D2E64
:102DE800FED70C2EFCD70B2EFAD700000000010EE0
:102DF8000301696F01EC03F0010E0301296F020E54
:102E08002A6FED0E2B6F010E2C6FBCEC0CF0020E2E
:102E18000301296F020E2A6F410E2B6F020E2C6FD1
:102E2800BCEC0CF0070E0B6E580E0C6E590E0D6EA6
:102E38000D2EFED70C2EFCD70B2EFAD70000000063
:102E4800986B996B1E0EC66F000EC76F926B936BD3
:102E5800070E0B6E580E0C6E590E0D6E0D2EFED70A
:102E68000C2EFCD70B2EFAD700000000010E9A6F2B
:102E7800000E9B6F9351C75D02E19251C65D02E25D
:102E8800926B936B0C0E0301696F01EC03F0C8EFB2
:102E98001CF0030E006E000E016E92C204F093C285
:102EA80005F07CDE0B0E0024E96E020E0120EA6EAE
:102EB800EECFCAF2EECFCBF2EECFCCF220EC10F090
:102EC80000C0CAF201C0CBF292C200F093C201F076
:102ED800003600900136280E0024E96E000E01200D
:102EE800EA6EEECFCCF2EECFCDF2DAC1CEF2DBC194
:102EF800CFF281EC10F096EF1DF0030E006E000E7D
:102F0800016E92C204F093C205F048DE0B0E002455
:102F1800E96E020E0120EA6EEECFCAF2EECFCBF2D6
:102F2800EECFCCF220EC10F000C0CAF201C0CBF218
:102F380092C200F093C201F0003600900136280ECC
:102F48000024E96E000E0120EA6EEECFCCF2EECF3F
:102F5800CDF2DAC1CEF2DBC1CFF281EC10F096EF00
:102F68001DF0030E006E000E016E92C204F093C2B3
:102F780005F014DE0B0E0024E96E020E0120EA6E45
:102F8800EECFCAF2EECFCBF2EECFCCF220EC10F0BF
:102F980000C0CAF201C0CBF292C200F093C201F0A5
:102FA8000036009001360036009001365A0E002493
:102FB800E96E000E0120EA6EEECFCCF2EECFCDF234
:102FC800EECFCEF2EECFCFF2DCC1D0F2DDC1D1F23E
:102FD800C5EC0FF096EF1DF0030E006E000E016EAB
:102FE80092C204F093C205F0D9DD0B0E0024E96EFD
:102FF800020E0120EA6EEECFCAF2EECFCBF2EECF90
:10300800CCF220EC10F000C0CAF201C0CBF292C2A0
:1030180000F093C201F0003600900136280E00241B
:10302800E96E000E0120EA6EEECFCCF2EECFCDF2C3
:10303800DEC1CEF2DFC1CFF281EC10F096EF1DF0C9
:10304800030E006E000E016E92C204F093C205F0EA
:10305800A5DD0B0E0024E96E020E0120EA6EEECF0C
:10306800CAF2EECFCBF2EECFCCF220EC10F000C0DB
:10307800CAF201C0CBF292C200F093C201F000364E
:1030880000900136280E0024E96E000E0120EA6E39
:10309800EECFCCF2EECFCDF2DEC1CEF2DFC1CFF271
:1030A80081EC10F096EF1DF0030E006E000E016E1D
:1030B80092C204F093C205F071DD0B0E0024E96E94
:1030C800020E0120EA6EEECFCAF2EECFCBF2EECFBF
:1030D800CCF220EC10F000C0CAF201C0CBF292C2D0
:1030E80000F093C201F0003600900136280E00244B
:1030F800E96E000E0120EA6EEECFCCF2EECFCDF2F3
:10310800DEC1CEF2DFC1CFF281EC10F096EF1DF0F8
:10311800030E006E000E016E92C204F093C205F019
:103128003DDD0B0E0024E96E020E0120EA6EEECFA3
:10313800CAF2EECFCBF2EECFCCF220EC10F000C00A
:10314800CAF201C0CBF292C200F093C201F000367D
:1031580000900136280E0024E96E000E0120EA6E68
:10316800EECFCCF2EECFCDF2DEC1CEF2DFC1CFF2A0
:1031780081EC10F096EF1DF059EC11F096EF1DF070
:10318800030E006E000E016E92C204F093C205F0A9
:1031980005DD0B0E0024E96E020E0120EA6EEECF6B
:1031A800CAF2EECFCBF2EECFCCF220EC10F000C09A
:1031B800CAF201C0CBF292C200F093C201F000360D
:1031C80000900136280E0024E96E000E0120EA6EF8
:1031D800EECFCCF2EECFCDF2E8C1CEF2E9C1CFF21C
:1031E80081EC10F096EF1DF0030E006E000E016EDC
:1031F80092C204F093C205F0D1DC0B0E0024E96EF4
:10320800020E0120EA6EEECFCAF2EECFCBF2EECF7D
:10321800CCF220EC10F000C0CAF201C0CBF292C28E
:1032280000F093C201F0003600900136003600909D
:1032380001365A0E0024E96E000E0120EA6EEECF28
:10324800CCF2EECFCDF2EECFCEF2EECFCFF2DCC1A4
:10325800D0F2DDC1D1F2C5EC0FF096EF1DF0030EF0
:10326800006E000E016E92C204F093C205F096DC67
:103278000B0E0024E96E020E0120EA6EEECFCAF2B0
:10328800EECFCBF2EECFCCF220EC10F000C0CAF2B9
:1032980001C0CBF292C200F093C201F00036009058
:1032A8000136280E0024E96E000E0120EA6EEECFEA
:1032B800CCF2EECFCDF2DEC1CEF2DFC1CFF281EC9F
:1032C80010F096EF1DF0030E006E000E016E92C214
:1032D80004F093C205F062DC0B0E0024E96E020EC6
:1032E8000120EA6EEECFCAF2EECFCBF2EECFCCF2EF
:1032F80020EC10F000C0CAF201C0CBF292C200F07C
:1033080093C201F000360090013600360090013675
:103318005A0E0024E96E000E0120EA6EEECF00F08E
:10332800EECF01F0EECF02F0EECF03F00EEC0EF090
:1033380000C0CCF201C0CDF2E0C1CEF2E1C1CFF2C3
:1033480081EC10F0EFD3030E006E000E016E92C2F6
:1033580004F093C205F022DC0B0E0024E96E020E85
:103368000120EA6EEECFCAF2EECFCBF2EECFCCF26E
:1033780020EC10F000C0CAF201C0CBF292C200F0FB
:1033880093C201F0003600900136003600900136F5
:103398005A0E0024E96E000E0120EA6EEECF00F00E
:1033A800EECF01F0EECF02F0EECF03F00EEC0EF010
:1033B80000C0CCF201C0CDF2E0C1CEF2E1C1CFF243
:1033C80081EC10F0AFD3030E006E000E016E92C2B6
:1033D80004F093C205F0D2EC15F00B0E0024E96E50
:1033E800020E0120EA6EEECFCAF2EECFCBF2EECF9C
:1033F800CCF220EC10F000C0CAF201C0CBF292C2AD
:1034080000F093C201F0003600900136280E002427
:10341800E96E000E0120EA6EEECFCCF2EECFCDF2CF
:10342800E2C1CEF2E3C1CFF281EC10F07BD3030E00
:10343800006E000E016E92C204F093C205F0D2EC49
:1034480015F00B0E0024E96E020E0120EA6EEECF95
:10345800CAF2EECFCBF2EECFCCF220EC10F000C0E7
:10346800CAF201C0CBF292C200F093C201F000365A
:1034780000900136280E0024E96E000E0120EA6E45
:10348800EECFCCF2EECFCDF2E2C1CEF2E3C1CFF275
:1034980081EC10F047D3030E006E000E016E92C24D
:1034A80004F093C205F0D2EC15F00B0E0024E96E7F
:1034B800020E0120EA6EEECFCAF2EECFCBF2EECFCB
:1034C800CCF220EC10F000C0CAF201C0CBF292C2DC
:1034D80000F093C201F000360090013600360090EB
:1034E80001365A0E0024E96E000E0120EA6EEECF76
:1034F800CCF2EECFCDF2EECFCEF2EECFCFF2E4C1EA
:10350800D0F2E5C1D1F2C5EC0FF00CD3030E006E7A
:10351800000E016E92C204F093C205F0D2EC15F0D1
:103528000B0E0024E96E020E0120EA6EEECFCAF2FD
:10353800EECFCBF2EECFCCF220EC10F000C0CAF206
:1035480001C0CBF292C200F093C201F000360090A5
:1035580001360036009001365A0E0024E96E000E3E
:103568000120EA6EEECFCCF2EECFCDF2EECFCEF266
:10357800EECFCFF2E4C1D0F2E5C1D1F2C5EC0FF045
:10358800D1D2030E006E000E016E92C204F093C2F7
:1035980005F0D2EC15F00B0E0024E96E020E0120A6
:1035A800EA6EEECFCAF2EECFCBF2EECFCCF220EC41
:1035B80010F000C0CAF201C0CBF292C200F093C270
:1035C80001F00036009001360036009001365A0EA0
:1035D8000024E96E000E0120EA6EEECFCCF2EECFA9
:1035E800CDF2EECFCEF2EECFCFF2E6C1D0F2E7C108
:1035F800D1F2C5EC0FF096D2300ECA6F3E0ECB6FEB
:10360800000ECC6F30EC11F000C0C8F201C0C9F256
:10361800200ECA6F3E0ECB6F000ECC6F20EC10F060
:1036280000C0CAF201C0CBF236C0CCF237C0CDF22E
:10363800C8C2CEF2C9C2CFF281EC10F073D2000E2C
:10364800CA6F3E0ECB6F000ECC6F30EC11F000C08D
:10365800C8F201C0C9F2A70ECA6F3E0ECB6F000EAA
:10366800CC6F20EC10F000C0CAF201C0CBF236C01B
:10367800CCF237C0CDF2C8C2CEF2C9C2CFF281ECCB
:1036880010F0000E791902E1010E781909E18B900A
:10369800786B796B960ECA6F000ECB6FB5EC15F090
:1036A80041D2CE0ECA6F3D0ECB6F000ECC6F30EC00
:1036B80011F000C0C8F201C0C9F24F0ECA6F3E0E29
:1036C800CB6F000ECC6F20EC10F000C0CAF201C026
:1036D800CBF236C0CCF237C0CDF2C8C2CEF2C9C2E6
:1036E800CFF281EC10F01ED2100ECA6F3F0ECB6FD6
:1036F800000ECC6F30EC11F000C0C8F201C0C9F266
:10370800200ECA6F3E0ECB6F000ECC6F20EC10F06F
:1037180000C0CAF201C0CBF236C0CCF237C0CDF23D
:10372800C8C2CEF2C9C2CFF281EC10F086C000F058
:1037380087C001F088C002F089C003F00EEC0EF0DB
:1037480000C0CAF201C0CBF2B2C000F0B3C001F0B1
:10375800B4C002F0B5C003F00EEC0EF000C0CCF21D
:1037680001C0CDF2A2C0CEF2A3C0CFF2A4C0D0F265
:10377800A5C0D1F2FAEC15F0D5D1AC0ECA6F3D0E4A
:10378800CB6F000ECC6F30EC11F000C0C8F201C056
:10379800C9F2BD0ECA6F3D0ECB6F000ECC6F20EC88
:1037A80010F000C0CAF201C0CBF236C0CCF237C06C
:1037B800CDF2C8C2CEF2C9C2CFF281EC10F0B2D1BC
:1037C800100ECA6F3E0ECB6F000ECC6F30EC11F0AE
:1037D80000C0C8F201C0C9F2DF0ECA6F3D0ECB6F40
:1037E800000ECC6F20EC10F000C0CAF201C0CBF282
:1037F80036C0CCF237C0CDF2C8C2CEF2C9C2CFF2C1
:1038080081EC10F08FD1000ECA6F3E0ECB6F000E08
:10381800CC6F30EC11F000C0C8F201C0C9F2A70E9D
:10382800CA6F3E0ECB6F000ECC6F20EC10F000C0BC
:10383800CAF201C0CBF236C0CCF237C0CDF2C8C252
:10384800CEF2C9C2CFF281EC10F0000E791902E174
:10385800010E781909E18B90786B796B960ECA6F17
:10386800000ECB6FB5EC15F05DD1CE0ECA6F3D0ED4
:10387800CB6F000ECC6F30EC11F000C0C8F201C065
:10388800C9F24F0ECA6F3E0ECB6F000ECC6F20EC04
:1038980010F000C0CAF201C0CBF236C0CCF237C07B
:1038A800CDF2C8C2CEF2C9C2CFF281EC10F03AD143
:1038B800100ECA6F3F0ECB6F000ECC6F30EC11F0BC
:1038C80000C0C8F201C0C9F2DF0ECA6F3D0ECB6F4F
:1038D800000ECC6F20EC10F000C0CAF201C0CBF291
:1038E80036C0CCF237C0CDF2C8C2CEF2C9C2CFF2D0
:1038F80081EC10F08AC000F08BC001F08CC002F09F
:103908008DC003F00EEC0EF000C0CAF201C0CBF27D
:10391800B6C000F0B7C001F0B8C002F0B9C003F0FB
:103928000EEC0EF000C0CCF201C0CDF2A6C0CEF273
:10393800A7C0CFF2A8C0D0F2A9C0D1F2FAEC15F016
:10394800F1D0F00ECA6F3D0ECB6F000ECC6F30EC8D
:1039580011F000C0C8F201C0C9F2BD0ECA6F3D0E19
:10396800CB6F000ECC6F20EC10F000C0CAF201C083
:10397800CBF236C0CCF237C0CDF2C8C2CEF2C9C243
:10398800CFF281EC10F0CED0000E931902E1000EB8
:103998009219D8B44DEF17F0000E931902E1010EF9
:1039A8009219D8B481EF17F0000E931902E1020EB4
:1039B8009219D8B4B5EF17F0000E931902E1030E6F
:1039C8009219D8B4F0EF17F0000E931902E1040E23
:1039D8009219D8B424EF18F0000E931902E1050EDD
:1039E8009219D8B458EF18F0000E931902E1060E98
:1039F8009219D8B48CEF18F0000E931902E1070E53
:103A08009219D8B4C0EF18F0000E931902E1080E0D
:103A18009219D8B4C4EF18F0000E931902E1090EF8
:103A28009219D8B4F8EF18F0000E931902E10A0EB3
:103A38009219D8B414D4000E931902E10B0E9219FE
:103A4800D8B441D4000E931902E10C0E9219D8B4DF
:103A58007AD4000E931902E10D0E9219D8B4B3D49A
:103A6800000E931902E10E0E9219D8B4E0D4000E9C
:103A7800931902E10F0E9219D8B40DD5000E9319BF
:103A880002E1100E9219D8B441D5000E931902E143
:103A9800110E9219D8B475D5000E931902E1120EC1
:103AA8009219D8B4A9D5000E931902E1130E9219F0
:103AB800D8B4C5D5000E931902E1140E9219D8B4E2
:103AC800F0D5000E931902E1150E9219D8B40CD650
:103AD800000E931902E1160E9219D8B44ED6000EB4
:103AE800931902E1170E9219D8B46AD6000E9319E9
:103AF80002E1180E9219D8B486D6000E931902E185
:103B0800190E9219D8B4B1D6000E931902E11A0E03
:103B18009219D8B4CDD6000E931902E11B0E921952
:0A3B2800D8B40FD73AEF17F0FFD71B
:103F380010EE28F0500E006E030E016E320EF66E73
:0E3F48003B0EF76E000EF86EA5EC0BF01200AB
:0100060000F9
:103B3200DC00060000001D001D000B002400000038
:103B42000000000000000000000000000000000073
:083B520000000000000000006B
:0A3B5A00436F6D707574696E6700AB
:103B64000000000000000000000040800000000091
:103B74000000000000000000000000000000000041
:103B84000000000000000000000000000000000031
:103B94000000000000000000000000000000000021
:103BA4000000000000000000000000000000000011
:103BB40000000083D7A3507F508D177952B82E810F
:103BC400000008838FC2357F1EA768788FC20581E5
:103BD40000001083F6281C7FC3642A78E17A4480AD
:103BE400000018835C8F027FA3E96C77EC51088096
:103BF40000002083E7FB697E3E054077A4705D7F6B
:103C040000002883C520507E41B71777295C2F7F99
:103C1400000030831904367E58FF67766666067F97
:103C240000003883F6281C7EC3642A76A69B447E53
:103C340000004083A01A0F7E1A860F76B81E257ED8
:103C4400000048834A0C027E863D6D75B072087E82
:103C540000005083E7FB697D795D3F751B2F5D7D17
:103C6400000058830681557D68E81F75D9CE377DDD
:103C7400000060831283407DE3C201750681157DD7
:103C840000006883D7A3307D03275B7491ED7C7CAF
:103C940000007083AE47217DA930367485EB517CDA
:103CA400000078833D0A177D30621F74C74B377C50
:103CB40000000084BA490C7DB893087477BE1F7C59
:103CC400000004844A0C027D6AFA6C732731087C74
:103CD40000000884B29D6F7C64CD48738B6C677B55
:103CE4006802630274026E025F02570250025C02B1
:023CF4005B0271
:013CF600FFCE
:063CF700456E74657200C9
:0C3CFD00436F696C2057696E64657200AB
:0C3D09005472616E73666F726D6572001B
:103D1500FA3E00B33E00BF3E00EF3E00D73E006DC9
:103D25003E005E3E00060000253F00053F001B3FAC
:103D3500007C3E00403E008B3E00993E00CB3E009D
:063D4500E33E002F3F00E9
:0F3D4B0053706563696669636174696F6E7300B5
:073D5A0073712E6D6D2E0048
:043D61006B672E005E
:013D6500005D
:033D6600564100C3
:043D69004157470077
:053D6D00616D707300A0
:063D7200766F6C74730013
:063D780074696D65730023
:043D7E006D6D2E0039
:013D82000040
:013D8300003F
:103D8400010000000A00000064000000E8030000D5
:103D940010270000A086010040420F008096980082
:083DA40000E1F50500CA9A3B9D
:103DAC0050726573734F6B746F50726F636565649B
:013DBC000006
:103DBD0057696E64696E6746696E697368656421DB
:013DCD0000F5
:103DCE0020202020202020202020202020202020E5
:013DDE0000E4
:103DDF005365636F6E642057696E64696E673A202E
:013DEF0000D3
:103DF00050726573734F6B546F52657475726E00B9
:103E0000466F7220537461727420506F696E740033
:103E1000496E7365727420326E6420576972650052
:103E200046697273742057696E64696E673A200040
:103E3000496E73657274203173742057697265001E
:0F3E40004E6F4F665475726E7328326E64290090
:0F3E4F0053746172742057696E64696E673F0027
:0F3E5E0057696E64696E67204C656E6774680003
:0F3E6D0057696E64696E672048656967687400FD
:0F3E7C004E6F4F665475726E7328317374290040
:0E3E8B005769726553697A652831737429008E
:0E3E99005769726553697A6528326E64290094
:0C3EA70041646A757374204B6E6F6200FA
:0C3EB300566F6C74616765204F757400D9
:0C3EBF0043757272656E74204F757400BC
:0C3ECB00576569676874576972653100BB
:0C3ED700436F72652048656967687400DD
:0C3EE300576569676874576972653200A2
:0B3EEF00436F7265205769647468001F
:0B3EFA00566F6C7461676520496E0014
:0B3F050043757272656E7420496E00F7
:0B3F10005475726E204E6F3A202000A6
:0A3F1B00506572696D6574657200EF
:0A3F2500506F77657228564129009D
:083F2F00416972204761700036
:020000040030CA
:0E000000000C1F1EFF8381FF0FC00FE00F409A
:00000001FF
