:0400000091EF16F076
:1000080000C023F001C022F002C021F003C020F09C
:1000180004C01FF005C01EF006C01DF007C01CF08C
:1000280008C01BF009C01AF00AC019F00BC018F07C
:100038000CC017F00DC016F00EC015F0E1CF26F079
:10004800E2CF27F0E9CF24F0EACF25F081CF9DF267
:10005800000E02019E6FF2A245D0000E9B1902E12C
:10006800010E9A193FE1810E03016A6F0F0E6B6F43
:100078006C6B960E6D6F010E6E6F4FEC10F00052A8
:1000880031E0010E0201925F000E935B0FD0060E65
:10009800926F000E936F1CD0120E926F000E936F2A
:1000A80017D0170E926F000E936F12D0000E93198F
:1000B80002E1070E9219EBE0000E931902E1150E0A
:1000C8009219EAE0000E931902E11A0E9219E9E07A
:1000D800000E006E9351005C02E19251000802E3A9
:1000E800926B936BF292F0A02DD00201000E9B1937
:1000F80002E1010E9A1926E1810E03016A6F0F0EC3
:100108006B6F010E6C6F960E6D6F010E6E6F4FEC7C
:1001180010F0005217E00201924B932BC951935DE6
:1001280002E1C851925D02E3926B936B000E935DFE
:1001380002E1070E925D06E382BA04D0170E926FB1
:10014800000E936FF090F0A223D00201000E9919CF
:1001580002E1010E98191CE1000E9B1902E1000E44
:100168009A1916E1810E03016A6F0F0E6B6F020E6A
:100178006C6F020E6D6F010E6E6F4FEC10F0005237
:1001880007E00201964B972B010E816F000E826FDC
:10019800F092F2A00ED00201000E9B1902E1010EAE
:1001A8009A1907E1000E935D02E1070E925D01E2E4
:1001B8000ED00201000E931902E1130E921907E006
:1001C800000E931902E1180E921901E0B7D1026AE4
:1001D80081BA022A02C000F000360090000E81B8F1
:1001E800010E9C6F00509C130101DA51FF0AD8B42C
:1001F800A3D1DA51000A05E102019C51010A01E18B
:100208001CD00101DA51010A05E102019C51030ADF
:1002180001E113D00101DA51030A05E102019C5101
:10022800020A01E10AD00101DA51020A05E10201DC
:100238009C51000A01E101D08DD00201000E9319F2
:1002480002E1020E921940E192C200F093C201F05D
:10025800003600900136003600900136280E002442
:100268000301686F000E0120696F92C200F093C20B
:1002780001F0003600900136003600900136280E55
:100288000024E96E000E0120EA6EEECF00F0EECFFA
:1002980001F0EECF02F0EECF03F0DA0E046ECC0ED2
:1002A800056E4C0E066E7B0E076E98EC09F068C35F
:1002B800E1FF69C3E2FF00C0E6FF01C0E6FF02C03C
:1002C800E6FF03C0E6FF31D0000E0201931902E1F8
:1002D800020E92192AE0000E935D02E1160E925D5D
:1002E80024E292C200F093C201F000360090013679
:1002F800780E0024E16E000E0120E26E92C200F03A
:1003080093C201F0003600900136780E0024E96EA1
:10031800000E0120EA6E010EEE24006E000EEE20A3
:10032800016E00C0E6FF01C0E6FF0201000E93194E
:1003380002E1130E921907E0000E931902E1180E5C
:10034800921901E006D082B48B94010E816F000EE1
:10035800826FF2D00101DA51000A05E102019C51D5
:10036800020A01E10AD00101DA51010A05E102019C
:100378009C51000A01E101D0DFD00201000E93195F
:1003880002E1020E921977E192C200F093C201F0E5
:10039800003600900136003600900136280E002401
:1003A8000301686F000E0120696F92C200F093C2CA
:1003B80001F0003600900136003600900136280E14
:1003C8000024E96E000E0120EA6EEECF00F0EECFB9
:1003D80001F0EECF02F0EECF03F0DA0E046ECC0E91
:1003E800056E4C0E066E7B0E076E9FEC0EF068C312
:1003F800E1FF69C3E2FF00C0E6FF01C0E6FF02C0FB
:10040800E6FF03C0E6FF92C200F093C201F0003697
:1004180000900136003600900136280E0024E96E5F
:10042800000E0120EA6EEECF00F0EECF01F0EECF25
:1004380002F0EECF03F0046A056A066A076A6BDA0F
:10044800010ED8B0000E006E005214E092C200F007
:1004580093C201F000360090013600360090013654
:10046800280E0024E16E000E0120E26EE66AE66ABC
:10047800E66AE66A24D092C200F093C201F0003620
:1004880000900136780E0024E16E000E0120E26E25
:1004980092C200F093C201F0003600900136780E47
:1004A8000024E96E000E0120EA6E010EEE5C006E7B
:1004B800000EEE58016E00C0E6FF01C0E6FF92C2D2
:1004C80000F093C201F0003600900136780E002447
:1004D800E96E000E0120EA6EEECF01F0EECF02F0D9
:1004E800800E0218006E800E005C02E1000E015CB6
:1004F8000FE292C200F093C201F00036009001367C
:10050800780E0024E16E000E0120E26EE66AE66ACB
:10051800000E0201931902E1130E921907E0000E72
:10052800931902E1180E921901E006D082A48B8477
:10053800010E816F000E826F9CC2DAF19DC28AFFA4
:10054800F29023C000F022C001F021C002F020C0C8
:1005580003F01FC004F01EC005F01DC006F01CC04B
:1005680007F01BC008F01AC009F019C00AF018C03B
:100578000BF017C00CF016C00DF015C00EF024C01B
:10058800E9FF25C0EAFF26C0E1FF27C0E2FF11000E
:10059800120E0C6EDA0E0D6E0D2EFED70C2EFCD739
:0405A800000012003D
:0605AC0000000000120037
:0C05B200290E0D6E0D2EFED70000120069
:0805BE000AAE029E000E1200BD
:0E05C600026A016A006A086A036A000E1200E7
:1005D4000B840BAEF5EF02F0010E036E026A016AA2
:0A05E400006A0A360232FF0E120010
:1005EE000B820BAE01EF03F003680268016800682E
:0805FE000A360232FF0E120062
:080606000B6A0B86FF0E1200C7
:10060E00030167BF02D0899A01D0898A67BD02D0E3
:10061E00899801D0898867BB02D0899601D08986D6
:10062E0067B902D0899401D0898402019FB102D0AA
:10063E00898001D089908982B2DF8992030167B7E0
:10064E0002D0899A01D0898A67B502D0899801D0E3
:10065E00898867B302D0899601D0898667B102D0A6
:10066E00899401D0898402019FB102D0898001D082
:10067E008990898294DF89929FA102D086DF01D072
:04068E0091DF1200E6
:100692000B800BAE55EF03F0026A0AAEFF0E026E3C
:0C06A200016E006E0A360232FF0E1200DC
:1006AE000134083609360450085E0550D8A0053CC2
:1006BE00095E003601360F0E0C6E0134083609360F
:1006CE00045000A006D0085E0550D8A0053C095E77
:1006DE0005D008260550D8B0053C0926003601364F
:1006EE000C2EEBD700B006D0045008260550D8B01B
:0806FE00053C09260000120072
:100706000CB0C5EF03F00CA26BEF04F00E6A000EFE
:100716000264DCEF03F0F00E0214D8A4A7EF03F096
:10072600023A01380F0B02260138F00B016E003831
:100736000F0B01260038F00B006E08380F0B002651
:100746000838F00B086E0E84D89002BEC0EF03F096
:1007560008360036013602360E2A02BEC0EF03F016
:1007660008360036013602360E2A02BEC0EF03F006
:1007760008360036013602360E2A0E50036461EF43
:1007860004F0035E0BBC08AE66EF04F0D880800E62
:1007960008640030000E002201220222D8A066EF73
:1007A60004F0023201320032034A6BEF04F066EFC6
:1007B60004F001C002F000C001F008C000F0086AB1
:1007C600000E0E86026413EF04F0F00E0214D8A495
:1007D600FBEF03F0023A01380F0B02260138F00B4B
:1007E600016E00380F0B01260038F00B006E0E84E8
:1007F600D89002BEC0EF03F00036013602360E2A4C
:1008060002BEC0EF03F00036013602360E2A02BEE3
:10081600C0EF03F00036013602360E2AC0EF03F0B1
:1008260001C002F000C001F0006A000E0E960E88AC
:10083600026440EF04F0F00E0214D8A42BEF04F08B
:10084600023A01380F0B02260138F00B016E0E84B6
:10085600D89002BEC0EF03F0013602360E2A02BE61
:10086600C0EF03F0013602360E2A02BEC0EF03F0D7
:10087600013602360E2AC0EF03F001C002F0016A0B
:10088600000E0E86026470EF04F0F00E0214D8A477
:100896004FEF04F0023A0E84D89002BEC0EF03F088
:1008A60002360E2A02BEC0EF03F002360E2A02BE40
:1008B600C0EF03F002360E2AC0EF03F0010E0C6EF5
:1008C60086DE73EF04F0020E0C6E76DE73EF04F034
:1008D600040E0C6E89DE73EF04F0080E0C6E70DEEB
:0208E6001200FE
:1008E800086A096A100E0C6E01340836093604507D
:1008F800085E0550D8A0053C095ED8B007D0045062
:1009080008260550D8B0053C0926D890003601368F
:060918000C2EEAD71200CC
:10091E000A6A0350D8A40A800750D8A40A820A5043
:10092E00D8B4F2EF04F0030AD8B4ABEF04F00AB077
:10093E00A6EF04F006AEF0EF04F0EEEF04F002AE18
:10094E00EEEF04F0F0EF04F00250800B0A6E029E00
:10095E000650800B069E0A18D8B4BCEF04F00A505D
:10096E00D8B4EEEF04F0F0EF04F00750035CD8B407
:10097E00C6EF04F0D8A0E2EF04F0E8EF04F0065062
:10098E00025CD8B4D0EF04F0D8A0E2EF04F0E8EFA8
:10099E0004F00550015CD8B4DAEF04F0D8A0E2EF11
:1009AE0004F0E8EF04F00450005CD8B4F2EF04F069
:1009BE00D8B0E8EF04F00A52D8B4F0EF04F0EEEF3E
:1009CE0004F00A52D8B4EEEF04F0F0EF04F0D88041
:0E09DE001200D8901200D880D88412001200A7
:1009EC005F0E046E030E056E030E0424E96E000EFA
:1009FC000520EA6E7E0EEE5C006E016A000E015A56
:100A0C0063C3E1FF64C3E2FF00C0E6FF01C0E6FF81
:100A1C00030E0424E16E000E0520E26E7E0EE66EDF
:100A2C005FC300F060C301F061C302F062C303F066
:020A3C001200A6
:100A3E005F0E0301656F030E666F030E6525D96E9B
:100A4E00000E6621DA6EDE506325016E000E642103
:100A5E00026E01C063F302C064F3800E0218006ED2
:100A6E00800E005C02E1000E015C05E2006A016A84
:100A7E00026A036A3ED0800E006E800E6419005C1E
:100A8E0002E16351FF0825E2046A056A066A076AF5
:100A9E005FC300F060C301F061C302F062C303F0F4
:100AAE0037DF010ED8B0000E006E005209E0FF0EC7
:100ABE00006EFF0E016EFF0E026EFF0E036E19D05A
:100ACE00FF0E006EFF0E016E7F0E026EFF0E036EA6
:100ADE0010D0030E6525E16E000E6621E26E63C333
:100AEE00E6FF5FC300F060C301F061C302F062C3B2
:040AFE0003F01200EF
:100B0200086A096A000E0762036406EF06F00250E3
:100B120006180A6E075003267E0ED8A097EF05F03E
:100B2200035ED8B00AEF06F09BEF05F0035ED8A093
:100B32000EEF06F0028E068E02C00EF001C00BF020
:100B420000C00DF000500402F4CF0CF00150050279
:100B5200F4CF00F0F3CF08F00402F3500C26F45067
:100B62000822000E00220D500502F3500C26F4500C
:100B72000822000E002202500402F3500826F4500C
:100B8200002202500502016A000E0122F3500026E3
:100B9200F45001220D500602F3500826F4500022B0
:100BA200026A000E012202220B500602F3500026B6
:100BB200F4500122000E02220E500602F3500126CA
:100BC200F450022202BEEEEF05F00836003601367E
:100BD20002360306D8B40EEF06F001EF06F0D88015
:100BE200800E08640030000E002201220222D8A0EA
:100BF20001EF06F0023201320032034A0AEF06F038
:100C02000AAE029E000E10EF06F0010EDBDC10EFC2
:100C120006F0020EEBDC10EF06F0040EDADC120036
:100C22000B6A0A6A096A086A0E6A033408360450B3
:100C3200085E0550D8A0053C095E0650D8A0063CC7
:100C42000A5E0750D8A0073C0B5EE86AD8A0010EE6
:100C52000E5E0336070E0C6E0334083609360A366A
:100C62000B360E36045003A012D0085E0550D8A0F1
:100C7200053C095E0650D8A0063C0A5E0750D8A083
:100C8200073C0B5EE86AD8A0010E0E5E11D0082662
:100C92000550D8B0053C09260650D8B0063C0A26B5
:100CA2000750D8B0073C0B26E86AD8B0010E0E26D2
:100CB20003360C2ED1D70234083609360A360B36E3
:100CC2000E36045003A012D0085E0550D8A0053C91
:100CD200095E0650D8A0063C0A5E0750D8A0073C21
:100CE2000B5EE86AD8A0010E0E5E11D008260550F0
:100CF200D8B0053C09260650D8B0063C0A26075053
:100D0200D8B0073C0B26E86AD8B0010E0E26023690
:100D1200070E0C6E0234083609360A360B360E36CA
:100D2200045002A012D0085E0550D8A0053C095E0E
:100D32000650D8A0063C0A5E0750D8A0073C0B5EBE
:100D4200E86AD8A0010E0E5E11D008260550D8B070
:100D5200053C09260650D8B0063C0A260750D8B0F2
:100D6200073C0B26E86AD8B0010E0E2602360C2E7E
:100D7200D1D70134083609360A360B360E360450FE
:100D820002A012D0085E0550D8A0053C095E0650AC
:100D9200D8A0063C0A5E0750D8A0073C0B5EE86A62
:100DA200D8A0010E0E5E11D008260550D8B0053C21
:100DB20009260650D8B0063C0A260750D8B0073C90
:100DC2000B26E86AD8B0010E0E260136070E0C6E0D
:100DD2000134083609360A360B360E36045001A0A5
:100DE20012D0085E0550D8A0053C095E0650D8A076
:100DF200063C0A5E0750D8A0073C0B5EE86AD8A002
:100E0200010E0E5E11D008260550D8B0053C092609
:100E12000650D8B0063C0A260750D8B0073C0B262D
:100E2200E86AD8B0010E0E2601360C2ED1D7003456
:100E3200083609360A360B360E36045001A012D097
:100E4200085E0550D8A0053C095E0650D8A0063CB5
:100E52000A5E0750D8A0073C0B5EE86AD8A0010ED4
:100E62000E5E11D008260550D8B0053C0926065062
:100E7200D8B0063C0A260750D8B0073C0B26E86AD1
:100E8200D8B0010E0E260036070E0C6E003408365E
:100E920009360A360B360E36045000A012D0085E10
:100EA2000550D8A0053C095E0650D8A0063C0A5E53
:100EB2000750D8A0073C0B5EE86AD8A0010E0E5E70
:100EC20011D008260550D8B0053C09260650D8B0E6
:100ED200063C0A260750D8B0073C0B26E86AD8B071
:100EE200010E0E2600360C2ED1D700B00ED00450C3
:100EF20008260550D8B0053C09260650D8B0063C55
:0C0F02000A260750D8B0073C0B2612004E
:100F0E000B6A0C6A0A6A086A0350D8B40FEF08F02D
:100F1E00028E9E0E035E03BE9AEF07F0D8B49AEFD0
:100F2E0007F0FFEF07F0036C080E035CD8A0CCEFC0
:100F3E0007F0036E083600C008F001C000F002C0D2
:100F4E0001F0026A080E035CD8A0CCEF07F0036E26
:100F5E00083600C008F001C000F0016A080E035CFC
:100F6E00D8A0CCEF07F0036E083600C008F0006A78
:100F7E00080E035CD8A0CCEF07F0036E0836086AA3
:100F8E000350D8A4D890D8EF07F00350D8B4D8EFB8
:100F9E0007F0D8900232013200320832032ED0EF21
:100FAE0007F00BBC08A0E9EF07F0D8A0E9EF07F0B7
:100FBE00082AD8B4002AD8B4012AD8B4022A02BE0C
:100FCE0013EF08F00AAE0FEF08F0021E011E001E0E
:100FDE00081E082AD8B4002AD8B4012AD8B4022A86
:100FEE000FEF08F0026A016A006A086A0FEF08F054
:100FFE000B800BAE19EF08F0026A0AAE19EF08F07B
:10100E00026E016E006E086E0A36023219EF08F09B
:10101E00000E0C6A1AEF08F0010E0C6E49EC03F08C
:10102E001AEF08F0FF0E0250036E0150026E0050D0
:08103E00016E0850006E120063
:101046000450000A12E10550000A0FE10650000A9A
:101056000CE10750000A09E1FF0E006EFF0E016E5B
:101066007F0E026EFF0E036EA8D0086A096A07504B
:10107600D8B4CEEF08F00350D8B4D3EF08F002503E
:1010860006180A6E028E068E0E6A02C008F001C0AD
:101096000CF000C00DF004500D5E0550D8A0053CC4
:1010A6000C5E0650D8A0063C085E086A0C6A0D6AFB
:1010B600D8A065EF08F0D89002320132003208322B
:1010C600010E0E6E0750035ED8A072EF08F07E0E7A
:1010D6000E240326D8B0D8EF08F078EF08F07E0E7D
:1010E6000E240326D8A0DDEF08F0180E0B6E0D3681
:1010F6000C3608360036013602360E360450005ECF
:101106000550D8A0053C015E0650D8A0063C025EFC
:1011160006340E120EA093EF08F00D809EEF08F035
:10112600045000260550D8B0053C01260650D8B01C
:10113600062802260D900B2E7AEF08F0C4EF08F071
:10114600D8900036013602360E360450005E055041
:10115600D8A0053C015E0650D8A0063C025E0634C7
:101166000E10010B0D26D8B00C2AD8B4082AD8A424
:10117600C4EF08F008320C320D32032AD8B4D8EF87
:1011860008F00AAE089E0850026E0C50016E0D5013
:10119600006EE0EF08F0010E03EC03F0E0EF08F05C
:1011A600020EE3EC02F0E0EF08F0040EF7EC02F0BA
:0C11B600E0EF08F0080EEAEC02F0120076
:1011C2000450000A08E10550000A05E1FF0E006E16
:1011D2007F0E016E58D00D6A096A086A015000102C
:1011E200D8B4000C015005180A6E0ABE0D1E0B6A17
:1011F20005AE05D0041E051E042AD8B4052A01AE88
:1012020005D0001E011E002AD8B4012A0150051083
:101212000A6E0ABE10D057EC03F00BB020D00DAE10
:10122200000C001E011E002AD8B4012A081E091E45
:10123200082AD8B4092A000C05AE0DD001BE07D089
:101242000150096E0050086E016A006AE8D7016A0F
:10125200006A002A000C011E001E0B2ADDD7082A94
:10126200D8B4092A0450085CD8A4D9D70550095C1F
:10127200D8A4D5D7096A086A002AD8B4012A01AECF
:08128200CED70000FF0C1200A2
:10128A0003500718D8A459EF09F002500618D8A439
:10129A0059EF09F001500518D8A459EF09F0005088
:0E12AA000418D8B4D8841200D8941200120090
:1012B8000C6A0E6A0250D8A475EF09F001C002F05A
:1012C80000C001F0006A0E860250D8A475EF09F03C
:1012D80001C002F0016A0E960E880250D8B487EF5A
:1012E80009F00E50035ED8A4D8A08DEF09F0D8906D
:1012F80002BE93EF09F0003601360236032E7CEF6A
:1013080009F08DEF09F0010E0C6EE3EC02F097EF97
:1013180009F0020E0C6EEAEC02F097EF09F0040EE9
:081328000C6EDFEC02F0120074
:10133000025006180E6E086A096A0B6A03500764A9
:101340008BEF0AF006500A6E068E028E03500B6E6B
:101350000750036E000E0B64DBEF09F00B50075EC5
:10136000D8B47CEF0AF0070E07644AEF0AF0075E74
:1013700000C008F001C000F002C001F0026A074E90
:101380007CEF0AF007641FEF0AF0075E00C008F068
:1013900001C000F0016A074E7CEF0AF00764FDEF20
:1013A00009F0075E00C008F0006A074E7CEF0AF003
:1013B0000764E4EF09F00AC002F005C001F004C0C0
:1013C00000F0086AA8EF0BF0030E0764EFEF09F0D6
:1013D000075E08380F0B086E074E7CEF0AF0D890B6
:1013E0000832074E7CEF0AF0D8900832074E7CEFA7
:1013F0000AF0D89008327CEF0AF0030E07640EEF73
:101400000AF0075E08380F0B086E0038F00B08264C
:1014100000380F0B006E074E7CEF0AF0D8900032B8
:101420000832074E7CEF0AF0D89000320832074E9F
:101430007CEF0AF0D890003208327CEF0AF0030EFD
:10144000076436EF0AF0075E08380F0B086E0038A5
:10145000F00B082600380F0B006E0138F00B002649
:1014600001380F0B016E074E7CEF0AF0D890013265
:1014700000320832074E7CEF0AF0D8900132003279
:101480000832074E7CEF0AF0D89001320032083261
:101490007CEF0AF0030E076467EF0AF0075E083876
:1014A0000F0B086E0038F00B082600380F0B006E8B
:1014B0000138F00B002601380F0B016E0238F00BDB
:1014C000012602380F0B026E074E7CEF0AF0D8900F
:1014D0000232013200320832074E7CEF0AF0D89017
:1014E0000232013200320832074E7CEF0AF0D89007
:1014F0000232013200320832096A000E0EAE70EF7D
:101500000BF0081E001E011E021E082A00220122E6
:10151000022270EF0BF00750D8A491EF0AF0A8EF69
:101520000BF0096A02C00AF0028E068E0750035CB7
:10153000076ED8B463EF0BF0070E076431EF0BF0C2
:10154000075E0450096E0550046E0650056E066A6B
:10155000074E63EF0BF0070E076406EF0BF0075E14
:101560000450096E0550046E056A074E63EF0BF0D8
:10157000070E0764E4EF0AF0075E0450096E046A80
:10158000074E63EF0BF0070E0764CBEF0AF00AC0BB
:1015900002F0A8EF0BF0030E0764D6EF0AF0075E27
:1015A00009380F0B096E074E63EF0BF0D890093224
:1015B000074E63EF0BF0D8900932074E63EF0BF044
:1015C000D890093263EF0BF0030E0764F5EF0AF0D1
:1015D000075E09380F0B096E0438F00B0926043832
:1015E0000F0B046E074E63EF0BF0D89004320932F4
:1015F000074E63EF0BF0D89004320932074E63EFC9
:101600000BF0D8900432093263EF0BF0030E07643D
:101610001DEF0BF0075E09380F0B096E0438F00B55
:10162000092604380F0B046E0538F00B0426053824
:101630000F0B056E074E63EF0BF0D89005320432A6
:101640000932074E63EF0BF0D890053204320932AD
:10165000074E63EF0BF0D89005320432093263EF86
:101660000BF0030E07644EEF0BF0075E09380F0B0B
:10167000096E0438F00B092604380F0B046E053888
:10168000F00B042605380F0B056E0638F00B052607
:1016900006380F0B066E074E63EF0BF0D89006323C
:1016A000053204320932074E63EF0BF0D890063250
:1016B000053204320932074E63EF0BF0D890063240
:1016C000053204320932086A000E0EAE70EF0BF0DC
:1016D000091E041E051E061E092A042205220622D2
:1016E000095008260450002205500122065002220B
:1016F0000EBE87EF0BF0D8A096EF0BF0023201324E
:1017000000320832033E96EF0BF0A2EF0BF0D8B098
:101710009CEF0BF0000E081E001E011E021E082A80
:101720000022012202220A7E9CEF0BF0010E0C6EB9
:1017300083EC03F0AAEF0BF0020E0C6E83EC03F0C7
:10174000AAEF0BF0040E0C6EF7EC02F0AAEF0BF010
:06175000000E0C6E1200F9
:101756000900F5CFE6FF0006FBE10106F9E11200FC
:101766000301636B050E635D0AE263516125E16E59
:10177600000E6221E26E200EE66E632BF3D76351F4
:101786006125E16E000E6221E26EE66A630763512F
:101796006125646F000E6221656F0A0E046E000EED
:1017A600056E5FC300F060C301F074EC04F008C07E
:1017B60000F009C001F0300E002664C3E1FF65C3E6
:1017C600E2FF00C0E6FF0A0E046E000E056E5FC360
:1017D60000F060C301F074EC04F000C05FF301C0D8
:1017E60060F3000E011802E1000E001801E102D0BC
:0617F6006307CDD71200CD
:1017FC0002019F915FC367F307EC03F09F81120016
:10180C000050086E0150006E0250016E0350026EC3
:10181C00036A0B6A0C6A9E0E036E0A6A020E0C6E49
:06182C0083EC03F0120042
:1018320003010007000700C301F000070150000880
:1018420003E200000000F7D70000000000000000E3
:041852000000120080
:1018560003012D6B2E6B27C32FF328C330F3800EA5
:101866002819006E800E005C02E1000E275D0BE277
:10187600010E2D6F000E2E6F275100082F6F28C303
:1018860030F3000E30572FC35FF330C360F329C324
:1018960061F32AC362F364DF060E2B6F000E2C6F12
:1018A600000E006E2C51005C02E12B51000819E27B
:1018B6002B512925E16E2C512A21E26E010E2B5D5A
:1018C600006E000E2C59016E00502925E96E01505C
:1018D6002A21EA6EEECFE6FF010E2B5F000E2C5B8F
:1018E600DFD729C3E1FF2AC3E2FF200EE66E2D51A2
:1018F6002E111AE02B6B2C6B2B512925E96E2C51DE
:101906002A21EA6EEE50200A03E12B4B2C2BF4D74A
:10191600010E2B5F000E2C5B2B512925E16E2C51FD
:0A1926002A21E26E2D0EE66E12007B
:101930000201946B956B800E03012819006E800ED6
:1019400002019519005C03E194510301275D0EE348
:101950008B82530E0D6E0D2EFED78B92530E0D6E95
:0E1960000D2EFED70201944B952BE5D71200F9
:10196E00020E0C6E9C0E0D6E0D2EFED70C2EFCD79D
:06197E0000000000120051
:1019840010D0800E0301276F1AD0C00E276F17D016
:10199400940E276F14D0D40E276F11D0800E276FAA
:1019A4000ED003012751010AECE02751020AEDE0B1
:1019B4002751030AEDE02751040AEDE0EFD728058B
:1019C400006E2751002600C027F300C067F307EC20
:1019D40003F09F910301006B00512925E96E000E6D
:1019E4002A21EA6EEE520CE000512925E96E000E20
:1019F4002A21EA6EEECF5FF3FFDE0301002BECD762
:061A040002019F811200A7
:101A0A0003012E6B2F6B2DC35CF37E0EF66E3D0E1B
:101A1A00F76E000EF86E300EE16E030EE26E280EBF
:101A2A00006E010E016E92DE2DC300F0000E016EF3
:101A3A00003600900136003600900136300E002440
:101A4A005D6F030E01205E6F5DC3E9FF5EC3EAFFAF
:101A5A00EECF00F0EECF01F0EECF02F0EECF03F0C2
:101A6A00D0DE27C304F028C305F029C306F02AC331
:101A7A0007F081EC05F087EC07F000C058F301C0CD
:101A8A0059F302C05AF303C05BF35DC3E9FF5EC3B7
:101A9A00EAFFEECF05F0EECF06F0EECF07F0EECF7D
:101AAA0008F00850035C08E10750025C05E10650A3
:101ABA00015C02E10550005C02E2010E2F6F000E8C
:101ACA002EBFFF0E006E000E001802E12D512E19D6
:101ADA000CE12E512B25E16E000E2EBFFF0E2C219C
:101AEA00E26E2E0EE66E2E2B41D02E512B255D6F07
:101AFA00000E2EBFFF0E2C215E6F0A0E046E000E22
:101B0A00056E066E076E58C300F059C301F05AC33A
:101B1A0002F05BC303F011EC06F008C000F009C044
:101B2A0001F00AC002F00BC003F0300E00265DC3BC
:101B3A00E1FF5EC3E2FF00C0E6FF2E2B0A0E046E31
:101B4A00000E056E066E076E58C300F059C301F009
:101B5A005AC302F05BC303F011EC06F000C058F35D
:101B6A0001C059F302C05AF303C05BF35CC301F02E
:101B7A005C07800E000A006E800E0118005C9FE36D
:101B8A00585159115A115B119AE12F530BE02E51FA
:101B9A002B25E16E000E2EBFFF0E2C21E26E300EB9
:101BAA00E66E2E2B2E512B25E16E000E2EBFFF0E58
:101BBA002C21E26EE66A2E05006F2E6B800E2E191E
:101BCA00006E800E0019005C29E22E512B25006E52
:101BDA00000E2EBFFF0E2C21016E00C0E9FF01C0CE
:101BEA00EAFFEECF2FF300512B25E96E000E00BF5E
:101BFA00FF0E2C21EA6E00C0E1FF01C0E2FFEECF2A
:101C0A00E6FF00512B25E16E000E00BFFF0E2C21CE
:0E1C1A00E26E2FC3E6FF2E2B0007D0D712007C
:101C28000B6A0350D8B45AEF0EF002500A6E028EB7
:101C38008E0E035E03AE5EEF0EF0036C080E035CBF
:101C4800D8A039EF0EF0036E013602C001F0026A27
:101C5800080E035CD8A039EF0EF0036E0136016A56
:101C68000350D8A4D89043EF0EF00350D8B443EFF4
:101C78000EF0D89002320132032E3DEF0EF00BBC6D
:101C880001A050EF0EF0D8A050EF0EF0012AD8B402
:101C9800022A02BE6DEF0EF00AAE73EF0EF0021EBE
:101CA800011E012AD8B4022A73EF0EF0026A016AF3
:101CB80073EF0EF00B800BAE77EF0EF0026A0AAEF0
:101CC80077EF0EF0FF0E026E016E0A36023277EFE2
:101CD8000EF0010E0C6E49EC03F079EF0EF0000ED9
:101CE8000C6E79EF0EF0FF0E0C6E0150006E025074
:041CF800016E120067
:101CFC0000C008F00150006E016A026A036A0B6AA8
:101D0C000C6A016A026A036A960E036E0A6A00AED6
:101D1C0096EF0EF0081E001E082AD8B4002A0A8E70
:101D2C0000C001F008C000F0086A026A5CEC09F01F
:021D3C00120093
:081D3E00067E98EC09F012008A
:101D46000050086E0150006E016A026A036A0B6A4F
:101D56000C6A960E036E0A6A00C001F008C000F015
:0A1D6600086A026A5CEC09F0120042
:101D700027C304F028C305F029C306F02AC307F0DF
:101D8000006A016A026A036A8FEC04F0000ED8B0A0
:101D9000010E006E005205E0006A016A026A036AE1
:101DA000F9D027C32BF328C32CF329C32DF32AC35F
:101DB0002EF3000E046E000E056E000E066E7F0EF2
:101DC000076E27C300F028C301F029C302F02AC31D
:101DD00003F08FEC04F0010ED8B0000E006E00523C
:101DE0001AE02BC304F02CC305F02DC306F02EC35C
:101DF00007F0000E006E000E016E000E026E7F0EE8
:101E0000036E23EC08F000C02BF301C02CF302C0DA
:101E10002DF303C02EF32BC35FF32CC360F32DC34C
:101E200061F32EC362F3330E0301636F030E646F1D
:101E3000F6EC04F000C02BF301C02CF302C02DF32C
:101E400003C02EF300C05FF301C060F302C061F372
:101E500003C062F3020E046E000E056E33C300F081
:101E600034C301F0E1EC08F000C063F301C064F397
:101E70001FEC05F000C02BF301C02CF302C02DF3C2
:101E800003C02EF3000E046E000E056E000E066EEB
:101E90007F0E076E27C300F028C301F029C302F0AC
:101EA0002AC303F08FEC04F0010ED8B0000E006ED0
:101EB00000521AE02BC304F02CC305F02DC306F02A
:101EC0002EC307F0000E006E000E016E000E026EB3
:101ED0007F0E036E23EC08F000C02BF301C02CF33F
:101EE00002C02DF303C02EF3140E0301006F2BC3A9
:101EF00004F02CC305F02DC306F02EC307F027C352
:101F000000F028C301F029C302F02AC303F023EC38
:101F100008F02BC304F02CC305F02DC306F02EC32C
:101F200007F098EC09F0000E046E000E056E000E2E
:101F3000066E800E076E23EC08F000C02FF301C080
:101F400030F302C031F303C032F32BC304F02CC3CF
:101F500005F02DC306F02EC307F045EC09F0010E85
:101F6000D8A4000E006E005201E00CD02FC32BF35A
:101F700030C32CF331C32DF332C32EF3030100071A
:101F80000053B5E12BC300F02CC301F02DC302F0C8
:061F90002EC303F0120055
:101F9600000E006E02019351005C02E192510708A7
:101FA60011E3CEC227F3CFC228F3D0C229F3D1C2A0
:101FB6002AF3830E03012B6F020E2C6F010E2D6F79
:101FC60021DD10D00301CEC227F3CFC228F3D0C241
:101FD60029F3D1C22AF3830E2B6F020E2C6F040E47
:101FE6002D6F10DD010E676F07EC03F0010E030184
:101FF600276F010E286FCCC229F3CDC22AF3BFDCAE
:10200600020E0301276F010E286F830E296F020E41
:102016002A6FB5DC020E0301276F0A0E286FD2C2A3
:1020260029F3D3C22AF3ABDC020E0B6E450E0C6EFF
:10203600A90E0D6E0D2EFED70C2EFCD70B2EFAD741
:0620460000000000120082
:10204C00036AB40E016E020E026E03500126D8B064
:10205C00022A03500201CC25F66E000ECD21F76E3C
:10206C00000ECE21F86E0900F5CF00F001C0E1FFA3
:10207C0002C0E2FF00C0E6FF01C0E9FF02C0EAFFB8
:10208C00EE5202E0032ADDD7B40E006E020E016E92
:02209C00120030
:10209E000301706B6CC301F0010E006E015004E081
:1020AE0000360090FF0FFBD700C06FF36AC3E9FF45
:1020BE006BC3EAFF0050EE14016E0152010ED8A45C
:1020CE00000E006E6E51001A18E06D51000804E209
:1020DE0047DC46DC6D07F9D76AC3E9FF6BC3EAFF3D
:1020EE006F51EE14016E0152010ED8A4000E006E57
:1020FE006E51001A02E0FF0E706F70C300F01200F6
:10210E00CEC227F3CFC228F3780E0301296F020E39
:10211E002A6F2BEC0CF0010E676F07EC03F0010E2B
:10212E000301276F010E286FCCC229F3CDC22AF30B
:10213E0022DC020E0301276F010E286F780E296F25
:10214E00020E2A6F18DC000E935D02E1120E925DF4
:10215E0005E3010E7F6F000E806F04D00A0E7F6FB5
:10216E00000E806F020E0301276F7FC228F3D0C2CC
:10217E0029F3D1C22AF3C2EC0CF0020E0B6E450EFF
:10218E000C6EA90E0D6E0D2EFED70C2EFCD70B2E3F
:08219E00FAD700000000120056
:1021A60092929290929492969298929A899289900B
:1021B600899A899889968994CCEC02F0CCEC02F045
:1021C600CCEC02F0898689848982D6EC02F0899269
:1021D600CCEC02F08982D6EC02F08992CCEC02F0CB
:1021E6008982D6EC02F08992CCEC02F0899489823D
:1021F600D6EC02F08992CCEC02F08982D6EC02F0A1
:1022060089928996898A8982D6EC02F08992CCECE9
:1022160002F0899A89848982D6EC02F0899289949F
:102226008982D6EC02F08992CCEC02F08982D6EC57
:1022360002F0899289848982D6EC02F08992CCECEC
:1022460002F089948982D6EC02F08992898A89887B
:10225600898689848982D6EC02F08992CCEC02F0D8
:0622660002019F8112003D
:10226C00036AA00E016E020E026E03500126D8B056
:10227C00022A03500201CC25F66E000ECD21F76E1A
:10228C00000ECE21F86E0900F5CF00F001C0E1FF81
:10229C0002C0E2FF00C0E6FF01C0E9FF02C0EAFF96
:1022AC00EE5202E0032ADDD7A00E006E020E016E84
:0222BC0012000E
:1022BE0002019A6B9B6B78C019F379C01AF37AC03E
:1022CE001BF37BC01CF330C0D0F231C0D1F232C050
:1022DE00D2F233C0D3F27EC013F37FC014F380C0AA
:1022EE0015F381C016F382C017F383C018F384C0B0
:1022FE0000F085C001F0FBDC00C005F301C006F361
:10230E0002C007F303C008F3000E046E000E056E44
:10231E00000E066E7D0E076E0BDD00C005F301C0CC
:10232E0006F302C007F303C008F3000E0301096FA2
:10233E00000E0A6F1B0E0B6F870E0C6F010E676F70
:10234E0007EC03F0010E0301276F010E286FD00E6C
:10235E00296F010E2A6FC2EC0CF01BC300F01CC3D8
:10236E0001F0C5DCD0C204F0D1C205F0D2C206F035
:10237E00D3C207F081EC05F050DC00C01DF301C0A4
:10238E001EF3B5DC00C01FF301C020F302C021F321
:10239E0003C022F319C300F01AC301F0A8DC00C079
:1023AE0004F001C005F002C006F003C007F01FC321
:1023BE0000F020C301F021C302F022C303F023EC8E
:1023CE0008F000C0CCF201C0CDF202C0CEF203C0C4
:1023DE00CFF22E0E03015F6FFEEC0BF0020E0B6EB2
:1023EE00450E0C6EA90E0D6E0D2EFED70C2EFCD7C3
:1023FE000B2EFAD7000000001DC300F01EC301F023
:10240E0076DC00C027F301C028F302C029F303C015
:10241E002AF3A7DC00C0D4F201C0D5F202C0D6F276
:10242E0003C0D7F22E0E03015F6FFEEC0BF0020E0F
:10243E000B6E450E0C6EA90E0D6E0D2EFED70C2ECC
:10244E00FCD70B2EFAD700000000D4C204F0D5C280
:10245E0005F0D6C206F0D7C207F0000E006E000ED1
:10246E00016E280E026E840E036E23EC08F000C07F
:10247E001FF301C020F302C021F303C022F319C3DE
:10248E0000F01AC301F033DC1FC304F020C305F0C3
:10249E0021C306F022C307F081EC05F000C023F340
:1024AE0001C024F302C025F303C026F323C3FCF2BC
:1024BE0024C3FDF225C3FEF226C3FFF21BC300F0B8
:1024CE001CC301F014DC1FC304F020C305F021C3AC
:1024DE0006F022C307F081EC05F000C01FF301C027
:1024EE0020F302C021F303C022F31FC301F320C364
:1024FE0002F321C303F322C304F323C300F024C366
:10250E0001F025C302F026C303F0000E046E000E88
:10251E00056E000E066E7F0E076E98EC09F000C079
:10252E00FCF201C0FDF202C0FEF203C0FFF21FC3B7
:10253E0000F020C301F021C302F022C303F0000E0D
:10254E00046E000E056E000E066E7F0E076E98EC82
:10255E0009F000C001F301C002F302C003F303C08F
:10256E0004F32E0E03015F6FFEEC0BF0020E0B6EEA
:10257E00450E0C6EA90E0D6E0D2EFED70C2EFCD731
:10258E000B2EFAD700000000120E7F6F000E806F28
:10259E00040E026E7FC200F080C201F0025005E010
:1025AE00003600900136FF0FFAD7A00E0026000E5F
:1025BE0001220C0E0024D96E000E0120DA6EDECF41
:1025CE0004F0DECF05F0DECF06F0DECF07F0CCC292
:1025DE0000F0CDC201F0CEC202F0CFC203F08FECFC
:1025EE0004F0010ED8B0000E006E00527CE0010E19
:1025FE007F5D036E000E8059046E040E026E03C0E2
:10260E0000F004C001F0025005E0003600900136E3
:10261E00FF0FFAD7A00E002403011F6F000E01203A
:10262E00206F1FC3E9FF20C3EAFFEECF00F0EECF0D
:10263E0001F0EECF02F0EECF03F014EC0EF000C07E
:10264E000DF301C00EF3040E1F25E96E000E2021BE
:10265E00EA6EEECF00F0EECF01F0EECF02F0EECF4D
:10266E0003F009C304F00AC305F00BC306F00CC354
:10267E0007F081EC05F000C0F4F201C0F5F202C0E3
:10268E00F6F203C0F7F2040E1F25D96E000E2021BC
:10269E00DA6EDECF04F0DECF05F0DECF06F0DECF51
:1026AE0007F005C300F006C301F007C302F008C32C
:1026BE0003F023EC08F000C0D8F201C0D9F202C03A
:1026CE00DAF203C0DBF2040E03011F25E96E000EE1
:1026DE002021EA6EEECFECF2EECFEDF2EECFEEF27F
:1026EE00EECFEFF206D0010E02017F5F000E805B8F
:1026FE004FD70201120E7F6F000E806F040E026E16
:10270E007FC200F080C201F0025005E0003600905A
:10271E000136FF0FFAD7A00E0026000E01220C0E76
:10272E000024D96E000E0120DA6EDECF04F0DECF6B
:10273E0005F0DECF06F0DECF07F0D0C200F0D1C23A
:10274E0001F0D2C202F0D3C203F08FEC04F0010EFE
:10275E00D8B0000E006E0052D8B47DD00201010E2A
:10276E007F5D036E000E8059046E040E026E03C070
:10277E0000F004C001F0025005E000360090013672
:10278E00FF0FFAD7A00E002403011F6F000E0120C9
:10279E00206F1FC3E9FF20C3EAFFEECF00F0EECF9C
:1027AE0001F0EECF02F0EECF03F014EC0EF000C00D
:1027BE000FF301C010F3040E1F25E96E000E202149
:1027CE00EA6EEECF00F0EECF01F0EECF02F0EECFDC
:1027DE0003F009C304F00AC305F00BC306F00CC3E3
:1027EE0007F081EC05F000C0F8F201C0F9F202C06A
:1027FE00FAF203C0FBF2040E1F25D96E000E202143
:10280E00DA6EDECF04F0DECF05F0DECF06F0DECFDF
:10281E0007F005C300F006C301F007C302F008C3BA
:10282E0003F023EC08F000C0DCF201C0DDF202C0C0
:10283E00DEF203C0DFF2040E03011F25E96E000E67
:10284E002021EA6EEECFF0F2EECFF1F2EECFF2F201
:10285E00EECFF3F206D0010E02017F5F000E805B19
:10286E004DD72E0E03015F6FFEEC0BF0020E0B6EBA
:10287E00450E0C6EA90E0D6E0D2EFED70C2EFCD72E
:10288E000B2EFAD70000000013C311F314C312F37A
:10289E00030111371191123715C300F016C301F061
:1028AE0000360090013600501127015012232E0ED3
:1028BE005F6FFEEC0BF0020E0B6E450E0C6EA90E4A
:1028CE000D6E0D2EFED70C2EFCD70B2EFAD7000058
:1028DE0000002E0E03015F6FFEEC0BF0020E0B6E6E
:1028EE00450E0C6EA90E0D6E0D2EFED70C2EFCD7BE
:1028FE000B2EFAD70000000017C300F018C301F02A
:10290E007EEC0EF005C304F006C305F007C306F017
:10291E0008C307F081EC05F000C023F301C024F3D7
:10292E0002C025F303C026F3D8C204F0D9C205F0C5
:10293E00DAC206F0DBC207F0FCC200F0FDC201F005
:10294E00FEC202F0FFC203F023EC08F005C304F050
:10295E0006C305F007C306F008C307F081EC05F0C7
:10296E00ECC204F0EDC205F0EEC206F0EFC207F0C5
:10297E0081EC05F000C01FF301C020F302C021F36B
:10298E0003C022F3DCC204F0DDC205F0DEC206F0A5
:10299E00DFC207F001C300F002C301F003C302F06F
:1029AE0004C303F023EC08F005C304F006C305F0DE
:1029BE0007C306F008C307F081EC05F0F0C204F07F
:1029CE00F1C205F0F2C206F0F3C207F081EC05F099
:1029DE001FC304F020C305F021C306F022C307F085
:1029EE0098EC09F000C004F001C005F002C006F03A
:1029FE0003C007F023C300F024C301F025C302F087
:102A0E0026C303F09FEC0EF000C0E8F201C0E9F21D
:102A1E0002C0EAF203C0EBF22E0E03015F6FFEEC72
:102A2E000BF0020E0B6E450E0C6EA90E0D6E0D2EDA
:102A3E00FED70C2EFCD70B2EFAD7000000001DC3BC
:102A4E0088F01EC389F0CCC24CF0CDC24DF0CEC280
:102A5E004EF0CFC24FF011C38CF012C38DF0FCC2FA
:102A6E0054F0FDC255F0FEC256F0FFC257F001C33E
:102A7E0058F002C359F003C35AF004C35BF00DC300
:102A8E0092F00EC393F00FC394F010C395F0E0C212
:102A9E0064F0E1C265F0E2C266F0E3C267F0E4C240
:102AAE0068F0E5C269F0E6C26AF0E7C26BF0E8C210
:102ABE006CF0E9C26DF0EAC26EF0EBC26FF0D8C2F4
:102ACE0070F0D9C271F0DAC272F0DBC273F0DCC200
:102ADE0074F0DDC275F0DEC276F0DFC277F0F4C2BC
:102AEE0080F0F5C281F0F6C282F0F7C283F0F8C230
:102AFE0084F0F9C285F0FAC286F0FBC287F02E0E82
:102B0E0003015F6FFEEC0BF0060E0B6E130E0C6ED8
:102B1E00AD0E0D6E0D2EFED70C2EFCD70B2EFAD74A
:102B2E0000000000010E0301676F07EC03F0924BEB
:102B3E00932B010E9A6F000E9B6F060E0B6E130EEB
:102B4E000C6EAD0E0D6E0D2EFED70C2EFCD70B2E71
:082B5E00FAD70000000012008C
:102B66000201946B956B800ECD19006E800E95193F
:102B7600005C02E19451CC5D0FE38B82460E0301AB
:102B8600006F19EC0CF08B92460E006F19EC0CF0EE
:0A2B96000201944B952BE7D71200C3
:102BA0000B6A0A6A096A00500402F4CF09F0F3CFF5
:102BB00008F001500502F4CF0BF0F3CF0AF00050FB
:102BC0000502F3500926F4500A22E86A0B2201504C
:102BD0000402F3500926F4500A22E86A0B2208C0C6
:102BE00000F009C001F00AC002F00BC003F01200AF
:102BF00002019A6B9B6B010E986F000E996F966B9A
:102C0000976BD0C2D4F2D1C2D5F2D2C2D6F2D3C21F
:102C1000D7F28B908B948B8CA30E0C6E550E0D6E91
:102C20000D2EFED70C2EFCD78B8E000E821902E1E2
:102C3000010E81191DE1816B826BCEC227F3CFC2D9
:102C400028F398EC0CF096C227F397C228F3780E7D
:102C50000301296F020E2A6F2BEC0CF0020E276F76
:102C60000A0E286F780E296F020E2A6FC2EC0CF044
:102C700096C200F097C201F0A3EC0EF0D4C204F0AB
:102C8000D5C205F0D6C206F0D7C207F08FEC04F02B
:102C9000000ED8B0010E006E00521BE0D4C200F04E
:102CA000D5C201F0D6C202F0D7C203F0D0C204F000
:102CB000D1C205F0D2C206F0D3C207F098EC09F0F9
:102CC00000C0D4F201C0D5F202C0D6F203C0D7F2E0
:102CD0008274CD51975D02E1CC51965DA6E38B9E47
:102CE000A30E0C6E550E0D6E0D2EFED70C2EFCD7BE
:102CF0008B9C986B996B010E9A6F000E9B6F8B806B
:102D0000924B932B030E0B6E8A0E0C6E550E0D6EAE
:102D10000D2EFED70C2EFCD70B2EFAD7000000008C
:022D200012009F
:102D220099EC1FF0926AFF0E936E080E946E0F0ECE
:102D3200C16E070EB46E806A816A826A020E0B6EE1
:102D4200450E0C6EA90E0D6E0D2EFED70C2EFCD765
:102D52000B2EFAD700000000D3EC10F0D190F286CF
:102D6200F290F190F288F292F086F090F088F09270
:102D7200F28E020E0B6E450E0C6EA90E0D6E0D2E0E
:102D8200FED70C2EFCD70B2EFAD7000000006D9652
:102D92006F868290816B826B829E829C010E030100
:102DA200676F07EC03F0010E0301276F030E286F14
:102DB200FF0E296F010E2A6FC2EC0CF0020E030106
:102DC200276F040E286FF30E296F010E2A6FC2ECD3
:102DD2000CF0070E0B6E580E0C6E590E0D6E0D2E6A
:102DE200FED70C2EFCD70B2EFAD700000000010EE6
:102DF2000301676F07EC03F0010E0301276F020E58
:102E0200286FED0E296F010E2A6FC2EC0CF0020E34
:102E12000301276F020E286F410E296F020E2A6FDF
:102E2200C2EC0CF0070E0B6E580E0C6E590E0D6EA6
:102E32000D2EFED70C2EFCD70B2EFAD70000000069
:102E4200986B996B1E0EC86F000EC96F926B936BD5
:102E5200070E0B6E580E0C6E590E0D6E0D2EFED710
:102E62000C2EFCD70B2EFAD700000000010E9A6F31
:102E7200000E9B6F9351C95D02E19251C85D02E25F
:102E8200926B936B0C0E0301676F07EC03F0C5EFB7
:102E92001CF0030E006E000E016E92C204F093C28B
:102EA20005F07DDE0B0E0024E96E020E0120EA6EB3
:102EB200EECFCCF2EECFCDF2EECFCEF226EC10F08A
:102EC20000C0CCF201C0CDF292C200F093C201F078
:102ED200003600900136780E0024E96E000E0120C3
:102EE200EA6EEECFCEF2EECFCFF2DBC1D0F2DCC192
:102EF200D1F287EC10F093EF1DF0030E006E000E7E
:102F0200016E92C204F093C205F049DE0B0E00245A
:102F1200E96E020E0120EA6EEECFCCF2EECFCDF2D8
:102F2200EECFCEF226EC10F000C0CCF201C0CDF212
:102F320092C200F093C201F0003600900136780E82
:102F42000024E96E000E0120EA6EEECFCEF2EECF43
:102F5200CFF2DBC1D0F2DCC1D1F287EC10F093EFFB
:102F62001DF0030E006E000E016E92C204F093C2B9
:102F720005F015DE0B0E0024E96E020E0120EA6E4A
:102F8200EECFCCF2EECFCDF2EECFCEF226EC10F0B9
:102F920000C0CCF201C0CDF292C200F093C201F0A7
:102FA200003600900136003600900136280E0024CB
:102FB200E96E000E0120EA6EEECFCEF2EECFCFF236
:102FC200EECFD0F2EECFD1F2DDC1D2F2DEC1D3F23A
:102FD200CBEC0FF093EF1DF0030E006E000E016EAE
:102FE20092C204F093C205F0DADD0B0E0024E96E02
:102FF200020E0120EA6EEECFCCF2EECFCDF2EECF92
:10300200CEF226EC10F000C0CCF201C0CDF292C29A
:1030120000F093C201F0003600900136780E0024D1
:10302200E96E000E0120EA6EEECFCEF2EECFCFF2C5
:10303200DFC1D0F2E0C1D1F287EC10F093EF1DF0C6
:10304200030E006E000E016E92C204F093C205F0F0
:10305200A6DD0B0E0024E96E020E0120EA6EEECF11
:10306200CCF2EECFCDF2EECFCEF226EC10F000C0D5
:10307200CCF201C0CDF292C200F093C201F0003650
:1030820000900136780E0024E96E000E0120EA6EEF
:10309200EECFCEF2EECFCFF2DFC1D0F2E0C1D1F26D
:1030A20087EC10F093EF1DF0030E006E000E016E20
:1030B20092C204F093C205F072DD0B0E0024E96E99
:1030C200020E0120EA6EEECFCCF2EECFCDF2EECFC1
:1030D200CEF226EC10F000C0CCF201C0CDF292C2CA
:1030E20000F093C201F0003600900136780E002401
:1030F200E96E000E0120EA6EEECFCEF2EECFCFF2F5
:10310200DFC1D0F2E0C1D1F287EC10F093EF1DF0F5
:10311200030E006E000E016E92C204F093C205F01F
:103122003EDD0B0E0024E96E020E0120EA6EEECFA8
:10313200CCF2EECFCDF2EECFCEF226EC10F000C004
:10314200CCF201C0CDF292C200F093C201F000367F
:1031520000900136780E0024E96E000E0120EA6E1E
:10316200EECFCEF2EECFCFF2DFC1D0F2E0C1D1F29C
:1031720087EC10F093EF1DF05FEC11F093EF1DF070
:10318200030E006E000E016E92C204F093C205F0AF
:1031920006DD0B0E0024E96E020E0120EA6EEECF70
:1031A200CCF2EECFCDF2EECFCEF226EC10F000C094
:1031B200CCF201C0CDF292C200F093C201F000360F
:1031C20000900136780E0024E96E000E0120EA6EAE
:1031D200EECFCEF2EECFCFF2E9C1D0F2EAC1D1F218
:1031E20087EC10F093EF1DF0030E006E000E016EDF
:1031F20092C204F093C205F0D2DC0B0E0024E96EF9
:10320200020E0120EA6EEECFCCF2EECFCDF2EECF7F
:10321200CEF226EC10F000C0CCF201C0CDF292C288
:1032220000F093C201F000360090013600360090A3
:103232000136280E0024E96E000E0120EA6EEECF60
:10324200CEF2EECFCFF2EECFD0F2EECFD1F2DDC1A1
:10325200D2F2DEC1D3F2CBEC0FF093EF1DF0030EEE
:10326200006E000E016E92C204F093C205F097DC6C
:103272000B0E0024E96E020E0120EA6EEECFCCF2B4
:10328200EECFCDF2EECFCEF226EC10F000C0CCF2B3
:1032920001C0CDF292C200F093C201F0003600905C
:1032A2000136780E0024E96E000E0120EA6EEECFA0
:1032B200CEF2EECFCFF2DFC1D0F2E0C1D1F287EC95
:1032C20010F093EF1DF0030E006E000E016E92C21D
:1032D20004F093C205F063DC0B0E0024E96E020ECB
:1032E2000120EA6EEECFCCF2EECFCDF2EECFCEF2EF
:1032F20026EC10F000C0CCF201C0CDF292C200F078
:1033020093C201F00036009001360036009001367B
:10331200280E0024E96E000E0120EA6EEECF00F0C6
:10332200EECF01F0EECF02F0EECF03F014EC0EF090
:1033320000C0CEF201C0CFF2E1C1D0F2E2C1D1F2BF
:1033420087EC10F0EFD3030E006E000E016E92C2F6
:1033520004F093C205F023DC0B0E0024E96E020E8A
:103362000120EA6EEECFCCF2EECFCDF2EECFCEF26E
:1033720026EC10F000C0CCF201C0CDF292C200F0F7
:1033820093C201F0003600900136003600900136FB
:10339200280E0024E96E000E0120EA6EEECF00F046
:1033A200EECF01F0EECF02F0EECF03F014EC0EF010
:1033B20000C0CEF201C0CFF2E1C1D0F2E2C1D1F23F
:1033C20087EC10F0AFD3030E006E000E016E92C2B6
:1033D20004F093C205F0D0EC15F00B0E0024E96E58
:1033E200020E0120EA6EEECFCCF2EECFCDF2EECF9E
:1033F200CEF226EC10F000C0CCF201C0CDF292C2A7
:1034020000F093C201F0003600900136780E0024DD
:10341200E96E000E0120EA6EEECFCEF2EECFCFF2D1
:10342200E3C1D0F2E4C1D1F287EC10F07BD3030EFA
:10343200006E000E016E92C204F093C205F0D0EC51
:1034420015F00B0E0024E96E020E0120EA6EEECF9B
:10345200CCF2EECFCDF2EECFCEF226EC10F000C0E1
:10346200CCF201C0CDF292C200F093C201F000365C
:1034720000900136780E0024E96E000E0120EA6EFB
:10348200EECFCEF2EECFCFF2E3C1D0F2E4C1D1F271
:1034920087EC10F047D3030E006E000E016E92C24D
:1034A20004F093C205F0D0EC15F00B0E0024E96E87
:1034B200020E0120EA6EEECFCCF2EECFCDF2EECFCD
:1034C200CEF226EC10F000C0CCF201C0CDF292C2D6
:1034D20000F093C201F000360090013600360090F1
:1034E2000136280E0024E96E000E0120EA6EEECFAE
:1034F200CEF2EECFCFF2EECFD0F2EECFD1F2E5C1E7
:10350200D2F2E6C1D3F2CBEC0FF00CD3030E006E75
:10351200000E016E92C204F093C205F0D0EC15F0D9
:103522000B0E0024E96E020E0120EA6EEECFCCF201
:10353200EECFCDF2EECFCEF226EC10F000C0CCF200
:1035420001C0CDF292C200F093C201F000360090A9
:103552000136003600900136280E0024E96E000E76
:103562000120EA6EEECFCEF2EECFCFF2EECFD0F266
:10357200EECFD1F2E5C1D2F2E6C1D3F2CBEC0FF03D
:10358200D1D2030E006E000E016E92C204F093C2FD
:1035920005F0D0EC15F00B0E0024E96E020E0120AE
:1035A200EA6EEECFCCF2EECFCDF2EECFCEF226EC3B
:1035B20010F000C0CCF201C0CDF292C200F093C272
:1035C20001F0003600900136003600900136280ED8
:1035D2000024E96E000E0120EA6EEECFCEF2EECFAD
:1035E200CFF2EECFD0F2EECFD1F2E7C1D2F2E8C104
:1035F200D3F2CBEC0FF096D22A0ECC6F3E0ECD6FEB
:10360200000ECE6F36EC11F000C0CAF201C0CBF250
:103612001A0ECC6F3E0ECD6F000ECE6F26EC10F060
:1036220000C0CCF201C0CDF286C0CEF287C0CFF28C
:10363200CAC2D0F2CBC2D1F287EC10F073D2FA0E2A
:10364200CC6F3D0ECD6F000ECE6F36EC11F000C088
:10365200CAF201C0CBF2A10ECC6F3E0ECD6F000EAE
:10366200CE6F26EC10F000C0CCF201C0CDF286C0C5
:10367200CEF287C0CFF2CAC2D0F2CBC2D1F287EC6F
:1036820010F0000E821902E1010E811909E18B90FE
:10369200816B826B960ECC6F000ECD6FB3EC15F082
:1036A20041D2C80ECC6F3D0ECD6F000ECE6F36EC00
:1036B20011F000C0CAF201C0CBF2490ECC6F3E0E2F
:1036C200CD6F000ECE6F26EC10F000C0CCF201C020
:1036D200CDF286C0CEF287C0CFF2CAC2D0F2CBC240
:1036E200D1F287EC10F01ED20A0ECC6F3F0ECD6FD6
:1036F200000ECE6F36EC11F000C0CAF201C0CBF260
:103702001A0ECC6F3E0ECD6F000ECE6F26EC10F06F
:1037120000C0CCF201C0CDF286C0CEF287C0CFF29B
:10372200CAC2D0F2CBC2D1F287EC10F054C000F082
:1037320055C001F056C002F057C003F014EC0EF071
:1037420000C0CCF201C0CDF280C000F081C001F017
:1037520082C002F083C003F014EC0EF000C0CEF27F
:1037620001C0CFF270C0D0F271C0D1F272C0D2F2F9
:1037720073C0D3F2F8EC15F0D5D1A60ECC6F3D0E86
:10378200CD6F000ECE6F36EC11F000C0CAF201C050
:10379200CBF2B70ECC6F3D0ECD6F000ECE6F26EC86
:1037A20010F000C0CCF201C0CDF286C0CEF287C0CC
:1037B200CFF2CAC2D0F2CBC2D1F287EC10F0B2D1B2
:1037C2000A0ECC6F3E0ECD6F000ECE6F36EC11F0AE
:1037D20000C0CAF201C0CBF2D90ECC6F3D0ECD6F44
:1037E200000ECE6F26EC10F000C0CCF201C0CDF27C
:1037F20086C0CEF287C0CFF2CAC2D0F2CBC2D1F21B
:1038020087EC10F08FD1FA0ECC6F3D0ECD6F000E0B
:10381200CE6F36EC11F000C0CAF201C0CBF2A10E9D
:10382200CC6F3E0ECD6F000ECE6F26EC10F000C0B6
:10383200CCF201C0CDF286C0CEF287C0CFF2CAC2AE
:10384200D0F2CBC2D1F287EC10F0000E821902E165
:10385200010E811909E18B90816B826B960ECC6F00
:10386200000ECD6FB3EC15F05DD1C80ECC6F3D0EDE
:10387200CD6F000ECE6F36EC11F000C0CAF201C05F
:10388200CBF2490ECC6F3E0ECD6F000ECE6F26EC02
:1038920010F000C0CCF201C0CDF286C0CEF287C0DB
:1038A200CFF2CAC2D0F2CBC2D1F287EC10F03AD139
:1038B2000A0ECC6F3F0ECD6F000ECE6F36EC11F0BC
:1038C20000C0CAF201C0CBF2D90ECC6F3D0ECD6F53
:1038D200000ECE6F26EC10F000C0CCF201C0CDF28B
:1038E20086C0CEF287C0CFF2CAC2D0F2CBC2D1F22A
:1038F20087EC10F058C000F059C001F05AC002F035
:103902005BC003F014EC0EF000C0CCF201C0CDF2AB
:1039120084C000F085C001F086C002F087C003F0C9
:1039220014EC0EF000C0CEF201C0CFF274C0D0F29F
:1039320075C0D1F276C0D2F277C0D3F2F8EC15F0AE
:10394200F1D0EA0ECC6F3D0ECD6F000ECE6F36EC8D
:1039520011F000C0CAF201C0CBF2B70ECC6F3D0E1F
:10396200CD6F000ECE6F26EC10F000C0CCF201C07D
:10397200CDF286C0CEF287C0CFF2CAC2D0F2CBC29D
:10398200D1F287EC10F0CED0000E931902E1000EB6
:103992009219D8B44AEF17F0000E931902E1010E02
:1039A2009219D8B47EEF17F0000E931902E1020EBD
:1039B2009219D8B4B2EF17F0000E931902E1030E78
:1039C2009219D8B4EDEF17F0000E931902E1040E2C
:1039D2009219D8B421EF18F0000E931902E1050EE6
:1039E2009219D8B455EF18F0000E931902E1060EA1
:1039F2009219D8B489EF18F0000E931902E1070E5C
:103A02009219D8B4BDEF18F0000E931902E1080E16
:103A12009219D8B4C1EF18F0000E931902E1090E01
:103A22009219D8B4F5EF18F0000E931902E10A0EBC
:103A32009219D8B414D4000E931902E10B0E921904
:103A4200D8B441D4000E931902E10C0E9219D8B4E5
:103A52007AD4000E931902E10D0E9219D8B4B3D4A0
:103A6200000E931902E10E0E9219D8B4E0D4000EA2
:103A7200931902E10F0E9219D8B40DD5000E9319C5
:103A820002E1100E9219D8B441D5000E931902E149
:103A9200110E9219D8B475D5000E931902E1120EC7
:103AA2009219D8B4A9D5000E931902E1130E9219F6
:103AB200D8B4C5D5000E931902E1140E9219D8B4E8
:103AC200F0D5000E931902E1150E9219D8B40CD656
:103AD200000E931902E1160E9219D8B44ED6000EBA
:103AE200931902E1170E9219D8B46AD6000E9319EF
:103AF20002E1180E9219D8B486D6000E931902E18B
:103B0200190E9219D8B4B1D6000E931902E11A0E09
:103B12009219D8B4CDD6000E931902E11B0E921958
:0A3B2200D8B40FD737EF17F0FFD724
:103F320010EE28F0500E006E030E016E2C0EF66E7F
:0E3F42003B0EF76E000EF86EABEC0BF01200AB
:0100060000F9
:103B2C0000000000000000000000408000000000C9
:103B3C000000000000000000000000000000000079
:103B4C000000000000000000000000000000000069
:103B5C000000000000000000000000000000000059
:103B6C000000000000000000000000000000000049
:103B7C00DC00060000001D001D000B0024000000EE
:103B8C000000000000000000000000000000000029
:083B9C00000000000000000021
:103BA40000000083D7A3507F508D177952B82E811F
:103BB400000008838FC2357F1EA768788FC20581F5
:103BC40000001083F6281C7FC3642A78E17A4480BD
:103BD400000018835C8F027FA3E96C77EC510880A6
:103BE40000002083E7FB697E3E054077A4705D7F7B
:103BF40000002883C520507E41B71777295C2F7FAA
:103C0400000030831904367E58FF67766666067FA7
:103C140000003883F6281C7EC3642A76A69B447E63
:103C240000004083A01A0F7E1A860F76B81E257EE8
:103C3400000048834A0C027E863D6D75B072087E92
:103C440000005083E7FB697D795D3F751B2F5D7D27
:103C5400000058830681557D68E81F75D9CE377DED
:103C6400000060831283407DE3C201750681157DE7
:103C740000006883D7A3307D03275B7491ED7C7CBF
:103C840000007083AE47217DA930367485EB517CEA
:103C9400000078833D0A177D30621F74C74B377C60
:103CA40000000084BA490C7DB893087477BE1F7C69
:103CB400000004844A0C027D6AFA6C732731087C84
:103CC40000000884B29D6F7C64CD48738B6C677B65
:0A3CD400436F6D707574696E670030
:013CDE00FFE6
:103CDF00580253025F026E027402630267025002BF
:023CEF005E0273
:063CF100456E74657200CF
:0C3CF700436F696C2057696E64657200B1
:0C3D03005472616E73666F726D65720021
:103D0F00F43E00AD3E00B93E00E93E00D13E0067F3
:103D1F003E00583E000600001F3F00FF3E00153FCB
:103D2F0000763E003A3E00853E00933E00C53E00C1
:063D3F00DD3E00293F00FB
:0F3D450053706563696669636174696F6E7300BB
:033D5400564100D5
:053D5700616D707300B6
:063D5C00766F6C74730029
:013D62000060
:043D63006D6D2E0054
:043D67006B672E0058
:073D6B0073712E6D6D2E0037
:063D720074696D65730029
:043D78004157470068
:013D7C000046
:013D7D000045
:103D7E00010000000A00000064000000E8030000DB
:103D8E0010270000A086010040420F008096980088
:083D9E0000E1F50500CA9A3BA3
:103DA60050726573734F6B746F50726F63656564A1
:013DB600000C
:103DB70057696E64696E6746696E697368656421E1
:013DC70000FB
:103DC80020202020202020202020202020202020EB
:013DD80000EA
:103DD9005365636F6E642057696E64696E673A2034
:013DE90000D9
:103DEA0050726573734F6B546F52657475726E00BF
:103DFA00466F7220537461727420506F696E74003A
:103E0A00496E7365727420326E6420576972650058
:103E1A0046697273742057696E64696E673A200046
:103E2A00496E736572742031737420576972650024
:0F3E3A004E6F4F665475726E7328326E64290096
:0F3E490053746172742057696E64696E673F002D
:0F3E580057696E64696E67204C656E6774680009
:0F3E670057696E64696E67204865696768740003
:0F3E76004E6F4F665475726E7328317374290046
:0E3E85005769726553697A6528317374290094
:0E3E93005769726553697A6528326E6429009A
:0C3EA10041646A757374204B6E6F620000
:0C3EAD00566F6C74616765204F757400DF
:0C3EB90043757272656E74204F757400C2
:0C3EC500576569676874576972653100C1
:0C3ED100436F72652048656967687400E3
:0C3EDD00576569676874576972653200A8
:0B3EE900436F72652057696474680025
:0B3EF400566F6C7461676520496E001A
:0B3EFF0043757272656E7420496E00FE
:0B3F0A005475726E204E6F3A202000AC
:0A3F1500506572696D6574657200F5
:0A3F1F00506F7765722856412900A3
:083F290041697220476170003C
:020000040030CA
:0E000000000C1F1EFF8381FF0FC00FE00F409A
:00000001FF
