:040000009DEF16F06A
:1000080000C023F001C022F002C021F003C020F09C
:1000180004C01FF005C01EF006C01DF007C01CF08C
:1000280008C01BF009C01AF00AC019F00BC018F07C
:100038000CC017F00DC016F00EC015F0E1CF26F079
:10004800E2CF27F0E9CF24F0EACF25F0F2A244D09E
:10005800000E0301101902E1010E0F193DE1810E96
:10006800E56F0F0EE66FE76B960EE86F010EE96F0E
:100078008BEC14F0005230E0010E0B5F000E0C5BAD
:100088000FD0060E0B6F000E0C6F1CD0120E0B6FEC
:10009800000E0C6F17D0180E0B6F000E0C6F12D0DD
:1000A800000E0C1902E1070E0B19EBE0000E0C19FB
:1000B80002E1150E0B19EAE0000E0C1902E11B0E05
:1000C8000B19E9E0000E006E0C51005C02E10B51C7
:1000D800000802E30B6B0C6BF292F0A02BD003012B
:1000E800000E101902E1010E0F1924E1810EE56FCF
:1000F8000F0EE66F010EE76F960EE86F010EE96FBF
:100108008BEC14F0005216E00B4B0C2B44510C5D99
:1001180002E143510B5D02E30B6B0C6B000E0C5DAF
:1001280002E1070E0B5D06E382BA04D0180E0B6FCE
:10013800000E0C6FF090F0A222D00301000E1619E9
:1001480002E1010E15191BE1000E101902E1000E63
:100158000F1915E1810EE56F0F0EE66F020EE76FBE
:10016800020EE86F010EE96F8BEC14F0005207E005
:10017800134B142B010E0201F16F000EF26FF09277
:10018800F2A00ED0000E0301101902E1010E0F19A2
:1001980007E1000E0C5D02E1070E0B5D01E20ED0D7
:1001A8000301000E0C1902E1120E0B1907E0000EF4
:1001B8000C1902E1180E0B1901E0B5D1026A81BAD7
:1001C800022A02C000F000360090000E81B8010E2D
:1001D800186F0050181302015151FF0AD8B4A1D169
:1001E8005151000A05E103011851010A01E11CD02F
:1001F80002015151010A05E103011851030A01E105
:1002080013D002015151030A05E103011851020AF2
:1002180001E10AD002015151020A05E10301185116
:10022800000A01E101D08BD00301000E0C1902E194
:10023800020E0B193FE10BC300F00CC301F00036AE
:10024800009001360036009001365A0E0024E36F04
:10025800000E0120E46F0BC300F00CC301F0003660
:10026800009001360036009001365A0E0024E96EDF
:10027800000E0120EA6EEECF00F0EECF01F0EECFD7
:1002880002F0EECF03F0DA0E046ECC0E056E4C0EC3
:10029800066E7B0E076E8BEC09F0E3C3E1FFE4C347
:1002A800E2FF00C0E6FF01C0E6FF02C0E6FF03C0B0
:1002B800E6FF30D0000E0C1902E1020E0B192AE0FD
:1002C800000E0C5D02E1160E0B5D24E20BC300F07C
:1002D8000CC301F0003600900136280E0024E16EB0
:1002E800000E0120E26E0BC300F00CC301F00036D3
:1002F80000900136280E0024E96E000E0120EA6EF7
:10030800010EEE24006E000EEE20016E00C0E6FF26
:1003180001C0E6FF000E0C1902E1120E0B1907E0EE
:10032800000E0C1902E1180E0B1901E007D082B477
:100338008B94010E0201F16F000EF26FF2D00201F0
:100348005151000A05E103011851020A01E10AD0DE
:1003580002015151010A05E103011851000A01E1A6
:1003680001D0DFD00301000E0C1902E1020E0B19B7
:1003780076E10BC300F00CC301F0003600900136A3
:100388000036009001365A0E0024E36F000E01205B
:10039800E46F0BC300F00CC301F000360090013687
:1003A8000036009001365A0E0024E96E000E012036
:1003B800EA6EEECF00F0EECF01F0EECF02F0EECF16
:1003C80003F0CD0E046ECC0E056E4C0E066E7B0E41
:1003D800076E1BEC0DF0E3C3E1FFE4C3E2FF00C0CE
:1003E800E6FF01C0E6FF02C0E6FF03C0E6FF0BC35D
:1003F80000F00CC301F00036009001360036009082
:1004080001365A0E0024E96E000E0120EA6EEECF86
:1004180000F0EECF01F0EECF02F0EECF03F0046A69
:10042800056A066A076A67DA010ED8B0000E006E20
:10043800005214E00BC300F00CC301F0003600902A
:1004480001360036009001365A0E0024E16E000E87
:100458000120E26EE66AE66AE66AE66A24D00BC321
:1004680000F00CC301F0003600900136280E00247D
:10047800E16E000E0120E26E0BC300F00CC301F028
:10048800003600900136280E0024E96E000E012087
:10049800EA6E010EEE5C006E000EEE58016E00C0B2
:1004A800E6FF01C0E6FF0BC300F00CC301F0003605
:1004B80000900136280E0024E96E000E0120EA6E35
:1004C800EECF01F0EECF02F0800E0218006E800E23
:1004D800005C02E1000E015C0FE20BC300F00CC3EC
:1004E80001F0003600900136280E0024E16E000E5F
:1004F8000120E26EE66AE66A0301000E0C1902E1C9
:10050800120E0B1907E0000E0C1902E1180E0B1958
:1005180001E007D082A48B84010E0201F16F000E66
:10052800F26F18C351F2F29023C000F022C001F01C
:1005380021C002F020C003F01FC004F01EC005F067
:100548001DC006F01CC007F01BC008F01AC009F057
:1005580019C00AF018C00BF017C00CF016C00DF047
:1005680015C00EF024C0E9FF25C0EAFF26C0E1FF50
:0605780027C0E2FF1100A4
:06057E0000000000120065
:10058400120E0C6EDA0E0D6E0D2EFED70C2EFCD74D
:040594000000120051
:0C059800290E0D6E0D2EFED70000120083
:0805A4000AAE029E000E1200D7
:1005AC000B840BAEE1EF02F0010E036E026A016ADE
:0A05BC00006A0A360232FF0E120038
:0E05C600026A016A006A086A036A000E1200E7
:1005D4000B820BAEF4EF02F0036802680168006856
:0805E4000A360232FF0E12007C
:1005EC000134083609360450085E0550D8A0053C85
:1005FC00095E003601360F0E0C6E013408360936D2
:10060C00045000A006D0085E0550D8A0053C095E39
:10061C0005D008260550D8B0053C09260036013611
:10062C000C2EEBD700B006D0045008260550D8B0DD
:08063C00053C09260000120034
:100644000B800BAE2EEF03F0026A0AAEFF0E026EB1
:0C065400016E006E0A360232FF0E12002A
:080660000B6A0B86FF0E12006D
:100668000301E2BF02D0899A01D0898AE2BD02D093
:10067800899801D08988E2BB02D0899601D0898601
:10068800E2B902D0899401D0898417B102D0898057
:1006980001D0899089826FDF8992E2B702D0899A66
:1006A80001D0898AE2B502D0899801D08988E2B35D
:1006B80002D0899601D08986E2B102D0899401D00E
:1006C800898417B102D0898001D08990898253DF4B
:0E06D800899217A102D052DF01D05ADF120022
:1006E600086A096A100E0C6E013408360936045081
:1006F600085E0550D8A0053C095ED8B007D0045066
:1007060008260550D8B0053C0926D8900036013693
:060716000C2EEAD71200D0
:10071C000CB0D0EF03F00CA276EF04F00E6A000ED2
:10072C000264E7EF03F0F00E0214D8A4B2EF03F06A
:10073C00023A01380F0B02260138F00B016E00381B
:10074C000F0B01260038F00B006E08380F0B00263B
:10075C000838F00B086E0E84D89002BECBEF03F075
:10076C0008360036013602360E2A02BECBEF03F0F5
:10077C0008360036013602360E2A02BECBEF03F0E5
:10078C0008360036013602360E2A0E5003646CEF22
:10079C0004F0035E0BBC08AE71EF04F0D880800E41
:1007AC0008640030000E002201220222D8A071EF52
:1007BC0004F0023201320032034A76EF04F071EF9A
:1007CC0004F001C002F000C001F008C000F0086A9B
:1007DC00000E0E8602641EEF04F0F00E0214D8A474
:1007EC0006EF04F0023A01380F0B02260138F00B29
:1007FC00016E00380F0B01260038F00B006E0E84D2
:10080C00D89002BECBEF03F00036013602360E2A2A
:10081C0002BECBEF03F00036013602360E2A02BEC2
:10082C00CBEF03F00036013602360E2ACBEF03F085
:10083C0001C002F000C001F0006A000E0E960E8896
:10084C0002644BEF04F0F00E0214D8A436EF04F05F
:10085C00023A01380F0B02260138F00B016E0E84A0
:10086C00D89002BECBEF03F0013602360E2A02BE40
:10087C00CBEF03F0013602360E2A02BECBEF03F0AB
:10088C00013602360E2ACBEF03F001C002F0016AEA
:10089C00000E0E8602647BEF04F0F00E0214D8A456
:1008AC005AEF04F0023A0E84D89002BECBEF03F05C
:1008BC0002360E2A02BECBEF03F002360E2A02BE1F
:1008CC00CBEF03F002360E2ACBEF03F0010E0C6EC9
:1008DC0067DE7EEF04F0020E0C6E5EDE7EEF04F03F
:1008EC00040E0C6E71DE7EEF04F0080E0C6E65DEED
:0208FC001200E8
:1008FE000A6A0350D8A40A800750D8A40A820A5064
:10090E00D8B4E2EF04F0030AD8B49BEF04F00AB0B7
:10091E0096EF04F006AEE0EF04F0DEEF04F002AE68
:10092E00DEEF04F0E0EF04F00250800B0A6E029E40
:10093E000650800B069E0A18D8B4ACEF04F00A508D
:10094E00D8B4DEEF04F0E0EF04F00750035CD8B447
:10095E00B6EF04F0D8A0D2EF04F0D8EF04F00650B2
:10096E00025CD8B4C0EF04F0D8A0D2EF04F0D8EFF8
:10097E0004F00550015CD8B4CAEF04F0D8A0D2EF51
:10098E0004F0D8EF04F00450005CD8B4E2EF04F0A9
:10099E00D8B0D8EF04F00A52D8B4E0EF04F0DEEF8E
:1009AE0004F00A52D8B4DEEF04F0E0EF04F0D88081
:0E09BE001200D8901200D880D88412001200C7
:1009CC00DA0E046E030E056E030E0424E96E000E9F
:1009DC000520EA6E7E0EEE5C006E016A000E015A76
:1009EC00DEC3E1FFDFC3E2FF00C0E6FF01C0E6FFAC
:1009FC00030E0424E16E000E0520E26E7E0EE66E00
:100A0C00DAC300F0DBC301F0DCC302F0DDC303F09A
:020A1C001200C6
:100A1E00DA0E0301E06F030EE16F030EE025D96ECF
:100A2E00000EE121DA6EDE50DE25016E000EDF21B2
:100A3E00026E01C0DEF302C0DFF3800E0218006EFC
:100A4E00800E005C02E1000E015C05E2006A016AA4
:100A5E00026A036A3ED0800E006E800EDF19005CC3
:100A6E0002E1DE51FF0825E2046A056A066A076A9A
:100A7E00DAC300F0DBC301F0DCC302F0DDC303F028
:100A8E0037DF010ED8B0000E006E005209E0FF0EE7
:100A9E00006EFF0E016EFF0E026EFF0E036E19D07A
:100AAE00FF0E006EFF0E016E7F0E026EFF0E036EC6
:100ABE0010D0030EE025E16E000EE121E26EDEC3E2
:100ACE00E6FFDAC300F0DBC301F0DCC302F0DDC3E6
:040ADE0003F012000F
:100AE2000B6A0A6A096A086A0E6A033408360450F5
:100AF200085E0550D8A0053C095E0650D8A0063C09
:100B02000A5E0750D8A0073C0B5EE86AD8A0010E27
:100B12000E5E0336070E0C6E0334083609360A36AB
:100B22000B360E36045003A012D0085E0550D8A032
:100B3200053C095E0650D8A0063C0A5E0750D8A0C4
:100B4200073C0B5EE86AD8A0010E0E5E11D00826A3
:100B52000550D8B0053C09260650D8B0063C0A26F6
:100B62000750D8B0073C0B26E86AD8B0010E0E2613
:100B720003360C2ED1D70234083609360A360B3624
:100B82000E36045003A012D0085E0550D8A0053CD2
:100B9200095E0650D8A0063C0A5E0750D8A0073C62
:100BA2000B5EE86AD8A0010E0E5E11D00826055031
:100BB200D8B0053C09260650D8B0063C0A26075094
:100BC200D8B0073C0B26E86AD8B0010E0E260236D2
:100BD200070E0C6E0234083609360A360B360E360C
:100BE200045002A012D0085E0550D8A0053C095E50
:100BF2000650D8A0063C0A5E0750D8A0073C0B5E00
:100C0200E86AD8A0010E0E5E11D008260550D8B0B1
:100C1200053C09260650D8B0063C0A260750D8B033
:100C2200073C0B26E86AD8B0010E0E2602360C2EBF
:100C3200D1D70134083609360A360B360E3604503F
:100C420002A012D0085E0550D8A0053C095E0650ED
:100C5200D8A0063C0A5E0750D8A0073C0B5EE86AA3
:100C6200D8A0010E0E5E11D008260550D8B0053C62
:100C720009260650D8B0063C0A260750D8B0073CD1
:100C82000B26E86AD8B0010E0E260136070E0C6E4E
:100C92000134083609360A360B360E36045001A0E6
:100CA20012D0085E0550D8A0053C095E0650D8A0B7
:100CB200063C0A5E0750D8A0073C0B5EE86AD8A043
:100CC200010E0E5E11D008260550D8B0053C09264B
:100CD2000650D8B0063C0A260750D8B0073C0B266F
:100CE200E86AD8B0010E0E2601360C2ED1D7003498
:100CF200083609360A360B360E36045001A012D0D9
:100D0200085E0550D8A0053C095E0650D8A0063CF6
:100D12000A5E0750D8A0073C0B5EE86AD8A0010E15
:100D22000E5E11D008260550D8B0053C09260650A3
:100D3200D8B0063C0A260750D8B0073C0B26E86A12
:100D4200D8B0010E0E260036070E0C6E003408369F
:100D520009360A360B360E36045000A012D0085E51
:100D62000550D8A0053C095E0650D8A0063C0A5E94
:100D72000750D8A0073C0B5EE86AD8A0010E0E5EB1
:100D820011D008260550D8B0053C09260650D8B027
:100D9200063C0A260750D8B0073C0B26E86AD8B0B2
:100DA200010E0E2600360C2ED1D700B00ED0045004
:100DB20008260550D8B0053C09260650D8B0063C96
:0C0DC2000A260750D8B0073C0B26120090
:100DCE000B6A0C6A0A6A086A0350D8B46FEF07F010
:100DDE00028E9E0E035E03BEFAEF06F0D8B4FAEF53
:100DEE0006F05FEF07F0036C080E035CD8A02CEF43
:100DFE0007F0036E083600C008F001C000F002C014
:100E0E0001F0026A080E035CD8A02CEF07F0036E07
:100E1E00083600C008F001C000F0016A080E035C3D
:100E2E00D8A02CEF07F0036E083600C008F0006A59
:100E3E00080E035CD8A02CEF07F0036E0836086A84
:100E4E000350D8A4D89038EF07F00350D8B438EF39
:100E5E0007F0D8900232013200320832032E30EF02
:100E6E0007F00BBC08A049EF07F0D8A049EF07F038
:100E7E00082AD8B4002AD8B4012AD8B4022A02BE4D
:100E8E0073EF07F00AAE6FEF07F0021E011E001E91
:100E9E00081E082AD8B4002AD8B4012AD8B4022AC7
:100EAE006FEF07F0026A016A006A086A6FEF07F0D7
:100EBE000B800BAE79EF07F0026A0AAE79EF07F0FE
:100ECE00026E016E006E086E0A36023279EF07F07E
:100EDE00000E0C6A7AEF07F0010E0C6E22EC03F096
:100EEE007AEF07F0FF0E0250036E0150026E0050B3
:080EFE00016E0850006E1200A5
:100F0600086A096A000E0762036408EF08F00250D7
:100F160006180A6E075003267E0ED8A099EF07F032
:100F2600035ED8B00DEF08F09DEF07F0035ED8A082
:100F360012EF08F0028E068E02C00EF001C00BF012
:100F460000C00DF000500402F4CF0CF00150050271
:100F5600F4CF00F0F3CF08F00402F3500C26F4505F
:100F66000822000E00220D500502F3500C26F45004
:100F76000822000E002202500402F3500826F45004
:100F8600002202500502016A000E0122F3500026DB
:100F9600F45001220D500602F3500826F4500022A8
:100FA600026A000E012202220B500602F3500026AE
:100FB600F4500122000E02220E500602F3500126C2
:100FC600F450022202BEF0EF07F008360036013672
:100FD60002360306D8B412EF08F003EF08F0D88003
:100FE600800E08640030000E002201220222D8A0E2
:100FF60003EF08F0023201320032034A0DEF08F027
:101006000AAE029E000E15EF08F0010EE3EC02F0A8
:1010160015EF08F0020EEAEC02F015EF08F0040EE8
:06102600D6EC02F01200FE
:10102C000450000A12E10550000A0FE10650000AB4
:10103C000CE10750000A09E1FF0E006EFF0E016E75
:10104C007F0E026EFF0E036EA8D0086A096A075065
:10105C00D8B4C1EF08F00350D8B4C6EF08F0025072
:10106C0006180A6E028E068E0E6A02C008F001C0C7
:10107C000CF000C00DF004500D5E0550D8A0053CDE
:10108C000C5E0650D8A0063C085E086A0C6A0D6A15
:10109C00D8A058EF08F0D890023201320032083252
:1010AC00010E0E6E0750035ED8A065EF08F07E0EA1
:1010BC000E240326D8B0CBEF08F06BEF08F07E0EB1
:1010CC000E240326D8A0D0EF08F0180E0B6E0D36A8
:1010DC000C3608360036013602360E360450005EE9
:1010EC000550D8A0053C015E0650D8A0063C025E17
:1010FC0006340E120EA086EF08F00D8091EF08F06A
:10110C00045000260550D8B0053C01260650D8B036
:10111C00062802260D900B2E6DEF08F0B7EF08F0A5
:10112C00D8900036013602360E360450005E05505B
:10113C00D8A0053C015E0650D8A0063C025E0634E1
:10114C000E10010B0D26D8B00C2AD8B4082AD8A43E
:10115C00B7EF08F008320C320D32032AD8B4CBEFBB
:10116C0008F00AAE089E0850026E0C50016E0D502D
:10117C00006ED3EF08F0010E30EC03F0D3EF08F063
:10118C00020EE3EC02F0D3EF08F0040EEAEC02F0EE
:0C119C00D3EF08F0080ED6EC02F01200B1
:1011A8000450000A08E10550000A05E1FF0E006E30
:1011B8007F0E016E58D00D6A096A086A0150001046
:1011C800D8B4000C015005180A6E0ABE0D1E0B6A31
:1011D80005AE05D0041E051E042AD8B4052A01AEA2
:1011E80005D0001E011E002AD8B4012A015005109E
:1011F8000A6E0ABE10D0F6EC02F00BB020D00DAE8D
:10120800000C001E011E002AD8B4012A081E091E5F
:10121800082AD8B4092A000C05AE0DD001BE07D0A3
:101228000150096E0050086E016A006AE8D7016A29
:10123800006A002A000C011E001E0B2ADDD7082AAE
:10124800D8B4092A0450085CD8A4D9D70550095C39
:10125800D8A4D5D7096A086A002AD8B4012A01AEE9
:08126800CED70000FF0C1200BC
:1012700003500718D8A44CEF09F002500618D8A460
:101280004CEF09F001500518D8A44CEF09F00050BC
:0E1290000418D8B4D8841200D89412001200AA
:10129E000C6A0E6A0250D8A468EF09F001C002F081
:1012AE0000C001F0006A0E860250D8A468EF09F063
:1012BE0001C002F0016A0E960E880250D8B47AEF81
:1012CE0009F00E50035ED8A4D8A080EF09F0D89094
:1012DE0002BE86EF09F0003601360236032E6FEF9E
:1012EE0009F080EF09F0010E0C6EE3EC02F08AEFCC
:1012FE0009F0020E0C6ED6EC02F08AEF09F0040E25
:08130E000C6ED2EC02F012009B
:10131600025006180E6E086A096A0B6A03500764C3
:101326007EEF0AF006500A6E068E028E03500B6E92
:101336000750036E000E0B64CEEF09F00B50075EEC
:10134600D8B46FEF0AF0070E07643DEF0AF0075EA8
:1013560000C008F001C000F002C001F0026A074EAA
:101366006FEF0AF0076412EF0AF0075E00C008F09C
:1013760001C000F0016A074E6FEF0AF00764F0EF54
:1013860009F0075E00C008F0006A074E6FEF0AF02A
:101396000764D7EF09F00AC002F005C001F004C0E7
:1013A60000F0086A9BEF0BF0030E0764E2EF09F00A
:1013B600075E08380F0B086E074E6FEF0AF0D890DD
:1013C6000832074E6FEF0AF0D8900832074E6FEFDB
:1013D6000AF0D89008326FEF0AF0030E076401EFA7
:1013E6000AF0075E08380F0B086E0038F00B082667
:1013F60000380F0B006E074E6FEF0AF0D8900032E0
:101406000832074E6FEF0AF0D89000320832074EC6
:101416006FEF0AF0D890003208326FEF0AF0030E31
:10142600076429EF0AF0075E08380F0B086E0038CC
:10143600F00B082600380F0B006E0138F00B002663
:1014460001380F0B016E074E6FEF0AF0D89001328C
:1014560000320832074E6FEF0AF0D89001320032A0
:101466000832074E6FEF0AF0D89001320032083288
:101476006FEF0AF0030E07645AEF0AF0075E0838AA
:101486000F0B086E0038F00B082600380F0B006EA5
:101496000138F00B002601380F0B016E0238F00BF5
:1014A600012602380F0B026E074E6FEF0AF0D89036
:1014B6000232013200320832074E6FEF0AF0D8903E
:1014C6000232013200320832074E6FEF0AF0D8902E
:1014D6000232013200320832096A000E0EAE63EFA4
:1014E6000BF0081E001E011E021E082A0022012201
:1014F600022263EF0BF00750D8A484EF0AF09BEFAB
:101506000BF0096A02C00AF0028E068E0750035CD1
:10151600076ED8B456EF0BF0070E076424EF0BF0F6
:10152600075E0450096E0550046E0650056E066A85
:10153600074E56EF0BF0070E0764F9EF0AF0075E49
:101546000450096E0550046E056A074E56EF0BF0FF
:10155600070E0764D7EF0AF0075E0450096E046AA7
:10156600074E56EF0BF0070E0764BEEF0AF00AC0EF
:1015760002F09BEF0BF0030E0764C9EF0AF0075E5B
:1015860009380F0B096E074E56EF0BF0D89009324B
:10159600074E56EF0BF0D8900932074E56EF0BF078
:1015A600D890093256EF0BF0030E0764E8EF0AF005
:1015B600075E09380F0B096E0438F00B092604384C
:1015C6000F0B046E074E56EF0BF0D890043209321B
:1015D600074E56EF0BF0D89004320932074E56EFFD
:1015E6000BF0D8900432093256EF0BF0030E076465
:1015F60010EF0BF0075E09380F0B096E0438F00B7D
:10160600092604380F0B046E0538F00B042605383E
:101616000F0B056E074E56EF0BF0D89005320432CD
:101626000932074E56EF0BF0D890053204320932D4
:10163600074E56EF0BF0D89005320432093256EFBA
:101646000BF0030E076441EF0BF0075E09380F0B32
:10165600096E0438F00B092604380F0B046E0538A2
:10166600F00B042605380F0B056E0638F00B052621
:1016760006380F0B066E074E56EF0BF0D890063263
:10168600053204320932074E56EF0BF0D890063277
:10169600053204320932074E56EF0BF0D890063267
:1016A600053204320932086A000E0EAE63EF0BF003
:1016B600091E041E051E061E092A042205220622EC
:1016C6000950082604500022055001220650022225
:1016D6000EBE7AEF0BF0D8A089EF0BF00232013282
:1016E60000320832033E89EF0BF095EF0BF0D8B0CD
:1016F6008FEF0BF0000E081E001E011E021E082AA8
:101706000022012202220A7E8FEF0BF0010E0C6EE0
:101716008EEC03F09DEF0BF0020E0C6E8EEC03F0D8
:101726009DEF0BF0040E0C6EEAEC02F09DEF0BF051
:06173600000E0C6E120013
:10173C000900F5CFE6FF0006FBE10106F9E1120016
:10174C000050086E0150006E0250016E0350026E84
:10175C00036A0B6A0C6A9E0E036E0A6A020E0C6E0A
:06176C008EEC03F01200F8
:101772000301DE6B050EDE5D0AE2DE51DC25E16E61
:10178200000EDD21E26E200EE66EDE2BF3D7DE5177
:10179200DC25E16E000EDD21E26EE66ADE07DE5137
:1017A200DC25DF6F000EDD21E06F0A0E046E000EF5
:1017B200056EDAC300F0DBC301F073EC03F008C07E
:1017C20000F009C001F0300E0026DFC3E1FFE0C3E4
:1017D200E2FF00C0E6FF0A0E046E000E056EDAC3D9
:1017E20000F0DBC301F073EC03F000C0DAF301C0D8
:1017F200DBF3000E011802E1000E001801E102D035
:06180200DE07CDD7120045
:1018080003011791DAC3E2F334EC03F017811200F5
:1018180003010D6B0E6B800EA219006E800E0E195F
:10182800005C02E10D51A15D0FE38B82290E0D6E64
:101838000D2EFED700008B92290E0D6E0D2EFED7B1
:0A18480000000D4B0E2BE7D7120035
:101852000B6A0A6A096A00500402F4CF09F0F3CF56
:1018620008F001500502F4CF0BF0F3CF0AF000505C
:101872000502F3500926F4500A22E86A0B220150AD
:101882000402F3500926F4500A22E86A0B2208C027
:1018920000F009C001F00AC002F00BC003F0120010
:1018A2000301A76BA86BA1C3A9F3A2C3AAF3800E7D
:1018B200A219006E800E005C02E1000EA15D0BE237
:1018C200010EA76F000EA86FA1510008A96FA2C355
:1018D200AAF3000EAA57A9C3DAF3AAC3DBF3A3C380
:1018E200DCF3A4C3DDF344DF060EA56F000EA66F82
:1018F200000E006EA651005C02E1A551000819E23B
:10190200A551A325E16EA651A421E26E010EA55DAB
:10191200006E000EA659016E0050A325E96E01501B
:10192200A421EA6EEECFE6FF010EA55F000EA65BD4
:10193200DFD7A3C3E1FFA4C3E2FF200EE66EA751E7
:10194200A8111AE0A56BA66BA551A325E96EA651B5
:10195200A421EA6EEE50200A03E1A54BA62BF4D790
:10196200010EA55F000EA65BA551A325E16EA6514F
:0A197200A421E26E2D0EE66E1200B5
:10197C00020E0C6E9C0E0D6E0D2EFED70C2EFCD78F
:06198C0000000000120043
:1019920010D0800E0301A16F1AD0C00EA16F17D014
:1019A200940EA16F14D0D40EA16F11D0800EA16F2E
:1019B2000ED00301A151010AECE0A151020AEDE0AF
:1019C200A151030AEDE0A151040AEDE0EFD7A2050F
:1019D200006EA151002600C0A1F300C0E2F334EC76
:1019E20003F01791A56BA551A325E96E000EA42162
:1019F200EA6EEE520BE0A551A325E96E000EA4217A
:101A0200EA6EEECFDAF3FFDEA52BEDD717811200D7
:101A12000301A107A107A1C301F0A107015000081A
:101A220003E200000000F7D7000000000000000001
:041A3200000012009E
:061A3600067E6EDC1200CA
:101A3C0000C008F00150006E016A026A036A0B6A6A
:101A4C000C6A016A026A036A960E036E0A6A00AE99
:101A5C0036EF0DF0081E001E082AD8B4002A0A8E94
:101A6C0000C001F008C000F0086A026A12DC120023
:101A7C00A1C304F0A2C305F0A3C306F0A4C307F0EE
:101A8C00006A016A026A036A7FEC04F0000ED8B0A7
:101A9C00010E006E005205E0006A016A026A036AD8
:101AAC00F9D0A1C3A5F3A2C3A6F3A3C3A7F3A4C300
:101ABC00A8F3000E046E000E056E000E066E7F0E6F
:101ACC00076EA1C300F0A2C301F0A3C302F0A4C32C
:101ADC0003F07FEC04F0010ED8B0000E006E005243
:101AEC001AE0A5C304F0A6C305F0A7C306F0A8C36B
:101AFC0007F0000E006E000E016E000E026E7F0EDF
:101B0C00036E16EC08F000C0A5F301C0A6F302C0EA
:101B1C00A7F303C0A8F3A5C3DAF3A6C3DBF3A7C3EB
:101B2C00DCF3A8C3DDF3AE0E0301DE6F030EDF6F33
:101B3C00E6EC04F000C0A5F301C0A6F302C0A7F3C5
:101B4C0003C0A8F300C0DAF301C0DBF302C0DCF37E
:101B5C0003C0DDF3020E046E000E056EAEC300F082
:101B6C00AFC301F0D4EC08F000C0DEF301C0DFF32A
:101B7C000FEC05F000C0A5F301C0A6F302C0A7F35B
:101B8C0003C0A8F3000E046E000E056E000E066E68
:101B9C007F0E076EA1C300F0A2C301F0A3C302F035
:101BAC00A4C303F07FEC04F0010ED8B0000E006E5D
:101BBC0000521AE0A5C304F0A6C305F0A7C306F0B3
:101BCC00A8C307F0000E006E000E016E000E026E30
:101BDC007F0E036E16EC08F000C0A5F301C0A6F34F
:101BEC0002C0A7F303C0A8F3140E0301AD6FA5C385
:101BFC0004F0A6C305F0A7C306F0A8C307F0A1C361
:101C0C0000F0A2C301F0A3C302F0A4C303F016ECCE
:101C1C0008F0A5C304F0A6C305F0A7C306F0A8C33B
:101C2C0007F08BEC09F0000E046E000E056E000E32
:101C3C00066E800E076E16EC08F000C0A9F301C00A
:101C4C00AAF302C0ABF303C0ACF3A5C304F0A6C364
:101C5C0005F0A7C306F0A8C307F038EC09F0010E95
:101C6C00D8A4000E006E005201E00CD0A9C3A5F35D
:101C7C00AAC3A6F3ABC3A7F3ACC3A8F30301AD0788
:101C8C00AD53B5E1A5C300F0A6C301F0A7C302F0A4
:061C9C00A8C303F01200D2
:101CA2000301A86BA96BA7C3D7F3DB0EF66E3F0E39
:101CB200F76E000EF86EAA0EE16E030EE26E280EAB
:101CC200006E010E016E39DDA7C300F0000E016E39
:101CD200003600900136003600900136AA0E00242C
:101CE200D86F030E0120D96FD8C3E9FFD9C3EAFF29
:101CF200EECF00F0EECF01F0EECF02F0EECF03F028
:101D020024DDA1C304F0A2C305F0A3C306F0A4C35B
:101D120007F083EC07F0E7EC06F000C0D2F301C055
:101D2200D3F302C0D4F303C0D5F3D8C3E9FFD9C3B8
:101D3200EAFFEECF05F0EECF06F0EECF07F0EECFE2
:101D420008F00850035C08E10750025C05E1065008
:101D5200015C02E10550005C02E2010EA96F000E77
:101D6200A8BFFF0E006E000E001802E1A751A819CD
:101D72000CE1A851A525E16E000EA8BFFF0EA62119
:101D8200E26E2E0EE66EA82B41D0A851A525D86F83
:101D9200000EA8BFFF0EA621D96F0A0E046E000E18
:101DA200056E066E076ED2C300F0D3C301F0D4C332
:101DB20002F0D5C303F071EC05F008C000F009C0D1
:101DC20001F00AC002F00BC003F0300E0026D8C3A7
:101DD200E1FFD9C3E2FF00C0E6FFA82B0A0E046EA2
:101DE200000E056E066E076ED2C300F0D3C301F07B
:101DF200D4C302F0D5C303F071EC05F000C0D2F3F6
:101E020001C0D3F302C0D4F303C0D5F3D7C301F0AA
:101E1200D707800E000A006E800E0118005C9FE357
:101E2200D251D311D411D5119AE1A9530BE0A85183
:101E3200A525E16E000EA8BFFF0EA621E26E300EB0
:101E4200E66EA82BA851A525E16E000EA8BFFF0ED5
:101E5200A621E26EE66AA805D66FA86B800EA819C5
:101E6200006E800ED619005C29E2A851A525006EED
:101E7200000EA8BFFF0EA621016E00C0E9FF01C03F
:101E8200EAFFEECFA9F3D651A525E96E000ED6BF23
:101E9200FF0EA621EA6E00C0E1FF01C0E2FFEECF15
:101EA200E6FFD651A525E16E000ED6BFFF0EA62194
:0E1EB200E26EA9C3E6FFA82BD607D0D7120018
:101EC0000050086E0150006E016A026A036A0B6AD4
:101ED0000C6A960E036E0A6A00C001F008C000F09A
:0A1EE000086A026A4FEC09F01200D4
:101EEA000B6A0350D8B4BBEF0FF002500A6E028E91
:101EFA008E0E035E03AEBFEF0FF0036C080E035C99
:101F0A00D8A09AEF0FF0036E013602C001F0026A00
:101F1A00080E035CD8A09AEF0FF0036E0136016A2F
:101F2A000350D8A4D890A4EF0FF00350D8B4A4EF6C
:101F3A000FF0D89002320132032E9EEF0FF00BBC45
:101F4A0001A0B1EF0FF0D8A0B1EF0FF0012AD8B479
:101F5A00022A02BECEEF0FF00AAED4EF0FF0021E35
:101F6A00011E012AD8B4022AD4EF0FF0026A016ACC
:101F7A00D4EF0FF00B800BAED8EF0FF0026A0AAE67
:101F8A00D8EF0FF0FF0E026E016E0A360232D8EF5A
:101F9A000FF0010E0C6E22EC03F0DAEF0FF0000ED8
:101FAA000C6EDAEF0FF0FF0E0C6E0150006E02504D
:041FBA00016E1200A2
:101FBE0003010F6B106B28C08FF329C090F32AC05A
:101FCE0091F32BC092F362C04BF363C04CF364C029
:101FDE004DF365C04EF32EC089F32FC08AF330C087
:101FEE008BF331C08CF332C08DF333C08EF334C01B
:101FFE0000F035C001F01BDD00C07FF301C080F39F
:10200E0002C081F303C082F3000E046E000E056E53
:10201E00000E066E7D0E076E07DD00C07FF301C059
:10202E0080F302C081F303C082F3010EE26F34EC41
:10203E0003F0010EA16F010EA26F500EA36F000EE2
:10204E00A46FA0DC91C300F092C301F0F0DC4BC38F
:10205E0004F04CC305F04DC306F04EC307F083ECFD
:10206E0007F03CDF00C093F301C094F3E0DC00C046
:10207E0099F301C09AF302C09BF303C09CF38FC384
:10208E0000F090C301F0D3DC00C004F001C005F0F5
:10209E0002C006F003C007F099C300F09AC301F026
:1020AE009BC302F09CC303F016EC08F000C047F38C
:1020BE0001C048F302C049F303C04AF32E0E0301D8
:1020CE00DA6F04EC0CF0020E0B6E450E0C6EA90EC0
:1020DE000D6E0D2EFED70C2EFCD70B2EFAD7000050
:1020EE00000093C300F094C301F0A1DC00C0A1F383
:1020FE0001C0A2F302C0A3F303C0A4F3B8DC00C076
:10210E004FF301C050F302C051F303C052F32E0E31
:10211E000301DA6F04EC0CF0020E0B6E450E0C6E22
:10212E00A90E0D6E0D2EFED70C2EFCD70B2EFAD748
:10213E00000000004FC304F050C305F051C306F079
:10214E0052C307F0000E006E000E016E280E026ED6
:10215E00840E036E16EC08F000C099F301C09AF3DA
:10216E0002C09BF303C09CF38FC300F090C301F039
:10217E005EDC99C304F09AC305F09BC306F09CC3C2
:10218E0007F083EC07F000C09DF301C09EF302C080
:10219E009FF303C0A0F39DC377F39EC378F39FC351
:1021AE0079F3A0C37AF391C300F092C301F03FDC40
:1021BE0099C304F09AC305F09BC306F09CC307F0C5
:1021CE0083EC07F000C099F301C09AF302C09BF3B1
:1021DE0003C09CF399C37BF39AC37CF39BC37DF33B
:1021EE009CC37EF39DC300F09EC301F09FC302F01B
:1021FE00A0C303F0000E046E000E056E000E066EF8
:10220E007F0E076E8BEC09F000C077F301C078F3F8
:10221E0002C079F303C07AF399C300F09AC301F0B8
:10222E009BC302F09CC303F0000E046E000E056EFD
:10223E00000E066E7F0E076E8BEC09F000C07BF36E
:10224E0001C07CF302C07DF303C07EF32E0E0301AA
:10225E00DA6F04EC0CF0020E0B6E450E0C6EA90E2E
:10226E000D6E0D2EFED70C2EFCD70B2EFAD70000BE
:10227E000000120E0201FA6F000EFB6F140E006EBC
:10228E00000E016EFAC204F0FBC205F029EC0CF050
:10229E00B30E0026000E01220C0E0024D96E000E85
:1022AE000120DA6EDECF04F0DECF05F0DECF06F0D1
:1022BE00DECF07F047C300F048C301F049C302F078
:1022CE004AC303F07FEC04F0010ED8B0000E006E8E
:1022DE000052D8B487D0010EFA5D006E000EFB5985
:1022EE00016E140E046E000E056E29EC0CF0B30E8A
:1022FE0000240301996F000E01209A6F99C3E9FF24
:10230E009AC3EAFFEECF00F0EECF01F0EECF02F06F
:10231E00EECF03F0E3DD00C083F301C084F3040EBF
:10232E009925E96E000E9A21EA6EEECF00F0EECFFF
:10233E0001F0EECF02F0EECF03F0000E046E000EB1
:10234E00056E160E066E870E076E83EC07F000C044
:10235E006FF301C070F302C071F303C072F3040E89
:10236E009925D96E000E9A21DA6EDECF04F0DECFFB
:10237E0005F0DECF06F0DECF07F07FC300F080C39E
:10238E0001F081C302F082C303F016EC08F000C026
:10239E0053F301C054F302C055F303C056F3040EB9
:1023AE0003019925E96E000E9A21EA6EEECF67F3CE
:1023BE00EECF68F3EECF69F3EECF6AF3100E9925E8
:1023CE00E96E000E9A21EA6EEECF00F0EECF01F02C
:1023DE00EECF02F0EECF03F081DD00C095F301C029
:1023EE0096F306D0010E0201FA5F000EFB5B46D794
:1023FE000201120EFA6F000EFB6F140E006E000E2D
:10240E00016EFAC204F0FBC205F029EC0CF0B30E1B
:10241E000026000E01220C0E0024D96E000E0120A3
:10242E00DA6EDECF04F0DECF05F0DECF06F0DECFC3
:10243E0007F04BC300F04CC301F04DC302F04EC386
:10244E0003F07FEC04F0010ED8B0000E006E0052C7
:10245E00D8B487D0010EFA5D006E000EFB59016EE6
:10246E00140E046E000E056E29EC0CF0B30E002453
:10247E000301996F000E01209A6F99C3E9FF9AC369
:10248E00EAFFEECF00F0EECF01F0EECF02F0EECF8E
:10249E0003F024DD00C085F301C086F3040E9925F8
:1024AE00E96E000E9A21EA6EEECF00F0EECF01F04B
:1024BE00EECF02F0EECF03F0000E046E000E056EAE
:1024CE00200E066E870E076E83EC07F000C073F3C6
:1024DE0001C074F302C075F303C076F3040E9925A0
:1024EE00D96E000E9A21DA6EDECF04F0DECF05F043
:1024FE00DECF06F0DECF07F07FC300F080C301F021
:10250E0081C302F082C303F016EC08F000C057F34B
:10251E0001C058F302C059F303C05AF3040E03016D
:10252E009925E96E000E9A21EA6EEECF6BF3EECF8F
:10253E006CF3EECF6DF3EECF6EF3100E9925E96EC0
:10254E00000E9A21EA6EEECF00F0EECF01F0EECF44
:10255E0002F0EECF03F0C2DC00C097F301C098F397
:10256E0006D0010E0201FA5F000EFB5B46D72E0E5F
:10257E000301DA6F04EC0CF0020E0B6E450E0C6EBE
:10258E00A90E0D6E0D2EFED70C2EFCD70B2EFAD7E4
:10259E000000000089C387F38AC388F387378791C9
:1025AE0088378BC300F08CC301F0003600900136E3
:1025BE0000508727015088232E0EDA6F04EC0CF0A2
:1025CE00020E0B6E450E0C6EA90E0D6E0D2EFED765
:1025DE000C2EFCD70B2EFAD7000000002E0EDA6F51
:1025EE0004EC0CF0020E0B6E450E0C6EA90E0D6E69
:1025FE000D2EFED70C2EFCD70B2EFAD700000000A6
:10260E008DC300F08EC301F01EEC0DF07FC304F0FD
:10261E0080C305F081C306F082C307F083EC07F098
:10262E0000C09DF301C09EF302C09FF303C0A0F350
:10263E0053C304F054C305F055C306F056C307F058
:10264E0077C300F078C301F079C302F07AC303F0C8
:10265E0016EC08F07FC304F080C305F081C306F0CA
:10266E0082C307F083EC07F067C304F068C305F07C
:10267E0069C306F06AC307F083EC07F000C099F354
:10268E0001C09AF302C09BF303C09CF357C304F03E
:10269E0058C305F059C306F05AC307F07BC300F0C8
:1026AE007CC301F07DC302F07EC303F016EC08F08C
:1026BE007FC304F080C305F081C306F082C307F028
:1026CE0083EC07F06BC304F06CC305F06DC306F02A
:1026DE006EC307F083EC07F099C304F09AC305F0BC
:1026EE009BC306F09CC307F08BEC09F000C004F00E
:1026FE0001C005F002C006F003C007F09DC300F054
:10270E009EC301F09FC302F0A0C303F01BEC0DF0BB
:10271E0000C063F301C064F302C065F303C066F347
:10272E002E0E0301DA6F04EC0CF0020E0B6E450E4A
:10273E000C6EA90E0D6E0D2EFED70C2EFCD70B2E89
:10274E00FAD70000000093C338F094C339F047C3A2
:10275E007EF048C37FF049C380F04AC381F087C33F
:10276E003CF088C33DF077C386F078C387F079C319
:10277E0088F07AC389F07BC38AF07CC38BF07DC36B
:10278E008CF07EC38DF083C342F084C343F085C3C7
:10279E0044F086C345F05BC396F05CC397F05DC30F
:1027AE0098F05EC399F05FC39AF060C39BF061C36B
:1027BE009CF062C39DF063C39EF064C39FF065C33B
:1027CE00A0F066C3A1F053C3A2F054C3A3F055C347
:1027DE00A4F056C3A5F057C3A6F058C3A7F059C32B
:1027EE00A8F05AC3A9F095C350F096C351F097C301
:1027FE0052F098C353F06FC3B2F070C3B3F071C30D
:10280E00B4F072C3B5F073C3B6F074C3B7F075C34A
:10281E00B8F076C3B9F02E0EDA6F04EC0CF0060E9B
:10282E000B6E130E0C6EAD0E0D6E0D2EFED70C2E06
:10283E00FCD70B2EFAD700000000010EE26F34EC2D
:10284E0003F00B4B0C2B010E0F6F000E106F060ECC
:10285E000B6E130E0C6EAD0E0D6E0D2EFED70C2ED6
:0C286E00FCD70B2EFAD70000000012006F
:10287A0049C3A1F34AC3A2F3F30E0301A36F020EE5
:10288A00A46F51EC0CF0010EE26F34EC03F0010E70
:10289A00A16F010EA26F47C3A3F348C3A4F3C9EC07
:1028AA000CF0020EA16F010EA26FF30EA36F020EBF
:1028BA00A46FC9EC0CF0000E0C5D02E1120E0B5D68
:1028CA0006E3010E0201FA6F000EFB6F05D002014A
:1028DA000A0EFA6F000EFB6F020E0301A16FFAC215
:1028EA00A2F34BC3A3F34CC3A4F3C9EC0CF0030E3D
:1028FA000B6E8A0E0C6E550E0D6E0D2EFED70C2E1B
:0C290A00FCD70B2EFAD7000000001200D2
:102916000301EB6BE7C301F0010E006E015004E00A
:1029260000360090FF0FFBD700C0EAF3E5C3E9FFCE
:10293600E6C3EAFF0050EE14016E0152010ED8A460
:10294600000E006EE951001A1AE0E851000806E28E
:10295600BEEC0CF0BEEC0CF0E807F7D7E5C3E9FFD8
:10296600E6C3EAFFEA51EE14016E0152010ED8A445
:10297600000E006EE951001A02E0FF0EEB6FEBC38A
:0429860000F012004B
:10298A00036A2D0E016E030E026E03500126D8B0A3
:10299A00022A035003014725F66E000E4821F76EFE
:1029AA00000E4921F86E0900F5CF00F001C0E1FFE1
:1029BA0002C0E2FF00C0E6FF01C0E9FF02C0EAFF71
:1029CA00EE5202E0032ADDD72D0E006E030E016ED1
:0229DA001200E9
:1029DC00036A190E016E030E026E03500126D8B065
:1029EC00022A035003014725F66E000E4821F76EAC
:1029FC00000E4921F86E0900F5CF00F001C0E1FF8F
:102A0C0002C0E2FF00C0E6FF01C0E9FF02C0EAFF1E
:102A1C00EE5202E0032ADDD7190E006E030E016E92
:022A2C00120096
:102A2E00000E006E03010C51005C02E10B51070811
:102A3E0011E349C3A1F34AC3A2F34BC3A3F34CC39F
:102A4E00A4F3FC0EA56F020EA66F010EA76F51EC3C
:102A5E000EF010D049C3A1F34AC3A2F34BC3A3F3A4
:102A6E004CC3A4F3FC0EA56F020EA66F040EA76F47
:102A7E0051EC0EF0010EE26F34EC03F0010EA16F7B
:102A8E00010EA26F47C3A3F348C3A4F3C9EC0CF025
:102A9E00020EA16F010EA26FFC0EA36F020EA46FA9
:102AAE00C9EC0CF0020EA16F0A0EA26F4DC3A3F378
:102ABE004EC3A4F3C9EC0CF0020E0B6E450E0C6E59
:102ACE00A90E0D6E0D2EFED70C2EFCD70B2EFAD79F
:062ADE00000000001200E0
:102AE40003010D6B0E6B800E4819006E800E0E19DB
:102AF400005C02E10D51475D0DE38B82460EA16F30
:102B040009EC0DF08B92460EA16F09EC0DF00D4B04
:062B14000E2BE9D71200B0
:102B1A0092929290929492969298929A899289908D
:102B2A00899A899889968994C2EC02F0C2EC02F0DB
:102B3A00C2EC02F0898689848982BFEC02F089920C
:102B4A00C2EC02F08982BFEC02F08992C2EC02F078
:102B5A008982BFEC02F08992C2EC02F089948982E0
:102B6A00BFEC02F08992C2EC02F08982BFEC02F05B
:102B7A0089928996898A8982BFEC02F08992C2EC8D
:102B8A0002F0899A89848982BFEC02F08992899439
:102B9A008982BFEC02F08992C2EC02F08982BFEC12
:102BAA0002F0899289848982BFEC02F08992C2EC90
:102BBA0002F089948982BFEC02F08992898A898815
:102BCA00898689848982BFEC02F08992C2EC02F07C
:062BDA0003011781120047
:102BE00003010F6B106B010E156F000E166F136B48
:102BF000146B4BC34FF34CC350F34DC351F34EC34F
:102C000052F38B94116B126B020EA16F010EA26F27
:102C1000AA0EA36F000EA46FC9EC0CF08B8CA30E50
:102C20000C6E550E0D6E0D2EFED70C2EFCD78B8E16
:102C300013C3A1F314C3A2F3F30EA36F020EA46F88
:102C400051EC0CF0020EA16F0A0EA26FF30EA36FEF
:102C5000020EA46FC9EC0CF0000E0201F21902E1A1
:102C6000010EF11908E1F16BF26B49C3A1F34AC3FC
:102C7000A2F30CEC0CF013C300F014C301F060ECF1
:102C80000FF04FC304F050C305F051C306F052C318
:102C900007F07FEC04F0000ED8B0010E006E005279
:102CA0001BE04FC300F050C301F051C302F052C308
:102CB00003F04BC304F04CC305F04DC306F04EC304
:102CC00007F08BEC09F000C04FF301C050F302C0D5
:102CD00051F303C052F3827403014851145D02E1C1
:102CE0004751135D01E301D0A3D78B9EA30E0C6E59
:102CF000550E0D6E0D2EFED70C2EFCD78B9C010EA3
:102D00000201EF6F000EF06F0301156B166B010EE1
:102D10000F6F000E106F8B800B4B0C2B030E0B6E86
:102D20008A0E0C6E550E0D6E0D2EFED70C2EFCD796
:0A2D30000B2EFAD70000000012007D
:102D3A00C6EC20F0926AFF0E936E080E946E0F0E88
:102D4A00C16E070EB46E806A816A826A020E0B6EC9
:102D5A00450E0C6EA90E0D6E0D2EFED70C2EFCD74D
:102D6A000B2EFAD700000000D3DED190F286F29043
:102D7A00F190F288F292F086F090F088F092F28E5A
:102D8A00020E0B6E450E0C6EA90E0D6E0D2EFED7A1
:102D9A000C2EFCD70B2EFAD7000000006D966F861A
:102DAA0082900201F16BF26B829E829C010E0301FA
:102DBA00E26F34EC03F0010EA16F030EA26F640EF2
:102DCA00A36F020EA46FC9EC0CF0020EA16F040EE1
:102DDA00A26F580EA36F020EA46FC9EC0CF0070E77
:102DEA000B6E580E0C6E590E0D6E0D2EFED70C2E54
:102DFA00FCD70B2EFAD700000000010EE26F34EC6C
:102E0A0003F0010EA16F020EA26F520EA36F020E03
:102E1A00A46FC9EC0CF0020EA16F020EA26F700E25
:102E2A00A36F020EA46FC9EC0CF0070E0B6E580EBE
:102E3A000C6E590E0D6E0D2EFED70C2EFCD70B2ED6
:102E4A00FAD700000000156B166B1E0E436F000EBA
:102E5A00446F0B6B0C6B010E0201EF6F000EF06FEB
:102E6A00070E0B6E580E0C6E590E0D6E0D2EFED7F8
:102E7A000C2EFCD70B2EFAD700000000010E03011E
:102E8A000F6F000E106F0C51445D02E10B51435D50
:102E9A0002E20B6B0C6B0C0EE26F34EC03F09FEF4B
:102EAA001DF0030E006E000E016E0BC304F00CC37E
:102EBA0005F029EC0CF0910E0024E96E020E0120B7
:102ECA00EA6EEECF47F3EECF48F3EECF49F358DD83
:102EDA0000C047F301C048F30BC300F00CC301F074
:102EEA00003600900136280E0024E96E000E0120FB
:102EFA00EA6EEECF49F3EECF4AF37FC24BF380C2BC
:102F0A004CF3B6DC86EF1EF0030E006E000E016E67
:102F1A000BC304F00CC305F029EC0CF0910E00244D
:102F2A00E96E020E0120EA6EEECF47F3EECF48F3C8
:102F3A00EECF49F325DD00C047F301C048F30BC3C8
:102F4A0000F00CC301F0003600900136280E002470
:102F5A00E96E000E0120EA6EEECF49F3EECF4AF396
:102F6A007FC24BF380C24CF383DC86EF1EF0030E64
:102F7A00006E000E016E0BC304F00CC305F029ECC1
:102F8A000CF0910E0024E96E020E0120EA6EEECFDB
:102F9A0047F3EECF48F3EECF49F3F2DC00C047F334
:102FAA0001C048F30BC300F00CC301F000360090D7
:102FBA0001360036009001365A0E0024E96E000EE2
:102FCA000120EA6EEECF49F3EECF4AF3EECF4BF390
:102FDA00EECF4CF381C24DF382C24EF323DD86EF6E
:102FEA001EF0030E006E000E016E0BC304F00CC33C
:102FFA0005F029EC0CF0910E0024E96E020E012076
:10300A00EA6EEECF47F3EECF48F3EECF49F3B8DCE2
:10301A0000C047F301C048F30BC300F00CC301F032
:10302A00003600900136280E0024E96E000E0120B9
:10303A00EA6EEECF49F3EECF4AF383C24BF384C272
:10304A004CF316DC86EF1EF0030E006E000E016EC6
:10305A000BC304F00CC305F029EC0CF0910E00240C
:10306A00E96E020E0120EA6EEECF47F3EECF48F387
:10307A00EECF49F385DC00C047F301C048F30BC328
:10308A0000F00CC301F0003600900136280E00242F
:10309A00E96E000E0120EA6EEECF49F3EECF4AF355
:1030AA0083C24BF384C24CF33DEC14F086EF1EF05E
:1030BA00030E006E000E016E0BC304F00CC305F084
:1030CA0029EC0CF0910E0024E96E020E0120EA6E42
:1030DA00EECF47F3EECF48F3EECF49F351DC00C011
:1030EA0047F301C048F30BC300F00CC301F00036EC
:1030FA0000900136280E0024E96E000E0120EA6EC7
:10310A00EECF49F3EECF4AF383C24BF384C24CF3BA
:10311A003DEC14F086EF1EF0030E006E000E016EF9
:10312A000BC304F00CC305F029EC0CF0910E00243B
:10313A00E96E020E0120EA6EEECF47F3EECF48F3B6
:10314A00EECF49F31DDC00C047F301C048F30BC3BF
:10315A0000F00CC301F0003600900136280E00245E
:10316A00E96E000E0120EA6EEECF49F3EECF4AF384
:10317A0083C24BF384C24CF33DEC14F086EF1EF08D
:10318A00DFEC0FF086EF1EF0030E006E000E016EEC
:10319A000BC304F00CC305F029EC0CF0910E0024CB
:1031AA00E96E020E0120EA6EEECF47F3EECF48F346
:1031BA00EECF49F3C5EC14F000C047F301C048F361
:1031CA000BC300F00CC301F0003600900136280E44
:1031DA000024E96E000E0120EA6EEECF49F3EECF2D
:1031EA004AF38DC24BF38EC24CF33DEC14F086EFDA
:1031FA001EF0030E006E000E016E0BC304F00CC32A
:10320A0005F029EC0CF0910E0024E96E020E012063
:10321A00EA6EEECF47F3EECF48F3EECF49F3C5ECB3
:10322A0014F000C047F301C048F30BC300F00CC30D
:10323A0001F00036009001360036009001365A0E31
:10324A000024E96E000E0120EA6EEECF49F3EECFBC
:10325A004AF3EECF4BF3EECF4CF381C24DF382C269
:10326A004EF317EC15F086EF1EF0030E006E000EFB
:10327A00016E0BC304F00CC305F029EC0CF0910E9F
:10328A000024E96E020E0120EA6EEECF47F3EECF7C
:10329A0048F3EECF49F3C5EC14F000C047F301C080
:1032AA0048F30BC300F00CC301F00036009001365E
:1032BA00280E0024E96E000E0120EA6EEECF49F3D3
:1032CA00EECF4AF383C24BF384C24CF33DEC14F0C5
:1032DA0086EF1EF0030E006E000E016E0BC304F0A3
:1032EA000CC305F029EC0CF0910E0024E96E020ED5
:1032FA000120EA6EEECF47F3EECF48F3EECF49F363
:10330A00C5EC14F000C047F301C048F30BC300F04A
:10331A000CC301F0003600900136003600900136E9
:10332A005A0E0024E96E000E0120EA6EEECF00F07C
:10333A00EECF01F0EECF02F0EECF03F075EC0FF016
:10334A0000C049F301C04AF385C24BF386C24CF36D
:10335A003DEC14F086EF1EF0030E006E000E016EB7
:10336A000BC304F00CC305F029EC0CF0910E0024F9
:10337A00E96E020E0120EA6EEECF47F3EECF48F374
:10338A00EECF49F3C5EC14F000C047F301C048F38F
:10339A000BC300F00CC301F0003600900136003672
:1033AA00009001365A0E0024E96E000E0120EA6EE2
:1033BA00EECF00F0EECF01F0EECF02F0EECF03F049
:1033CA0075EC0FF000C049F301C04AF385C24BF314
:1033DA0086C24CF33DEC14F086EF1EF0030E006E2D
:1033EA00000E016E0BC304F00CC305F029EC0CF0BF
:1033FA00910E0024E96E020E0120EA6EEECF47F329
:10340A00EECF48F3EECF49F3C5EC14F000C047F312
:10341A0001C048F30BC300F00CC301F00036009062
:10342A000136280E0024E96E000E0120EA6EEECF66
:10343A0049F3EECF4AF387C24BF388C24CF33DEC13
:10344A0014F086EF1EF0030E006E000E016E0BC321
:10345A0004F00CC305F029EC0CF0910E0024E96E7F
:10346A00020E0120EA6EEECF47F3EECF48F3EECF1D
:10347A0049F3C5EC14F000C047F301C048F30BC38D
:10348A0000F00CC301F0003600900136280E00242B
:10349A00E96E000E0120EA6EEECF49F3EECF4AF351
:1034AA0087C24BF388C24CF33DEC14F086EF1EF052
:1034BA00030E006E000E016E0BC304F00CC305F080
:1034CA0029EC0CF0910E0024E96E020E0120EA6E3E
:1034DA00EECF47F3EECF48F3EECF49F3C5EC14F045
:1034EA0000C047F301C048F30BC300F00CC301F05E
:1034FA000036009001360036009001365A0E00243C
:10350A00E96E000E0120EA6EEECF49F3EECF4AF3E0
:10351A00EECF4BF3EECF4CF389C24DF38AC24EF392
:10352A0017EC15F0EED3030E006E000E016E0BC3FE
:10353A0004F00CC305F029EC0CF0910E0024E96E9E
:10354A00020E0120EA6EEECF47F3EECF48F3EECF3C
:10355A0049F3C5EC14F000C047F301C048F30BC3AC
:10356A0000F00CC301F000360090013600360090DE
:10357A0001365A0E0024E96E000E0120EA6EEECFE3
:10358A0049F3EECF4AF3EECF4BF3EECF4CF389C2B9
:10359A004DF38AC24EF317EC15F0B3D3030E006E47
:1035AA00000E016E0BC304F00CC305F029EC0CF0FD
:1035BA00910E0024E96E020E0120EA6EEECF47F367
:1035CA00EECF48F3EECF49F3C5EC14F000C047F351
:1035DA0001C048F30BC300F00CC301F000360090A1
:1035EA0001360036009001365A0E0024E96E000EAC
:1035FA000120EA6EEECF49F3EECF4AF3EECF4BF35A
:10360A00EECF4CF38BC24DF38CC24EF317EC15F090
:10361A0078D3870E476F400E486F000E496FEEEC65
:10362A0014F000C045F301C046F3FE0E476F400E8A
:10363A00486F000E496FC5EC14F000C047F301C093
:10364A0048F336C049F337C04AF345C34BF346C380
:10365A004CF33DEC14F0000E0201F21902E1010EE6
:10366A00F11909E1F16BF26B960E0301476F000E37
:10367A00486F72EC15F0010E0201EF6F000EF06F49
:10368A0040D38B94A6C000F0A7C001F0A8C002F0F6
:10369A00A9C003F0B6C004F0B7C005F0B8C006F080
:1036AA00B9C007F083EC07F075EC0FF000C041F3E6
:1036BA0001C042F303010F6B106B140E476F400EEB
:1036CA00486F000E496FEEEC14F000C045F301C0DC
:1036DA0046F3770E476F400E486F000E496FC5ECF0
:1036EA0014F000C047F301C048F336C049F337C0AD
:1036FA004AF345C34BF346C34CF33DEC14F041C3C4
:10370A00A1F342C3A2F30CEC0CF00B4B0C2BF9D235
:10371A00010E0F6F000E106F360E476F400E486F86
:10372A00000E496FEEEC14F000C045F301C046F3F9
:10373A00770E476F400E486F000E496FC5EC14F0C4
:10374A0000C047F301C048F336C049F337C04AF313
:10375A0045C34BF346C34CF33DEC14F0D2D28B84F1
:10376A000F6B106B140E476F400E486F000E496FB7
:10377A00EEEC14F000C045F301C046F3030E476FA8
:10378A00400E486F000E496FC5EC14F000C047F3B5
:10379A0001C048F336C049F337C04AF345C34BF377
:1037AA0046C34CF33DEC14F041C3A1F342C3A2F368
:1037BA000CEC0CF00B4B0C2BA4D2470E476F400EAF
:1037CA00486F000E496FEEEC14F000C045F301C0DB
:1037DA0046F3B50E476F400E486F000E496FC5ECB1
:1037EA0014F000C047F301C048F336C049F337C0AC
:1037FA004AF345C34BF346C34CF33DEC14F081D274
:10380A007B0E476F410E486F000E496FEEEC14F0C5
:10381A0000C045F301C046F3570E476F400E486F8C
:10382A00000E496FC5EC14F000C047F301C048F31D
:10383A0036C049F337C04AF345C34BF346C34CF38A
:10384A003DEC14F086C000F087C001F088C002F099
:10385A0089C003F075EC0FF000C047F301C048F3CC
:10386A00B2C000F0B3C001F0B4C002F0B5C003F0BA
:10387A0075EC0FF000C049F301C04AF3A2C04BF344
:10388A00A3C04CF3A4C04DF3A5C04EF3F0EC15F061
:10389A0038D2870E476F400E486F000E496FEEEC24
:1038AA0014F000C045F301C046F3FE0E476F400E08
:1038BA00486F000E496FC5EC14F000C047F301C011
:1038CA0048F336C049F337C04AF345C34BF346C3FE
:1038DA004CF33DEC14F0000E0201F21902E1010E64
:1038EA00F11909E1F16BF26B960E0301476F000EB5
:1038FA00486F72EC15F0010E0201EF6F000EF06FC7
:10390A0000D28B94A2C000F0A3C001F0A4C002F0C0
:10391A00A5C003F0B2C004F0B3C005F0B4C006F00D
:10392A00B5C007F083EC07F075EC0FF000C041F367
:10393A0001C042F303010F6B106B140E476F400E68
:10394A00486F000E496FEEEC14F000C045F301C059
:10395A0046F3770E476F400E486F000E496FC5EC6D
:10396A0014F000C047F301C048F336C049F337C02A
:10397A004AF345C34BF346C34CF33DEC14F041C341
:10398A00A1F342C3A2F30CEC0CF00B4B0C2BB9D1F4
:10399A00360E476F400E486F000E496FEEEC14F07A
:1039AA0000C045F301C046F3770E476F400E486FDB
:1039BA00000E496FC5EC14F000C047F301C048F38C
:1039CA0036C049F337C04AF345C34BF346C34CF3F9
:1039DA003DEC14F096D18B840F6B106B140E476F6D
:1039EA00400E486F000E496FEEEC14F000C045F32C
:1039FA0001C046F3030E476F400E486F000E496F31
:103A0A00C5EC14F000C047F301C048F336C049F3CF
:103A1A0037C04AF345C34BF346C34CF33DEC14F0AD
:103A2A0041C3A1F342C3A2F30CEC0CF00B4B0C2BD9
:103A3A0068D1670E476F400E486F000E496FEEEC73
:103A4A0014F000C045F301C046F3B50E476F400EAF
:103A5A00486F000E496FC5EC14F000C047F301C06F
:103A6A0048F336C049F337C04AF345C34BF346C35C
:103A7A004CF33DEC14F045D17B0E476F410E486F75
:103A8A00000E496FEEEC14F000C045F301C046F396
:103A9A00250E476F400E486F000E496FC5EC14F0B3
:103AAA0000C047F301C048F336C049F337C04AF3B0
:103ABA0045C34BF346C34CF33DEC14F08AC000F007
:103ACA008BC001F08CC002F08DC003F075EC0FF0D2
:103ADA0000C047F301C048F3B2C000F0B3C001F020
:103AEA00B4C002F0B5C003F075EC0FF000C049F3A2
:103AFA0001C04AF3A2C04BF3A3C04CF3A4C04DF3D8
:103B0A00A5C04EF3F0EC15F0FCD0010EA16F010E2A
:103B1A00A26F400EA36F020EA46FC9EC0CF0020E46
:103B2A00A16F010EA26F2F0EA36F020EA46FC9EC34
:103B3A000CF0E7D0000E0C1902E1000E0B19D8B4F4
:103B4A0056EF17F0000E0C1902E1010E0B19D8B44A
:103B5A0089EF17F0000E0C1902E1020E0B19D8B406
:103B6A00BCEF17F0000E0C1902E1030E0B19D8B4C2
:103B7A00F6EF17F0000E0C1902E1040E0B19D8B477
:103B8A0029EF18F0000E0C1902E1050E0B19D8B432
:103B9A005DEF18F0000E0C1902E1060E0B19D8B4ED
:103BAA0091EF18F0000E0C1902E1070E0B19D8B4A8
:103BBA00C5EF18F0000E0C1902E1080E0B19D8B463
:103BCA00C9EF18F0000E0C1902E1090E0B19D8B44E
:103BDA00FEEF18F0000E0C1902E10A0E0B19D8B408
:103BEA003AEF19F0000E0C1902E10B0E0B19D8B4BA
:103BFA006FEF19F0000E0C1902E10C0E0B19D8B474
:103C0A00B1EF19F0000E0C1902E10D0E0B19D8B420
:103C1A00F3EF19F0000E0C1902E10E0E0B19D8B4CD
:103C2A0012D4000E0C1902E10F0E0B19D8B440D4AD
:103C3A00000E0C1902E1100E0B19D8B474D4000E40
:103C4A000C1902E1110E0B19D8B4A8D4000E0C19E4
:103C5A0002E1120E0B19D8B4DCD4000E0C1902E1E1
:103C6A00130E0B19D8B40DD5000E0C1902E1140E5F
:103C7A000B19D8B44DD5000E0C1902E1150E0B190B
:103C8A00D8B46DD5000E0C1902E1160E0B19D8B472
:103C9A0094D5000E0C1902E1170E0B19D8B4B0D541
:103CAA00000E0C1902E1180E0B19D8B4F2D5000E49
:103CBA000C1902E1190E0B19D8B423D6000E0C19EF
:103CCA0002E11A0E0B19D8B463D6000E0C1902E1E0
:103CDA001B0E0B19D8B47FD6000E0C1902E11C0E6C
:103CEA000B19D8B4A6D6000E0C1902E11D0E0B1939
:103CFA00D8B4C2D6000E0C1902E11E0E0B19D8B4A4
:083D0A0004D743EF17F0FFD7C7
:10418C0010EE28F0C70E006E030E016E120EF66EC6
:0E419C003D0EF76E000EF86E9EEC0BF012005A
:0100060000F9
:103D1200DC000C0000001D001D000B002400000050
:103D22000000000000000000000000000000000091
:083D3200000000000000000089
:0A3D3A00436F6D707574696E6700C9
:103D440000000000000000000000408000000000AF
:103D5400000000000000000000000000000000005F
:103D6400000000000000000000000000000000004F
:103D7400000000000000000000000000000000003F
:103D8400000000000000000000000000000000002F
:093D94005475726E204E6F3A0066
:103D9D0000000083D7A3507F508D177952B82E8124
:103DAD0000000286000008838FC2357F1EA7687849
:103DBD008FC205810000028600001083F6281C7F4B
:103DCD00C3642A78E17A44800000028600001883DB
:103DDD005C8F027FA3E96C77EC51088000000286AE
:103DED0000002083E7FB697E3E054077A4705D7F70
:103DFD000000028600002883C520507E41B717774A
:103E0D00295C2F7F00007085000030831904367EF9
:103E1D0058FF67766666067F000070850000388360
:103E2D00F6281C7EC3642A76A69B447E0000488536
:103E3D0000004083A01A0F7E1A860F76B81E257ECD
:103E4D0000004885000048834A0C027E863D6D7552
:103E5D00B072087E00003E8500005083E7FB697D4F
:103E6D00795D3F751B2F5D7D000020850000588317
:103E7D000681557D68E81F75D9CE377D00002085F8
:103E8D00000060831283407DE3C201750681157DBC
:103E9D000000208500006883D7A3307D03275B7465
:103EAD0091ED7C7C0000208500007083AE47217D64
:103EBD00A930367485EB517C00000C8500007883A9
:103ECD003D0A177D30621F74C74B377C00000C858F
:103EDD0000000084BA490C7DB893087477BE1F7C2E
:103EED0000000C85000004844A0C027D6AFA6C7394
:103EFD002731087C00000C8500000884B29D6F7C82
:0C3F0D0064CD48738B6C677B00000C8552
:103F190050726573734F6B546F52657475726E206E
:013F29000097
:103F2A0057696E64696E6746696E6973686564216C
:013F3A000086
:013F3B00FF86
:063F3C00456E7465720081
:0C3F4200436F696C2057696E6465720063
:0C3F4E005472616E73666F726D657200D4
:0F3F5A0053706563696669636174696F6E7300A4
:103F6900DF02DA02EB02E502D602CE02C702D30271
:023F7900D20272
:103F7B004641002E41000A41005C4100164100D32E
:103F8B004000A6400006000071410051410067410E
:103F9B0000C44000974000E24000F0400022410086
:063FAB003A4100844100D0
:073FB10073712E6D6D2E00EF
:043FB8006B672E0005
:013FBC000004
:033FBD005641006A
:043FC000415747001E
:053FC400616D70730047
:063FC900766F6C747300BA
:063FCF0074696D657300CA
:043FD5006D6D2E00E0
:013FD90000E7
:013FDA0000E6
:103FDB00010000000A00000064000000E80300007C
:103FEB0010270000A086010040420F008096980029
:083FFB0000E1F50500CA9A3B44
:1040030020202020202057414954212020202020F7
:0140130000AC
:10401400446F6E277420496E7465727275707421D2
:01402400009B
:104025005365636F6E642057696E64696E673A20E5
:01403500008A
:1040360050726573734F6B746F50726F636565640E
:014046000079
:10404700496E736572742031737420576972650005
:1040570046697273742057696E64696E673A200007
:10406700496E7365727420326E64205769726500F9
:10407700436865636B426F756E646172696573004F
:10408700466F7220537461727420506F696E7400AA
:0F4097004E6F4F665475726E7328326E64290037
:0F40A60057696E64696E67204C656E67746800B9
:0F40B50053746172742057696E64696E673F00BF
:0F40C4004E6F4F665475726E73283173742900F6
:0F40D30057696E64696E67204865696768740095
:0E40E2005769726553697A6528317374290035
:0E40F0005769726553697A6528326E6429003B
:0C40FE0041646A757374204B6E6F6200A1
:0C410A0043757272656E74204F7574006E
:0C411600436F726520486569676874009B
:0C41220057656967687457697265310061
:0C412E00566F6C74616765204F7574005B
:0C413A0057656967687457697265320048
:0B414600566F6C7461676520496E00C5
:0B41510043757272656E7420496E00A9
:0B415C00436F726520576964746800AF
:0A416700506572696D6574657200A1
:0A417100506F77657228564129004F
:09417B005475726E204E6F3A007B
:084184004169722047617000DF
:020000040030CA
:0E000000000C1F1EFF8381FF0FC00FE00F409A
:00000001FF
