:0400000070EF02F0AB
:1000080000C018F001C017F00CC016F00DC015F0B4
:10001800E9CF19F0EACF1AF0F2A211D0810E466E9C
:100028000F0E476E486A640E496E010E4A6EBCD9BF
:10003800005205E08284010E326E000E336EF0A08D
:1000480012D0810E466E0F0E476E010E486E640E7A
:10005800496E010E4A6EA8D9005205E08294010E3D
:10006800326E000E336EF0A213D0810E466E0F0E64
:10007800476E020E486E0A0E496E010E4A6E94D9FA
:10008800005206E0010E1D6E000E1E6E304A312A27
:10009800F292F092F09018C000F017C001F016C06C
:1000A8000CF015C00DF019C0E9FF1AC0EAFF1100E5
:0600B80000000000120030
:1000BE00120E0C6EDA0E0D6E0D2EFED70C2EFCD718
:0400CE00000012001C
:0C00D200290E0D6E0D2EFED7000012004E
:1000DE0045BE02D0899A01D0898A45BC02D0899842
:1000EE0001D0898845BA02D0899601D0898645B853
:1000FE0002D0899401D0898425B002D0898001D0A4
:10010E0089908982D2DF899245B602D0899A01D030
:10011E00898A45B402D0899801D0898845B202D027
:10012E00899601D0898645B002D0899401D0898400
:10013E0025B002D0898001D089908982B6DF89925C
:0C014E0025A002D0B5DF01D0BDDF1200FB
:10015A00086A096A100E0C6E013408360936045012
:10016A00085E0550D8A0053C095ED8B007D00450F7
:10017A0008260550D8B0053C0926D8900036013625
:06018A000C2EEAD7120062
:0C01900025903EC045F0A3DF2580120042
:10019C00020E0C6E9C0E0D6E0D2EFED70C2EFCD787
:0601AC000000000012003B
:1001B200426A050E425C0AE242504024E16E000EA1
:1001C2004120E26E200EE66E422AF3D742504024CE
:1001D200E16E000E4120E26EE66A42064250402481
:1001E200436E000E4120446E0A0E046E000E056E30
:1001F2003EC000F03FC001F0AFDF08C000F009C010
:1002020001F0300E002643C0E1FF44C0E2FF00C00F
:10021200E6FF0A0E046E000E056E3EC000F03FC0FF
:1002220001F09ADF00C03EF001C03FF0000E01185D
:1002320002E1000E001801E102D04206CFD71200FF
:100242003A6A3B6A34C03CF035C03DF0800E351846
:10025200006E800E005C02E1000E345C0BE2010EC7
:100262003A6E000E3B6E345000083C6E35C03DF0D5
:10027200000E3D563CC03EF03DC03FF036C040F05F
:1002820037C041F095DF060E386E000E396E000E53
:10029200006E3950005C02E13850000819E2385013
:1002A2003624E16E39503720E26E010E385C006E62
:1002B200000E3958016E00503624E96E0150372085
:1002C200EA6EEECFE6FF010E385E000E395ADFD736
:1002D20036C0E1FF37C0E2FF200EE66E3A503B1017
:1002E2001AE0386A396A38503624E96E39503720B4
:1002F200EA6EEE50200A03E1384A392AF4D7010E99
:10030200385E000E395A38503624E16E39503720A3
:08031200E26E2D0EE66E1200F2
:10031A0092929290929492969298929A89928990B5
:10032A00899A899889968994C5DEC4DEC3DE89864E
:10033A0089848982BCDE8992BDDE8982B8DE89928F
:10034A00B9DE8982B4DE8992B5DE89948982AFDE0C
:10035A008992B0DE8982ABDE89928996898A8982FE
:10036A00A6DE8992A7DE899A89848982A0DE89928B
:10037A00899489829CDE89929DDE898298DE89929F
:10038A008984898294DE899295DE899489828FDEB6
:10039A008992898A898889868984898288DE89926C
:0603AA0089DE258012002F
:1003B0004C6A48C001F0010E006E015004E00036A6
:1003C0000090FF0FFBD700C04BF046C0E9FF47C0CD
:1003D000EAFF0050EE14016E0152010ED8A4000E87
:1003E000006E4A50001A18E04950000804E2D6DEB8
:1003F000D5DE4906F9D746C0E9FF47C0EAFF4B50B2
:10040000EE14016E0152010ED8A4000E006E4A5087
:0E041000001A02E0FF0E4C6E4CC000F012000D
:10041E000FD0800E346E19D0C00E346E16D0940EDE
:10042E00346E13D0D40E346E10D0800E346E0DD0C8
:10043E003450010AEEE03450020AEEE03450030A62
:10044E00EEE03450040AEEE0F0D73504006E34507E
:10045E00002600C034F000C045F03ADE2590386A20
:10046E0038503624E96E000E3720EA6EEE520BE05D
:10047E0038503624E96E000E3720EA6EEECF3EF08D
:0A048E0080DE382AEDD72580120029
:10049800216A226A800E3518006E800E2218005CD0
:1004A80002E12150345C0FE38282290E0D6E0D2E7D
:1004B800FED700008292290E0D6E0D2EFED7000089
:0804C800214A222AE7D71200A5
:1004D0000900F5CFE6FF0006FBE10106F9E1120095
:1004E0007F0E926EFF0E936E300E946E0F0EC16EE5
:1004F000070EB46E806A816A826A020E0B6E450E28
:100500000C6EA90E0D6E0D2EFED70C2EFCD70B2EE9
:10051000FAD700000000F288F292F086F090F0889E
:10052000F092F28E020E0B6E450E0C6EA90E0D6E41
:100530000D2EFED70C2EFCD70B2EFAD70000000094
:100540006D966F86EADE82908294020E0C6E9E0E8D
:100550000D6E0D2EFED70C2EFCD700006E0E236EF6
:10056000010E246E250E1F6E000E206E1E0E1B6ED9
:10057000000E1C6E1D6A1E6A829C829A829E819663
:10058000306A316A326A336A010E2E6E000E2F6EA7
:10059000010E456EA4DD23C034F024C035F0260ED4
:1005A000366E000E376E4DDE010E346E010E356E66
:1005B000260E366E000E376E32DF000E82B4010E4C
:1005C000346E356A260E366E000E376E3ADE020E37
:1005D000346E010E356E260E366E000E376E1FDF3E
:1005E000000E331802E1010E321809E1C80E346E14
:1005F000000E356EA00E366E4FDF326A336A82BA55
:1006000001D001D0EDD7010E456E69DD1BC034F07D
:100610001CC035F0260E366E000E376E12DE010E4F
:10062000346E010E356E260E366E000E376EF7DE16
:100630008294000E2F1802E1010E2E180CE1828C1C
:10064000A30E0C6E550E0D6E0D2EFED70C2EFCD784
:10065000828E2E6A2F6A000E1E1802E1010E1D18EE
:100660001BE123C034F024C035F02DC036F014DF78
:100670001D6A1E6A30C034F031C035F0260E366E69
:10068000000E376EDEDD020E346E010E356E260E64
:0C069000366E000E376EC3DECCD7FFD7ED
:020000040030CA
:0E000000000C1F1EFF8381FF0FC00FE00F409A
:00000001FF
